{
  "_format": "hh-sol-artifact-1",
  "contractName": "TransparentProxy",
  "sourceName": "solc_0.7/proxy/TransparentProxy.sol",
  "abi": [
    {
      "inputs": [
        {
          "internalType": "address",
          "name": "implementationAddress",
          "type": "address"
        },
        {
          "internalType": "bytes",
          "name": "data",
          "type": "bytes"
        },
        {
          "internalType": "address",
          "name": "adminAddress",
          "type": "address"
        }
      ],
      "stateMutability": "nonpayable",
      "type": "constructor"
    },
    {
      "anonymous": false,
      "inputs": [
        {
          "indexed": true,
          "internalType": "address",
          "name": "previousImplementation",
          "type": "address"
        },
        {
          "indexed": true,
          "internalType": "address",
          "name": "newImplementation",
          "type": "address"
        }
      ],
      "name": "ProxyImplementationUpdated",
      "type": "event"
    },
    {
      "stateMutability": "payable",
      "type": "fallback"
    },
    {
      "inputs": [
        {
          "internalType": "address",
          "name": "newImplementation",
          "type": "address"
        },
        {
          "internalType": "bytes",
          "name": "data",
          "type": "bytes"
        }
      ],
      "name": "changeImplementation",
      "outputs": [],
      "stateMutability": "nonpayable",
      "type": "function"
    },
    {
      "inputs": [
        {
          "internalType": "address",
          "name": "newAdmin",
          "type": "address"
        }
      ],
      "name": "changeProxyAdmin",
      "outputs": [],
      "stateMutability": "nonpayable",
      "type": "function"
    },
    {
      "inputs": [],
      "name": "disableChangeProxyAdmin",
      "outputs": [],
      "stateMutability": "nonpayable",
      "type": "function"
    },
    {
      "inputs": [],
      "name": "proxyAdmin",
      "outputs": [
        {
          "internalType": "address",
          "name": "",
          "type": "address"
        }
      ],
      "stateMutability": "nonpayable",
      "type": "function"
    },
    {
      "stateMutability": "payable",
      "type": "receive"
    }
  ],
  "bytecode": "0x608060405234801561001057600080fd5b506040516107b13803806107b18339818101604052606081101561003357600080fd5b81516020830180516040519294929383019291908464010000000082111561005a57600080fd5b90830190602082018581111561006f57600080fd5b825164010000000081118282018810171561008957600080fd5b82525081516020918201929091019080838360005b838110156100b657818101518382015260200161009e565b50505050905090810190601f1680156100e35780820380516001836020036101000a031916815260200191505b506040526020015191506100f99050838361010a565b6101028161022d565b505050610251565b7f360894a13ba1a3210667c828492db98dca3e2076cc3735a920a3ca505d382bbc8054908390556040516001600160a01b0380851691908316907f5570d70a002632a7b0b3c9304cc89efb62d8da9eca0dbd7752c83b737906829690600090a3815115610228576000836001600160a01b0316836040518082805190602001908083835b602083106101ad5780518252601f19909201916020918201910161018e565b6001836020036101000a038019825116818451168082178552505050505050905001915050600060405180830381855af49150503d806000811461020d576040519150601f19603f3d011682016040523d82523d6000602084013e610212565b606091505b5050905080610226573d806000803e806000fd5b505b505050565b7fb53127684a568b3173ae13b9f8a6016e243e63b6e8ee1178d6a717850b5d610355565b610551806102606000396000f3fe6080604052600436106100435760003560e01c8063037998cc1461005a578063311241711461006f5780633e47158c146100fc5780639f712f2f1461012d57610052565b3661005257610050610160565b005b610050610160565b34801561006657600080fd5b506100506101ab565b34801561007b57600080fd5b506100506004803603604081101561009257600080fd5b6001600160a01b0382351691908101906040810160208201356401000000008111156100bd57600080fd5b8201836020820111156100cf57600080fd5b803590602001918460018302840111640100000000831117156100f157600080fd5b50909250905061021e565b34801561010857600080fd5b50610111610291565b604080516001600160a01b039092168252519081900360200190f35b34801561013957600080fd5b506100506004803603602081101561015057600080fd5b50356001600160a01b03166102ce565b7f360894a13ba1a3210667c828492db98dca3e2076cc3735a920a3ca505d382bbc5460003681823780813683855af491503d8082833e8280156101a1578183f35b8183fd5b50505050565b6101b3610398565b6001600160a01b0316336001600160a01b03161415610214577fffffffffffffffffffffffffffffffffffffffffffffffffffffffffffffffff7fb53127684a568b3173ae13b9f8a6016e243e63b6e8ee1178d6a717850b5d61025561021c565b61021c610160565b565b610226610398565b6001600160a01b0316336001600160a01b031614156102845761027f8383838080601f0160208091040260200160405190810160405280939291908181526020018383808284376000920191909152506103bd92505050565b61028c565b61028c610160565b505050565b600061029b610398565b6001600160a01b0316336001600160a01b031614156102c3576102bc610398565b90506102cb565b6102cb610160565b90565b6102d6610398565b6001600160a01b0316336001600160a01b0316141561038d577fb53127684a568b3173ae13b9f8a6016e243e63b6e8ee1178d6a717850b5d610254801561037e57604080517f08c379a000000000000000000000000000000000000000000000000000000000815260206004820152601d60248201527f6368616e676541646d696e20686173206265656e2064697361626c6564000000604482015290519081900360640190fd5b610387826104f7565b50610395565b610395610160565b50565b7fb53127684a568b3173ae13b9f8a6016e243e63b6e8ee1178d6a717850b5d61035490565b7f360894a13ba1a3210667c828492db98dca3e2076cc3735a920a3ca505d382bbc8054908390556040516001600160a01b0380851691908316907f5570d70a002632a7b0b3c9304cc89efb62d8da9eca0dbd7752c83b737906829690600090a381511561028c576000836001600160a01b0316836040518082805190602001908083835b6020831061047e57805182527fffffffffffffffffffffffffffffffffffffffffffffffffffffffffffffffe09092019160209182019101610441565b6001836020036101000a038019825116818451168082178552505050505050905001915050600060405180830381855af49150503d80600081146104de576040519150601f19603f3d011682016040523d82523d6000602084013e6104e3565b606091505b50509050806101a5573d806000803e806000fd5b7fb53127684a568b3173ae13b9f8a6016e243e63b6e8ee1178d6a717850b5d61035556fea26469706673582212203c3e2230db87fb98acfc2a667dd747fb0ec1699c1b3f1f31a2cfb01cae3b79d864736f6c63430007010033",
  "linkReferences": {},
  "deployedLinkReferences": {}
}