{
  "contractName": "Diamantaire",
  "sourceName": "solc_0.8/diamond/Diamantaire.sol",
  "abi": [
    {
      "inputs": [],
      "stateMutability": "nonpayable",
      "type": "constructor"
    },
    {
      "anonymous": false,
      "inputs": [
        {
          "indexed": false,
          "internalType": "contract Diamond",
          "name": "diamond",
          "type": "address"
        }
      ],
      "name": "DiamondCreated",
      "type": "event"
    },
    {
      "inputs": [
        {
          "internalType": "address",
          "name": "owner",
          "type": "address"
        },
        {
          "components": [
            {
              "internalType": "address",
              "name": "facetAddress",
              "type": "address"
            },
            {
              "internalType": "enum IDiamondCut.FacetCutAction",
              "name": "action",
              "type": "uint8"
            },
            {
              "internalType": "bytes4[]",
              "name": "functionSelectors",
              "type": "bytes4[]"
            }
          ],
          "internalType": "struct IDiamondCut.FacetCut[]",
          "name": "_diamondCut",
          "type": "tuple[]"
        },
        {
          "internalType": "bytes",
          "name": "data",
          "type": "bytes"
        },
        {
          "internalType": "bytes32",
          "name": "salt",
          "type": "bytes32"
        }
      ],
      "name": "createDiamond",
      "outputs": [
        {
          "internalType": "contract Diamond",
          "name": "diamond",
          "type": "address"
        }
      ],
      "stateMutability": "payable",
      "type": "function"
    }
  ],
  "bytecode": "0x60806040523480156200001157600080fd5b50606060006040516200002490620004ea565b604051809103906000f08015801562000041573d6000803e3d6000fd5b5060408051600180825281830190925291925060208083019080368337019050509150631f931c1c60e01b82600081518110620000825762000082620005de565b6001600160e01b031992909216602092830291909101820152604080516060810182526001600160a01b038481168252600093820184815292820186905283546001810185559380528151600294850260008051602062006ab58339815191520180546001600160a01b031981169290931691821781559351929484926001600160a81b03191690911790600160a01b908490811115620001275762000127620005f4565b02179055506040820151805162000149916001840191602090910190620004f8565b50505060006040516200015c90620005ab565b604051809103906000f08015801562000179573d6000803e3d6000fd5b5060408051600580825260c082019092529192506020820160a08036833701905050925063adfca15e60e01b83600081518110620001bb57620001bb620005de565b6001600160e01b0319909216602092830291909101909101528251637a0ed62760e01b9084906001908110620001f557620001f5620005de565b6001600160e01b03199092166020928302919091019091015282516366ffd66360e11b90849060029081106200022f576200022f620005de565b6001600160e01b03199092166020928302919091019091015282516314bbdacb60e21b9084906003908110620002695762000269620005de565b6001600160e01b03199092166020928302919091019091015282516301ffc9a760e01b9084906004908110620002a357620002a3620005de565b6001600160e01b031992909216602092830291909101820152604080516060810182526001600160a01b038481168252600093820184815292820187905283546001810185559380528151600294850260008051602062006ab58339815191520180546001600160a01b031981169290931691821781559351929484926001600160a81b03191690911790600160a01b908490811115620003485762000348620005f4565b0217905550604082015180516200036a916001840191602090910190620004f8565b50505060006040516200037d90620005b9565b604051809103906000f0801580156200039a573d6000803e3d6000fd5b50604080516002808252606082018352929350919060208301908036833701905050935063f2fde38b60e01b84600081518110620003dc57620003dc620005de565b6001600160e01b0319909216602092830291909101909101528351638da5cb5b60e01b9085906001908110620004165762000416620005de565b6001600160e01b031992909216602092830291909101820152604080516060810182526001600160a01b038481168252600093820184815292820188905283546001810185559380528151600294850260008051602062006ab58339815191520180546001600160a01b031981169290931691821781559351929484926001600160a81b03191690911790600160a01b908490811115620004bb57620004bb620005f4565b021790555060408201518051620004dd916001840191602090910190620004f8565b505050505050506200060a565b611d36806200421b83390190565b82805482825590600052602060002090600701600890048101928215620005995791602002820160005b838211156200056557835183826101000a81548163ffffffff021916908360e01c0217905550926020019260040160208160030104928301926001030262000522565b8015620005975782816101000a81549063ffffffff021916905560040160208160030104928301926001030262000565565b505b50620005a7929150620005c7565b5090565b61086e8062005f5183390190565b6102f680620067bf83390190565b5b80821115620005a75760008155600101620005c8565b634e487b7160e01b600052603260045260246000fd5b634e487b7160e01b600052602160045260246000fd5b613c01806200061a6000396000f3fe608060405260043610620000205760003560e01c8063ccc2e3161462000025575b600080fd5b6200003c6200003636600462000365565b62000065565b60405173ffffffffffffffffffffffffffffffffffffffff909116815260200160405180910390f35b6000811562000137578187604051602001620000b092919091825260601b7fffffffffffffffffffffffffffffffffffffffff00000000000000000000000016602082015260340190565b604051602081830303815290604052805190602001209150348290600060405180602001604052803073ffffffffffffffffffffffffffffffffffffffff168152506040516200010090620002e1565b6200010d92919062000465565b82906040518091039083f5915050801580156200012e573d6000803e3d6000fd5b50905062000185565b60408051602081018252308152905134916000916200015690620002e1565b6200016392919062000465565b6040518091039082f090508015801562000181573d6000803e3d6000fd5b5090505b60405173ffffffffffffffffffffffffffffffffffffffff821681527f644ca5b0a8b0418e9faf3880659eeb84eaad45ad838b0173808e5ca72f5efc499060200160405180910390a173ffffffffffffffffffffffffffffffffffffffff8116631f931c1c878786620001fa576000620001fc565b845b88886040518663ffffffff1660e01b81526004016200022095949392919062000924565b600060405180830381600087803b1580156200023b57600080fd5b505af115801562000250573d6000803e3d6000fd5b50506040517ff2fde38b00000000000000000000000000000000000000000000000000000000815273ffffffffffffffffffffffffffffffffffffffff8a811660048301528416925063f2fde38b9150602401600060405180830381600087803b158015620002be57600080fd5b505af1158015620002d3573d6000803e3d6000fd5b505050509695505050505050565b61310c8062000ac083390190565b803573ffffffffffffffffffffffffffffffffffffffff811681146200031457600080fd5b919050565b60008083601f8401126200032c57600080fd5b50813567ffffffffffffffff8111156200034557600080fd5b6020830191508360208285010111156200035e57600080fd5b9250929050565b600080600080600080608087890312156200037f57600080fd5b6200038a87620002ef565b9550602087013567ffffffffffffffff80821115620003a857600080fd5b818901915089601f830112620003bd57600080fd5b813581811115620003cd57600080fd5b8a60208260051b8501011115620003e357600080fd5b6020830197508096505060408901359150808211156200040257600080fd5b506200041189828a0162000319565b979a9699509497949695606090950135949350505050565b6003811062000461577f4e487b7100000000000000000000000000000000000000000000000000000000600052602160045260246000fd5b9052565b6000604082016040835280855480835260608501915060608160051b86010192508660005260208060002060005b838110156200083d577fffffffffffffffffffffffffffffffffffffffffffffffffffffffffffffffa088870301855260608601825473ffffffffffffffffffffffffffffffffffffffff81168852620004f685890160ff8360a01c1662000429565b506060604088015260018381018054808452600091825260208083209401905b806007840110156200064c57845462000553838260e01b7fffffffff00000000000000000000000000000000000000000000000000000000169052565b7fffffffff0000000000000000000000000000000000000000000000000000000060c082901b81168a85015260a082901b81166040850152608082901b81166060850152620005cb60808501828460601b167fffffffff00000000000000000000000000000000000000000000000000000000169052565b620005ff60a08501828460401b167fffffffff00000000000000000000000000000000000000000000000000000000169052565b7fffffffff00000000000000000000000000000000000000000000000000000000828b1b8216811660c086015291161660e083015293830193600892909201916101009091019062000516565b93549380831015620006905762000687828660e01b7fffffffff00000000000000000000000000000000000000000000000000000000169052565b91830191908701905b80831015620006cb5760c085901b7fffffffff0000000000000000000000000000000000000000000000000000000016825291830191908701905b80831015620007065760a085901b7fffffffff0000000000000000000000000000000000000000000000000000000016825291830191908701905b808310156200074157608085901b7fffffffff0000000000000000000000000000000000000000000000000000000016825291830191908701905b808310156200077c57606085901b7fffffffff0000000000000000000000000000000000000000000000000000000016825291830191908701905b80831015620007b757604085901b7fffffffff0000000000000000000000000000000000000000000000000000000016825291830191908701905b80831015620007f05784881b7fffffffff0000000000000000000000000000000000000000000000000000000016825291830191908701905b8083101562000823577fffffffff0000000000000000000000000000000000000000000000000000000085168252908701905b509850505094830194506002919091019060010162000493565b505083945062000865818701885173ffffffffffffffffffffffffffffffffffffffff169052565b505050509392505050565b818352600060208085019450826000805b86811015620008cf5782357fffffffff000000000000000000000000000000000000000000000000000000008116808214620008bb578384fd5b895250968301969183019160010162000881565b50959695505050505050565b8183528181602085013750600060208284010152600060207fffffffffffffffffffffffffffffffffffffffffffffffffffffffffffffffe0601f840116840101905092915050565b6060808252818101869052600090600560808085019089831b8601018a855b8b81101562000a7d577fffffffffffffffffffffffffffffffffffffffffffffffffffffffffffffff8088840301845281357fffffffffffffffffffffffffffffffffffffffffffffffffffffffffffffffa18e3603018112620009a657600080fd5b8d0173ffffffffffffffffffffffffffffffffffffffff620009c882620002ef565b16845260208082013560038110620009df57600080fd5b620009ed8287018262000429565b506040808301357fffffffffffffffffffffffffffffffffffffffffffffffffffffffffffffffe184360301811262000a2557600080fd5b8301803567ffffffffffffffff81111562000a3f57600080fd5b808a1b360385131562000a5157600080fd5b8a8389015262000a678b89018286850162000870565b9884019897505050930192505060010162000943565b505073ffffffffffffffffffffffffffffffffffffffff89166020870152858103604087015262000ab081888a620008db565b9b9a505050505050505050505056fe60806040526040516200310c3803806200310c833981016040819052620000269162001205565b604080516000808252602082019092526200004e918491620000f560201b620001071760201c565b6200006881600001516200035360201b6200034b1760201c565b60006200007f620003d760201b620004051760201c565b6301ffc9a760e01b600090815260039091016020526040808220805460ff1990811660019081179092556307e4c70760e21b845282842080548216831790556348e2b09360e01b845282842080548216831790556307f5828d60e41b845291909220805490911690911790555062001607915050565b60005b835181101562000304576000848281518110620001195762000119620013af565b6020026020010151602001519050600060028111156200013d576200013d620013c5565b816002811115620001525762000152620013c5565b1415620001b157620001ab858381518110620001725762000172620013af565b602002602001015160000151868481518110620001935762000193620013af565b602002602001015160400151620003ea60201b60201c565b620002ee565b6001816002811115620001c857620001c8620013c5565b14156200022157620001ab858381518110620001e857620001e8620013af565b602002602001015160000151868481518110620002095762000209620013af565b6020026020010151604001516200067460201b60201c565b6002816002811115620002385762000238620013c5565b14156200029157620001ab858381518110620002585762000258620013af565b602002602001015160000151868481518110620002795762000279620013af565b6020026020010151604001516200090a60201b60201c565b60405162461bcd60e51b815260206004820152602760248201527f4c69624469616d6f6e644375743a20496e636f727265637420466163657443756044820152663a20b1ba34b7b760c91b60648201526084015b60405180910390fd5b5080620002fb81620013f1565b915050620000f8565b507f8faa70878671ccd212d20771b795c50af8fd3ff6cf27f4bde57e5d4de0aeb6738383836040516200033a939291906200146c565b60405180910390a16200034e828262000a70565b505050565b7fc8fcad8db84d3cc18b4c41d551ea0ee66dd599cde068d998e57d5e09332c132080546001600160a01b031981166001600160a01b0384811691821790935560405160008051602062003060833981519152939092169182907f8be0079c531659141344cd1fd0a4f28419497f9722a3daafe3b4186f6b6457e090600090a3505050565b6000805160206200306083398151915290565b6000815111620004405760405162461bcd60e51b815260206004820152602b6024820152600080516020620030ec83398151915260448201526a1858d95d081d1bc818dd5d60aa1b6064820152608401620002e5565b600080516020620030608339815191526001600160a01b038316620004ac5760405162461bcd60e51b815260206004820152602c6024820152600080516020620030a883398151915260448201526b65206164647265737328302960a01b6064820152608401620002e5565b6001600160a01b03831660009081526001820160205260409020546001600160601b038116620004e257620004e2828562000c8f565b60005b83518110156200066d576000848281518110620005065762000506620013af565b6020908102919091018101516001600160e01b031981166000908152918690526040909120549091506001600160a01b03168015620005ae5760405162461bcd60e51b815260206004820152603560248201527f4c69624469616d6f6e644375743a2043616e2774206164642066756e6374696f60448201527f6e207468617420616c72656164792065786973747300000000000000000000006064820152608401620002e5565b6001600160e01b0319821660008181526020878152604080832080546001600160a01b03908116600160a01b6001600160601b038c16021782558c168085526001808c0185529285208054938401815585528385206008840401805463ffffffff60079095166004026101000a948502191660e08a901c94909402939093179092559390925287905281546001600160a01b03191617905583620006528162001573565b945050505080806200066490620013f1565b915050620004e5565b5050505050565b6000815111620006ca5760405162461bcd60e51b815260206004820152602b6024820152600080516020620030ec83398151915260448201526a1858d95d081d1bc818dd5d60aa1b6064820152608401620002e5565b600080516020620030608339815191526001600160a01b038316620007365760405162461bcd60e51b815260206004820152602c6024820152600080516020620030a883398151915260448201526b65206164647265737328302960a01b6064820152608401620002e5565b6001600160a01b03831660009081526001820160205260409020546001600160601b0381166200076c576200076c828562000c8f565b60005b83518110156200066d576000848281518110620007905762000790620013af565b6020908102919091018101516001600160e01b031981166000908152918690526040909120549091506001600160a01b039081169087168114156200083e5760405162461bcd60e51b815260206004820152603860248201527f4c69624469616d6f6e644375743a2043616e2774207265706c6163652066756e60448201527f6374696f6e20776974682073616d652066756e6374696f6e00000000000000006064820152608401620002e5565b6200084b85828462000cfc565b6001600160e01b0319821660008181526020878152604080832080546001600160a01b03908116600160a01b6001600160601b038c16021782558c168085526001808c0185529285208054938401815585528385206008840401805463ffffffff60079095166004026101000a948502191660e08a901c94909402939093179092559390925287905281546001600160a01b03191617905583620008ef8162001573565b945050505080806200090190620013f1565b9150506200076f565b6000815111620009605760405162461bcd60e51b815260206004820152602b6024820152600080516020620030ec83398151915260448201526a1858d95d081d1bc818dd5d60aa1b6064820152608401620002e5565b600080516020620030608339815191526001600160a01b03831615620009ef5760405162461bcd60e51b815260206004820152603660248201527f4c69624469616d6f6e644375743a2052656d6f7665206661636574206164647260448201527f657373206d7573742062652061646472657373283029000000000000000000006064820152608401620002e5565b60005b825181101562000a6a57600083828151811062000a135762000a13620013af565b6020908102919091018101516001600160e01b031981166000908152918590526040909120549091506001600160a01b031662000a5284828462000cfc565b5050808062000a6190620013f1565b915050620009f2565b50505050565b6001600160a01b03821662000afa5780511562000af65760405162461bcd60e51b815260206004820152603c60248201527f4c69624469616d6f6e644375743a205f696e697420697320616464726573732860448201527f3029206275745f63616c6c64617461206973206e6f7420656d707479000000006064820152608401620002e5565b5050565b600081511162000b735760405162461bcd60e51b815260206004820152603d60248201527f4c69624469616d6f6e644375743a205f63616c6c6461746120697320656d707460448201527f7920627574205f696e6974206973206e6f7420616464726573732830290000006064820152608401620002e5565b6001600160a01b038216301462000ba95762000ba9826040518060600160405280602881526020016200308060289139620010d9565b600080836001600160a01b03168360405162000bc691906200159d565b600060405180830381855af49150503d806000811462000c03576040519150601f19603f3d011682016040523d82523d6000602084013e62000c08565b606091505b50915091508162000a6a5780511562000c37578060405162461bcd60e51b8152600401620002e59190620015bb565b60405162461bcd60e51b815260206004820152602660248201527f4c69624469616d6f6e644375743a205f696e69742066756e6374696f6e2072656044820152651d995c9d195960d21b6064820152608401620002e5565b62000cb481604051806060016040528060248152602001620030c860249139620010d9565b6002820180546001600160a01b0390921660008181526001948501602090815260408220860185905594840183559182529290200180546001600160a01b0319169091179055565b6001600160a01b03821662000d7a5760405162461bcd60e51b815260206004820152603760248201527f4c69624469616d6f6e644375743a2043616e27742072656d6f76652066756e6360448201527f74696f6e207468617420646f65736e27742065786973740000000000000000006064820152608401620002e5565b6001600160a01b03821630141562000dec5760405162461bcd60e51b815260206004820152602e60248201527f4c69624469616d6f6e644375743a2043616e27742072656d6f766520696d6d7560448201526d3a30b1363290333ab731ba34b7b760911b6064820152608401620002e5565b6001600160e01b03198116600090815260208481526040808320546001600160a01b0386168452600180880190935290832054600160a01b9091046001600160601b0316929162000e3d91620015d7565b905080821462000f36576001600160a01b0384166000908152600186016020526040812080548390811062000e765762000e76620013af565b600091825260208083206008830401546001600160a01b038916845260018a019091526040909220805460079092166004026101000a90920460e01b92508291908590811062000eca5762000eca620013af565b600091825260208083206008830401805463ffffffff60079094166004026101000a938402191660e09590951c929092029390931790556001600160e01b03199290921682528690526040902080546001600160a01b0316600160a01b6001600160601b038516021790555b6001600160a01b0384166000908152600186016020526040902080548062000f625762000f62620015f1565b60008281526020808220600860001990940193840401805463ffffffff600460078716026101000a0219169055919092556001600160e01b0319851682528690526040812055806200066d57600285015460009062000fc490600190620015d7565b6001600160a01b03861660009081526001808901602052604090912001549091508082146200107a576000876002018381548110620010075762001007620013af565b6000918252602090912001546002890180546001600160a01b0390921692508291849081106200103b576200103b620013af565b600091825260208083209190910180546001600160a01b0319166001600160a01b03948516179055929091168152600189810190925260409020018190555b86600201805480620010905762001090620015f1565b60008281526020808220830160001990810180546001600160a01b03191690559092019092556001600160a01b0388168252600189810190915260408220015550505050505050565b813b818162000a6a5760405162461bcd60e51b8152600401620002e59190620015bb565b634e487b7160e01b600052604160045260246000fd5b604051606081016001600160401b0381118282101715620011385762001138620010fd565b60405290565b604051601f8201601f191681016001600160401b0381118282101715620011695762001169620010fd565b604052919050565b60006001600160401b038211156200118d576200118d620010fd565b5060051b60200190565b80516001600160a01b0381168114620011af57600080fd5b919050565b600060208284031215620011c757600080fd5b604051602081016001600160401b0381118282101715620011ec57620011ec620010fd565b604052905080620011fd8362001197565b905292915050565b600080604083850312156200121957600080fd5b82516001600160401b03808211156200123157600080fd5b818501915085601f8301126200124657600080fd5b815160206200125f620012598362001171565b6200113e565b82815260059290921b840181019181810190898411156200127f57600080fd5b8286015b848110156200138f578051868111156200129c57600080fd5b87016060818d03601f19011215620012b357600080fd5b620012bd62001113565b620012ca86830162001197565b8152604082015160038110620012df57600080fd5b81870152606082015188811115620012f657600080fd5b8083019250508c603f8301126200130c57600080fd5b858201516200131f620012598262001171565b81815260059190911b830160400190878101908f8311156200134057600080fd5b6040850194505b82851015620013795784516001600160e01b0319811681146200136957600080fd5b8252938801939088019062001347565b6040840152505084525091830191830162001283565b509650620013a2905088888301620011b4565b9450505050509250929050565b634e487b7160e01b600052603260045260246000fd5b634e487b7160e01b600052602160045260246000fd5b634e487b7160e01b600052601160045260246000fd5b6000600019821415620014085762001408620013db565b5060010190565b60005b838110156200142c57818101518382015260200162001412565b8381111562000a6a5750506000910152565b60008151808452620014588160208601602086016200140f565b601f01601f19169290920160200192915050565b60006060808301818452808751808352608092508286019150828160051b8701016020808b0160005b848110156200154157898403607f19018652815180516001600160a01b03168552838101518986019060038110620014dd57634e487b7160e01b600052602160045260246000fd5b868601526040918201519186018a905281519081905290840190600090898701905b808310156200152b5783516001600160e01b0319168252928601926001929092019190860190620014ff565b5097850197955050509082019060010162001495565b50506001600160a01b038a169088015286810360408801526200156581896200143e565b9a9950505050505050505050565b60006001600160601b0382811680821415620015935762001593620013db565b6001019392505050565b60008251620015b18184602087016200140f565b9190910192915050565b602081526000620015d060208301846200143e565b9392505050565b600082821015620015ec57620015ec620013db565b500390565b634e487b7160e01b600052603160045260246000fd5b611a4980620016176000396000f3fe60806040523661000b57005b600080357fffffffff000000000000000000000000000000000000000000000000000000001681527fc8fcad8db84d3cc18b4c41d551ea0ee66dd599cde068d998e57d5e09332c131c6020819052604090912054819073ffffffffffffffffffffffffffffffffffffffff16806100e3576040517f08c379a000000000000000000000000000000000000000000000000000000000815260206004820181905260248201527f4469616d6f6e643a2046756e6374696f6e20646f6573206e6f7420657869737460448201526064015b60405180910390fd5b3660008037600080366000845af43d6000803e808015610102573d6000f35b3d6000fd5b60005b83518110156103005760008482815181106101275761012761167b565b602002602001015160200151905060006002811115610148576101486116aa565b81600281111561015a5761015a6116aa565b14156101a9576101a48583815181106101755761017561167b565b6020026020010151600001518684815181106101935761019361167b565b602002602001015160400151610429565b6102ed565b60018160028111156101bd576101bd6116aa565b1415610207576101a48583815181106101d8576101d861167b565b6020026020010151600001518684815181106101f6576101f661167b565b6020026020010151604001516107dc565b600281600281111561021b5761021b6116aa565b1415610265576101a48583815181106102365761023661167b565b6020026020010151600001518684815181106102545761025461167b565b602002602001015160400151610b99565b6040517f08c379a000000000000000000000000000000000000000000000000000000000815260206004820152602760248201527f4c69624469616d6f6e644375743a20496e636f7272656374204661636574437560448201527f74416374696f6e0000000000000000000000000000000000000000000000000060648201526084016100da565b50806102f881611708565b91505061010a565b507f8faa70878671ccd212d20771b795c50af8fd3ff6cf27f4bde57e5d4de0aeb673838383604051610334939291906117b7565b60405180910390a16103468282610d8c565b505050565b7fc8fcad8db84d3cc18b4c41d551ea0ee66dd599cde068d998e57d5e09332c132080547fffffffffffffffffffffffff0000000000000000000000000000000000000000811673ffffffffffffffffffffffffffffffffffffffff8481169182179093556040517fc8fcad8db84d3cc18b4c41d551ea0ee66dd599cde068d998e57d5e09332c131c939092169182907f8be0079c531659141344cd1fd0a4f28419497f9722a3daafe3b4186f6b6457e090600090a3505050565b7fc8fcad8db84d3cc18b4c41d551ea0ee66dd599cde068d998e57d5e09332c131c90565b60008151116104ba576040517f08c379a000000000000000000000000000000000000000000000000000000000815260206004820152602b60248201527f4c69624469616d6f6e644375743a204e6f2073656c6563746f727320696e206660448201527f6163657420746f2063757400000000000000000000000000000000000000000060648201526084016100da565b7fc8fcad8db84d3cc18b4c41d551ea0ee66dd599cde068d998e57d5e09332c131c73ffffffffffffffffffffffffffffffffffffffff831661057e576040517f08c379a000000000000000000000000000000000000000000000000000000000815260206004820152602c60248201527f4c69624469616d6f6e644375743a204164642066616365742063616e2774206260448201527f652061646472657373283029000000000000000000000000000000000000000060648201526084016100da565b73ffffffffffffffffffffffffffffffffffffffff831660009081526001820160205260409020546bffffffffffffffffffffffff81166105c3576105c3828561103f565b60005b83518110156107d55760008482815181106105e3576105e361167b565b6020908102919091018101517fffffffff00000000000000000000000000000000000000000000000000000000811660009081529186905260409091205490915073ffffffffffffffffffffffffffffffffffffffff1680156106c8576040517f08c379a000000000000000000000000000000000000000000000000000000000815260206004820152603560248201527f4c69624469616d6f6e644375743a2043616e2774206164642066756e6374696f60448201527f6e207468617420616c726561647920657869737473000000000000000000000060648201526084016100da565b7fffffffff000000000000000000000000000000000000000000000000000000008216600081815260208781526040808320805473ffffffffffffffffffffffffffffffffffffffff908116740100000000000000000000000000000000000000006bffffffffffffffffffffffff8c16021782558c168085526001808c0185529285208054938401815585528385206008840401805463ffffffff60079095166004026101000a948502191660e08a901c94909402939093179092559390925287905281547fffffffffffffffffffffffff000000000000000000000000000000000000000016179055836107bd8161191f565b945050505080806107cd90611708565b9150506105c6565b5050505050565b600081511161086d576040517f08c379a000000000000000000000000000000000000000000000000000000000815260206004820152602b60248201527f4c69624469616d6f6e644375743a204e6f2073656c6563746f727320696e206660448201527f6163657420746f2063757400000000000000000000000000000000000000000060648201526084016100da565b7fc8fcad8db84d3cc18b4c41d551ea0ee66dd599cde068d998e57d5e09332c131c73ffffffffffffffffffffffffffffffffffffffff8316610931576040517f08c379a000000000000000000000000000000000000000000000000000000000815260206004820152602c60248201527f4c69624469616d6f6e644375743a204164642066616365742063616e2774206260448201527f652061646472657373283029000000000000000000000000000000000000000060648201526084016100da565b73ffffffffffffffffffffffffffffffffffffffff831660009081526001820160205260409020546bffffffffffffffffffffffff811661097657610976828561103f565b60005b83518110156107d55760008482815181106109965761099661167b565b6020908102919091018101517fffffffff00000000000000000000000000000000000000000000000000000000811660009081529186905260409091205490915073ffffffffffffffffffffffffffffffffffffffff908116908716811415610a81576040517f08c379a000000000000000000000000000000000000000000000000000000000815260206004820152603860248201527f4c69624469616d6f6e644375743a2043616e2774207265706c6163652066756e60448201527f6374696f6e20776974682073616d652066756e6374696f6e000000000000000060648201526084016100da565b610a8c8582846110ce565b7fffffffff000000000000000000000000000000000000000000000000000000008216600081815260208781526040808320805473ffffffffffffffffffffffffffffffffffffffff908116740100000000000000000000000000000000000000006bffffffffffffffffffffffff8c16021782558c168085526001808c0185529285208054938401815585528385206008840401805463ffffffff60079095166004026101000a948502191660e08a901c94909402939093179092559390925287905281547fffffffffffffffffffffffff00000000000000000000000000000000000000001617905583610b818161191f565b94505050508080610b9190611708565b915050610979565b6000815111610c2a576040517f08c379a000000000000000000000000000000000000000000000000000000000815260206004820152602b60248201527f4c69624469616d6f6e644375743a204e6f2073656c6563746f727320696e206660448201527f6163657420746f2063757400000000000000000000000000000000000000000060648201526084016100da565b7fc8fcad8db84d3cc18b4c41d551ea0ee66dd599cde068d998e57d5e09332c131c73ffffffffffffffffffffffffffffffffffffffff831615610cef576040517f08c379a000000000000000000000000000000000000000000000000000000000815260206004820152603660248201527f4c69624469616d6f6e644375743a2052656d6f7665206661636574206164647260448201527f657373206d75737420626520616464726573732830290000000000000000000060648201526084016100da565b60005b8251811015610d86576000838281518110610d0f57610d0f61167b565b6020908102919091018101517fffffffff00000000000000000000000000000000000000000000000000000000811660009081529185905260409091205490915073ffffffffffffffffffffffffffffffffffffffff16610d718482846110ce565b50508080610d7e90611708565b915050610cf2565b50505050565b73ffffffffffffffffffffffffffffffffffffffff8216610e3a57805115610e36576040517f08c379a000000000000000000000000000000000000000000000000000000000815260206004820152603c60248201527f4c69624469616d6f6e644375743a205f696e697420697320616464726573732860448201527f3029206275745f63616c6c64617461206973206e6f7420656d7074790000000060648201526084016100da565b5050565b6000815111610ecb576040517f08c379a000000000000000000000000000000000000000000000000000000000815260206004820152603d60248201527f4c69624469616d6f6e644375743a205f63616c6c6461746120697320656d707460448201527f7920627574205f696e6974206973206e6f74206164647265737328302900000060648201526084016100da565b73ffffffffffffffffffffffffffffffffffffffff82163014610f0a57610f0a826040518060600160405280602881526020016119c860289139611640565b6000808373ffffffffffffffffffffffffffffffffffffffff1683604051610f32919061194b565b600060405180830381855af49150503d8060008114610f6d576040519150601f19603f3d011682016040523d82523d6000602084013e610f72565b606091505b509150915081610d8657805115610fb757806040517f08c379a00000000000000000000000000000000000000000000000000000000081526004016100da9190611967565b6040517f08c379a000000000000000000000000000000000000000000000000000000000815260206004820152602660248201527f4c69624469616d6f6e644375743a205f696e69742066756e6374696f6e20726560448201527f766572746564000000000000000000000000000000000000000000000000000060648201526084016100da565b611061816040518060600160405280602481526020016119f060249139611640565b60028201805473ffffffffffffffffffffffffffffffffffffffff90921660008181526001948501602090815260408220860185905594840183559182529290200180547fffffffffffffffffffffffff0000000000000000000000000000000000000000169091179055565b73ffffffffffffffffffffffffffffffffffffffff8216611171576040517f08c379a000000000000000000000000000000000000000000000000000000000815260206004820152603760248201527f4c69624469616d6f6e644375743a2043616e27742072656d6f76652066756e6360448201527f74696f6e207468617420646f65736e277420657869737400000000000000000060648201526084016100da565b73ffffffffffffffffffffffffffffffffffffffff8216301415611217576040517f08c379a000000000000000000000000000000000000000000000000000000000815260206004820152602e60248201527f4c69624469616d6f6e644375743a2043616e27742072656d6f766520696d6d7560448201527f7461626c652066756e6374696f6e00000000000000000000000000000000000060648201526084016100da565b7fffffffff0000000000000000000000000000000000000000000000000000000081166000908152602084815260408083205473ffffffffffffffffffffffffffffffffffffffff86168452600180880190935290832054740100000000000000000000000000000000000000009091046bffffffffffffffffffffffff1692916112a191611981565b90508082146113e85773ffffffffffffffffffffffffffffffffffffffff8416600090815260018601602052604081208054839081106112e3576112e361167b565b6000918252602080832060088304015473ffffffffffffffffffffffffffffffffffffffff8916845260018a019091526040909220805460079092166004026101000a90920460e01b9250829190859081106113415761134161167b565b600091825260208083206008830401805463ffffffff60079094166004026101000a938402191660e09590951c929092029390931790557fffffffff0000000000000000000000000000000000000000000000000000000092909216825286905260409020805473ffffffffffffffffffffffffffffffffffffffff16740100000000000000000000000000000000000000006bffffffffffffffffffffffff8516021790555b73ffffffffffffffffffffffffffffffffffffffff84166000908152600186016020526040902080548061141e5761141e611998565b6000828152602080822060087fffffffffffffffffffffffffffffffffffffffffffffffffffffffffffffffff90940193840401805463ffffffff600460078716026101000a0219169055919092557fffffffff00000000000000000000000000000000000000000000000000000000851682528690526040812055806107d55760028501546000906114b390600190611981565b73ffffffffffffffffffffffffffffffffffffffff861660009081526001808901602052604090912001549091508082146115a15760008760020183815481106114ff576114ff61167b565b60009182526020909120015460028901805473ffffffffffffffffffffffffffffffffffffffff909216925082918490811061153d5761153d61167b565b600091825260208083209190910180547fffffffffffffffffffffffff00000000000000000000000000000000000000001673ffffffffffffffffffffffffffffffffffffffff948516179055929091168152600189810190925260409020018190555b866002018054806115b4576115b4611998565b6000828152602080822083017fffffffffffffffffffffffffffffffffffffffffffffffffffffffffffffffff90810180547fffffffffffffffffffffffff000000000000000000000000000000000000000016905590920190925573ffffffffffffffffffffffffffffffffffffffff88168252600189810190915260408220015550505050505050565b813b8181610d86576040517f08c379a00000000000000000000000000000000000000000000000000000000081526004016100da9190611967565b7f4e487b7100000000000000000000000000000000000000000000000000000000600052603260045260246000fd5b7f4e487b7100000000000000000000000000000000000000000000000000000000600052602160045260246000fd5b7f4e487b7100000000000000000000000000000000000000000000000000000000600052601160045260246000fd5b60007fffffffffffffffffffffffffffffffffffffffffffffffffffffffffffffffff82141561173a5761173a6116d9565b5060010190565b60005b8381101561175c578181015183820152602001611744565b83811115610d865750506000910152565b60008151808452611785816020860160208601611741565b601f017fffffffffffffffffffffffffffffffffffffffffffffffffffffffffffffffe0169290920160200192915050565b60006060808301818452808751808352608092508286019150828160051b8701016020808b0160005b848110156118e2577fffffffffffffffffffffffffffffffffffffffffffffffffffffffffffffff808a8503018652815188850173ffffffffffffffffffffffffffffffffffffffff82511686528482015160038110611869577f4e487b7100000000000000000000000000000000000000000000000000000000600052602160045260246000fd5b868601526040918201519186018a905281519081905290840190600090898701905b808310156118cd5783517fffffffff0000000000000000000000000000000000000000000000000000000016825292860192600192909201919086019061188b565b509785019795505050908201906001016117e0565b505073ffffffffffffffffffffffffffffffffffffffff8a16908801528681036040880152611911818961176d565b9a9950505050505050505050565b60006bffffffffffffffffffffffff80831681811415611941576119416116d9565b6001019392505050565b6000825161195d818460208701611741565b9190910192915050565b60208152600061197a602083018461176d565b9392505050565b600082821015611993576119936116d9565b500390565b7f4e487b7100000000000000000000000000000000000000000000000000000000600052603160045260246000fdfe4c69624469616d6f6e644375743a205f696e6974206164647265737320686173206e6f20636f64654c69624469616d6f6e644375743a204e657720666163657420686173206e6f20636f6465a2646970667358221220a164f5c0a5fb38836f80db7c0d13ba057b758bb3bdf1d37d32f097ad8988276c64736f6c63430008090033c8fcad8db84d3cc18b4c41d551ea0ee66dd599cde068d998e57d5e09332c131c4c69624469616d6f6e644375743a205f696e6974206164647265737320686173206e6f20636f64654c69624469616d6f6e644375743a204164642066616365742063616e277420624c69624469616d6f6e644375743a204e657720666163657420686173206e6f20636f64654c69624469616d6f6e644375743a204e6f2073656c6563746f727320696e2066a2646970667358221220d168b12deb9403843a83843cbf35570fba2e43d61cc75bf1c18eccc4e38ded5b64736f6c63430008090033608060405234801561001057600080fd5b50611d16806100206000396000f3fe608060405234801561001057600080fd5b506004361061002b5760003560e01c80631f931c1c14610030575b600080fd5b61004361003e36600461166f565b610045565b005b61004d61009e565b61009761005a85876117ec565b8484848080601f01602080910402602001604051908101604052809392919081815260200183838082843760009201919091525061016e92505050565b5050505050565b7fc8fcad8db84d3cc18b4c41d551ea0ee66dd599cde068d998e57d5e09332c131c6004015473ffffffffffffffffffffffffffffffffffffffff16331461016c576040517f08c379a000000000000000000000000000000000000000000000000000000000815260206004820152602260248201527f4c69624469616d6f6e643a204d75737420626520636f6e7472616374206f776e60448201527f657200000000000000000000000000000000000000000000000000000000000060648201526084015b60405180910390fd5b565b60005b835181101561036757600084828151811061018e5761018e611948565b6020026020010151602001519050600060028111156101af576101af611977565b8160028111156101c1576101c1611977565b14156102105761020b8583815181106101dc576101dc611948565b6020026020010151600001518684815181106101fa576101fa611948565b6020026020010151604001516103b2565b610354565b600181600281111561022457610224611977565b141561026e5761020b85838151811061023f5761023f611948565b60200260200101516000015186848151811061025d5761025d611948565b60200260200101516040015161075e565b600281600281111561028257610282611977565b14156102cc5761020b85838151811061029d5761029d611948565b6020026020010151600001518684815181106102bb576102bb611948565b602002602001015160400151610b1b565b6040517f08c379a000000000000000000000000000000000000000000000000000000000815260206004820152602760248201527f4c69624469616d6f6e644375743a20496e636f7272656374204661636574437560448201527f74416374696f6e000000000000000000000000000000000000000000000000006064820152608401610163565b508061035f816119d5565b915050610171565b507f8faa70878671ccd212d20771b795c50af8fd3ff6cf27f4bde57e5d4de0aeb67383838360405161039b93929190611a84565b60405180910390a16103ad8282610d0e565b505050565b6000815111610443576040517f08c379a000000000000000000000000000000000000000000000000000000000815260206004820152602b60248201527f4c69624469616d6f6e644375743a204e6f2073656c6563746f727320696e206660448201527f6163657420746f206375740000000000000000000000000000000000000000006064820152608401610163565b7fc8fcad8db84d3cc18b4c41d551ea0ee66dd599cde068d998e57d5e09332c131c73ffffffffffffffffffffffffffffffffffffffff8316610507576040517f08c379a000000000000000000000000000000000000000000000000000000000815260206004820152602c60248201527f4c69624469616d6f6e644375743a204164642066616365742063616e2774206260448201527f65206164647265737328302900000000000000000000000000000000000000006064820152608401610163565b73ffffffffffffffffffffffffffffffffffffffff831660009081526001820160205260409020546bffffffffffffffffffffffff811661054c5761054c8285610fc1565b60005b835181101561009757600084828151811061056c5761056c611948565b6020908102919091018101517fffffffff00000000000000000000000000000000000000000000000000000000811660009081529186905260409091205490915073ffffffffffffffffffffffffffffffffffffffff168015610651576040517f08c379a000000000000000000000000000000000000000000000000000000000815260206004820152603560248201527f4c69624469616d6f6e644375743a2043616e2774206164642066756e6374696f60448201527f6e207468617420616c72656164792065786973747300000000000000000000006064820152608401610163565b7fffffffff000000000000000000000000000000000000000000000000000000008216600081815260208781526040808320805473ffffffffffffffffffffffffffffffffffffffff908116740100000000000000000000000000000000000000006bffffffffffffffffffffffff8c16021782558c168085526001808c0185529285208054938401815585528385206008840401805463ffffffff60079095166004026101000a948502191660e08a901c94909402939093179092559390925287905281547fffffffffffffffffffffffff0000000000000000000000000000000000000000161790558361074681611bec565b94505050508080610756906119d5565b91505061054f565b60008151116107ef576040517f08c379a000000000000000000000000000000000000000000000000000000000815260206004820152602b60248201527f4c69624469616d6f6e644375743a204e6f2073656c6563746f727320696e206660448201527f6163657420746f206375740000000000000000000000000000000000000000006064820152608401610163565b7fc8fcad8db84d3cc18b4c41d551ea0ee66dd599cde068d998e57d5e09332c131c73ffffffffffffffffffffffffffffffffffffffff83166108b3576040517f08c379a000000000000000000000000000000000000000000000000000000000815260206004820152602c60248201527f4c69624469616d6f6e644375743a204164642066616365742063616e2774206260448201527f65206164647265737328302900000000000000000000000000000000000000006064820152608401610163565b73ffffffffffffffffffffffffffffffffffffffff831660009081526001820160205260409020546bffffffffffffffffffffffff81166108f8576108f88285610fc1565b60005b835181101561009757600084828151811061091857610918611948565b6020908102919091018101517fffffffff00000000000000000000000000000000000000000000000000000000811660009081529186905260409091205490915073ffffffffffffffffffffffffffffffffffffffff908116908716811415610a03576040517f08c379a000000000000000000000000000000000000000000000000000000000815260206004820152603860248201527f4c69624469616d6f6e644375743a2043616e2774207265706c6163652066756e60448201527f6374696f6e20776974682073616d652066756e6374696f6e00000000000000006064820152608401610163565b610a0e858284611050565b7fffffffff000000000000000000000000000000000000000000000000000000008216600081815260208781526040808320805473ffffffffffffffffffffffffffffffffffffffff908116740100000000000000000000000000000000000000006bffffffffffffffffffffffff8c16021782558c168085526001808c0185529285208054938401815585528385206008840401805463ffffffff60079095166004026101000a948502191660e08a901c94909402939093179092559390925287905281547fffffffffffffffffffffffff00000000000000000000000000000000000000001617905583610b0381611bec565b94505050508080610b13906119d5565b9150506108fb565b6000815111610bac576040517f08c379a000000000000000000000000000000000000000000000000000000000815260206004820152602b60248201527f4c69624469616d6f6e644375743a204e6f2073656c6563746f727320696e206660448201527f6163657420746f206375740000000000000000000000000000000000000000006064820152608401610163565b7fc8fcad8db84d3cc18b4c41d551ea0ee66dd599cde068d998e57d5e09332c131c73ffffffffffffffffffffffffffffffffffffffff831615610c71576040517f08c379a000000000000000000000000000000000000000000000000000000000815260206004820152603660248201527f4c69624469616d6f6e644375743a2052656d6f7665206661636574206164647260448201527f657373206d7573742062652061646472657373283029000000000000000000006064820152608401610163565b60005b8251811015610d08576000838281518110610c9157610c91611948565b6020908102919091018101517fffffffff00000000000000000000000000000000000000000000000000000000811660009081529185905260409091205490915073ffffffffffffffffffffffffffffffffffffffff16610cf3848284611050565b50508080610d00906119d5565b915050610c74565b50505050565b73ffffffffffffffffffffffffffffffffffffffff8216610dbc57805115610db8576040517f08c379a000000000000000000000000000000000000000000000000000000000815260206004820152603c60248201527f4c69624469616d6f6e644375743a205f696e697420697320616464726573732860448201527f3029206275745f63616c6c64617461206973206e6f7420656d707479000000006064820152608401610163565b5050565b6000815111610e4d576040517f08c379a000000000000000000000000000000000000000000000000000000000815260206004820152603d60248201527f4c69624469616d6f6e644375743a205f63616c6c6461746120697320656d707460448201527f7920627574205f696e6974206973206e6f7420616464726573732830290000006064820152608401610163565b73ffffffffffffffffffffffffffffffffffffffff82163014610e8c57610e8c82604051806060016040528060288152602001611c95602891396115c2565b6000808373ffffffffffffffffffffffffffffffffffffffff1683604051610eb49190611c18565b600060405180830381855af49150503d8060008114610eef576040519150601f19603f3d011682016040523d82523d6000602084013e610ef4565b606091505b509150915081610d0857805115610f3957806040517f08c379a00000000000000000000000000000000000000000000000000000000081526004016101639190611c34565b6040517f08c379a000000000000000000000000000000000000000000000000000000000815260206004820152602660248201527f4c69624469616d6f6e644375743a205f696e69742066756e6374696f6e20726560448201527f76657274656400000000000000000000000000000000000000000000000000006064820152608401610163565b610fe381604051806060016040528060248152602001611cbd602491396115c2565b60028201805473ffffffffffffffffffffffffffffffffffffffff90921660008181526001948501602090815260408220860185905594840183559182529290200180547fffffffffffffffffffffffff0000000000000000000000000000000000000000169091179055565b73ffffffffffffffffffffffffffffffffffffffff82166110f3576040517f08c379a000000000000000000000000000000000000000000000000000000000815260206004820152603760248201527f4c69624469616d6f6e644375743a2043616e27742072656d6f76652066756e6360448201527f74696f6e207468617420646f65736e27742065786973740000000000000000006064820152608401610163565b73ffffffffffffffffffffffffffffffffffffffff8216301415611199576040517f08c379a000000000000000000000000000000000000000000000000000000000815260206004820152602e60248201527f4c69624469616d6f6e644375743a2043616e27742072656d6f766520696d6d7560448201527f7461626c652066756e6374696f6e0000000000000000000000000000000000006064820152608401610163565b7fffffffff0000000000000000000000000000000000000000000000000000000081166000908152602084815260408083205473ffffffffffffffffffffffffffffffffffffffff86168452600180880190935290832054740100000000000000000000000000000000000000009091046bffffffffffffffffffffffff16929161122391611c4e565b905080821461136a5773ffffffffffffffffffffffffffffffffffffffff84166000908152600186016020526040812080548390811061126557611265611948565b6000918252602080832060088304015473ffffffffffffffffffffffffffffffffffffffff8916845260018a019091526040909220805460079092166004026101000a90920460e01b9250829190859081106112c3576112c3611948565b600091825260208083206008830401805463ffffffff60079094166004026101000a938402191660e09590951c929092029390931790557fffffffff0000000000000000000000000000000000000000000000000000000092909216825286905260409020805473ffffffffffffffffffffffffffffffffffffffff16740100000000000000000000000000000000000000006bffffffffffffffffffffffff8516021790555b73ffffffffffffffffffffffffffffffffffffffff8416600090815260018601602052604090208054806113a0576113a0611c65565b6000828152602080822060087fffffffffffffffffffffffffffffffffffffffffffffffffffffffffffffffff90940193840401805463ffffffff600460078716026101000a0219169055919092557fffffffff000000000000000000000000000000000000000000000000000000008516825286905260408120558061009757600285015460009061143590600190611c4e565b73ffffffffffffffffffffffffffffffffffffffff8616600090815260018089016020526040909120015490915080821461152357600087600201838154811061148157611481611948565b60009182526020909120015460028901805473ffffffffffffffffffffffffffffffffffffffff90921692508291849081106114bf576114bf611948565b600091825260208083209190910180547fffffffffffffffffffffffff00000000000000000000000000000000000000001673ffffffffffffffffffffffffffffffffffffffff948516179055929091168152600189810190925260409020018190555b8660020180548061153657611536611c65565b6000828152602080822083017fffffffffffffffffffffffffffffffffffffffffffffffffffffffffffffffff90810180547fffffffffffffffffffffffff000000000000000000000000000000000000000016905590920190925573ffffffffffffffffffffffffffffffffffffffff88168252600189810190915260408220015550505050505050565b813b8181610d08576040517f08c379a00000000000000000000000000000000000000000000000000000000081526004016101639190611c34565b803573ffffffffffffffffffffffffffffffffffffffff8116811461162157600080fd5b919050565b60008083601f84011261163857600080fd5b50813567ffffffffffffffff81111561165057600080fd5b60208301915083602082850101111561166857600080fd5b9250929050565b60008060008060006060868803121561168757600080fd5b853567ffffffffffffffff8082111561169f57600080fd5b818801915088601f8301126116b357600080fd5b8135818111156116c257600080fd5b8960208260051b85010111156116d757600080fd5b602083019750809650506116ed602089016115fd565b9450604088013591508082111561170357600080fd5b5061171088828901611626565b969995985093965092949392505050565b7f4e487b7100000000000000000000000000000000000000000000000000000000600052604160045260246000fd5b6040516060810167ffffffffffffffff8111828210171561177357611773611721565b60405290565b604051601f82017fffffffffffffffffffffffffffffffffffffffffffffffffffffffffffffffe016810167ffffffffffffffff811182821017156117c0576117c0611721565b604052919050565b600067ffffffffffffffff8211156117e2576117e2611721565b5060051b60200190565b60006117ff6117fa846117c8565b611779565b83815260208082019190600586811b86013681111561181d57600080fd5b865b8181101561193b57803567ffffffffffffffff808211156118405760008081fd5b818a019150606082360312156118565760008081fd5b61185e611750565b611867836115fd565b8152868301356003811061187b5760008081fd5b81880152604083810135838111156118935760008081fd5b939093019236601f8501126118aa57600092508283fd5b833592506118ba6117fa846117c8565b83815292871b840188019288810190368511156118d75760008081fd5b948901945b848610156119245785357fffffffff00000000000000000000000000000000000000000000000000000000811681146119155760008081fd5b825294890194908901906118dc565b91830191909152508852505094830194830161181f565b5092979650505050505050565b7f4e487b7100000000000000000000000000000000000000000000000000000000600052603260045260246000fd5b7f4e487b7100000000000000000000000000000000000000000000000000000000600052602160045260246000fd5b7f4e487b7100000000000000000000000000000000000000000000000000000000600052601160045260246000fd5b60007fffffffffffffffffffffffffffffffffffffffffffffffffffffffffffffffff821415611a0757611a076119a6565b5060010190565b60005b83811015611a29578181015183820152602001611a11565b83811115610d085750506000910152565b60008151808452611a52816020860160208601611a0e565b601f017fffffffffffffffffffffffffffffffffffffffffffffffffffffffffffffffe0169290920160200192915050565b60006060808301818452808751808352608092508286019150828160051b8701016020808b0160005b84811015611baf577fffffffffffffffffffffffffffffffffffffffffffffffffffffffffffffff808a8503018652815188850173ffffffffffffffffffffffffffffffffffffffff82511686528482015160038110611b36577f4e487b7100000000000000000000000000000000000000000000000000000000600052602160045260246000fd5b868601526040918201519186018a905281519081905290840190600090898701905b80831015611b9a5783517fffffffff00000000000000000000000000000000000000000000000000000000168252928601926001929092019190860190611b58565b50978501979550505090820190600101611aad565b505073ffffffffffffffffffffffffffffffffffffffff8a16908801528681036040880152611bde8189611a3a565b9a9950505050505050505050565b60006bffffffffffffffffffffffff80831681811415611c0e57611c0e6119a6565b6001019392505050565b60008251611c2a818460208701611a0e565b9190910192915050565b602081526000611c476020830184611a3a565b9392505050565b600082821015611c6057611c606119a6565b500390565b7f4e487b7100000000000000000000000000000000000000000000000000000000600052603160045260246000fdfe4c69624469616d6f6e644375743a205f696e6974206164647265737320686173206e6f20636f64654c69624469616d6f6e644375743a204e657720666163657420686173206e6f20636f6465a2646970667358221220e81a298b706af5e6f506858188273bb2ce25676985300bfa08ae6101051ec9bf64736f6c63430008090033608060405234801561001057600080fd5b5061084e806100206000396000f3fe608060405234801561001057600080fd5b50600436106100675760003560e01c80637a0ed627116100505780637a0ed627146100fa578063adfca15e1461010f578063cdffacc61461012f57600080fd5b806301ffc9a71461006c57806352ef6b2c146100e5575b600080fd5b6100d061007a366004610569565b7fffffffff000000000000000000000000000000000000000000000000000000001660009081527fc8fcad8db84d3cc18b4c41d551ea0ee66dd599cde068d998e57d5e09332c131f602052604090205460ff1690565b60405190151581526020015b60405180910390f35b6100ed6101cb565b6040516100dc91906105b2565b61010261025d565b6040516100dc9190610669565b61012261011d366004610711565b610469565b6040516100dc9190610747565b6101a661013d366004610569565b7fffffffff000000000000000000000000000000000000000000000000000000001660009081527fc8fcad8db84d3cc18b4c41d551ea0ee66dd599cde068d998e57d5e09332c131c602052604090205473ffffffffffffffffffffffffffffffffffffffff1690565b60405173ffffffffffffffffffffffffffffffffffffffff90911681526020016100dc565b606060007fc8fcad8db84d3cc18b4c41d551ea0ee66dd599cde068d998e57d5e09332c131c6002810180546040805160208084028201810190925282815293945083018282801561025257602002820191906000526020600020905b815473ffffffffffffffffffffffffffffffffffffffff168152600190910190602001808311610227575b505050505091505090565b7fc8fcad8db84d3cc18b4c41d551ea0ee66dd599cde068d998e57d5e09332c131e546060907fc8fcad8db84d3cc18b4c41d551ea0ee66dd599cde068d998e57d5e09332c131c908067ffffffffffffffff8111156102bd576102bd61075a565b60405190808252806020026020018201604052801561030357816020015b6040805180820190915260008152606060208201528152602001906001900390816102db5790505b50925060005b8181101561046357600083600201828154811061032857610328610789565b9060005260206000200160009054906101000a900473ffffffffffffffffffffffffffffffffffffffff1690508085838151811061036857610368610789565b60209081029190910181015173ffffffffffffffffffffffffffffffffffffffff928316905290821660009081526001860182526040908190208054825181850281018501909352808352919290919083018282801561042957602002820191906000526020600020906000905b82829054906101000a900460e01b7bffffffffffffffffffffffffffffffffffffffffffffffffffffffff1916815260200190600401906020826003010492830192600103820291508084116103d65790505b505050505085838151811061044057610440610789565b60200260200101516020018190525050808061045b906107b8565b915050610309565b50505090565b73ffffffffffffffffffffffffffffffffffffffff811660009081527fc8fcad8db84d3cc18b4c41d551ea0ee66dd599cde068d998e57d5e09332c131d602090815260409182902080548351818402810184019094528084526060937fc8fcad8db84d3cc18b4c41d551ea0ee66dd599cde068d998e57d5e09332c131c939092919083018282801561055c57602002820191906000526020600020906000905b82829054906101000a900460e01b7bffffffffffffffffffffffffffffffffffffffffffffffffffffffff1916815260200190600401906020826003010492830192600103820291508084116105095790505b5050505050915050919050565b60006020828403121561057b57600080fd5b81357fffffffff00000000000000000000000000000000000000000000000000000000811681146105ab57600080fd5b9392505050565b6020808252825182820181905260009190848201906040850190845b8181101561060057835173ffffffffffffffffffffffffffffffffffffffff16835292840192918401916001016105ce565b50909695505050505050565b600081518084526020808501945080840160005b8381101561065e5781517fffffffff000000000000000000000000000000000000000000000000000000001687529582019590820190600101610620565b509495945050505050565b60006020808301818452808551808352604092508286019150828160051b87010184880160005b83811015610703578883037fffffffffffffffffffffffffffffffffffffffffffffffffffffffffffffffc00185528151805173ffffffffffffffffffffffffffffffffffffffff1684528701518784018790526106f08785018261060c565b9588019593505090860190600101610690565b509098975050505050505050565b60006020828403121561072357600080fd5b813573ffffffffffffffffffffffffffffffffffffffff811681146105ab57600080fd5b6020815260006105ab602083018461060c565b7f4e487b7100000000000000000000000000000000000000000000000000000000600052604160045260246000fd5b7f4e487b7100000000000000000000000000000000000000000000000000000000600052603260045260246000fd5b60007fffffffffffffffffffffffffffffffffffffffffffffffffffffffffffffffff821415610811577f4e487b7100000000000000000000000000000000000000000000000000000000600052601160045260246000fd5b506001019056fea26469706673582212200c5b177de2aed4874ebd4bc1dd3a8af2d25547fdd59ba0c61e502f7a15c95e1a64736f6c63430008090033608060405234801561001057600080fd5b506102d6806100206000396000f3fe608060405234801561001057600080fd5b50600436106100365760003560e01c80638da5cb5b1461003b578063f2fde38b1461006c575b600080fd5b610043610081565b60405173ffffffffffffffffffffffffffffffffffffffff909116815260200160405180910390f35b61007f61007a366004610263565b6100c6565b005b60006100c17fc8fcad8db84d3cc18b4c41d551ea0ee66dd599cde068d998e57d5e09332c13205473ffffffffffffffffffffffffffffffffffffffff1690565b905090565b6100ce6100da565b6100d7816101a9565b50565b7fc8fcad8db84d3cc18b4c41d551ea0ee66dd599cde068d998e57d5e09332c131c6004015473ffffffffffffffffffffffffffffffffffffffff1633146101a7576040517f08c379a000000000000000000000000000000000000000000000000000000000815260206004820152602260248201527f4c69624469616d6f6e643a204d75737420626520636f6e7472616374206f776e60448201527f6572000000000000000000000000000000000000000000000000000000000000606482015260840160405180910390fd5b565b7fc8fcad8db84d3cc18b4c41d551ea0ee66dd599cde068d998e57d5e09332c132080547fffffffffffffffffffffffff0000000000000000000000000000000000000000811673ffffffffffffffffffffffffffffffffffffffff8481169182179093556040517fc8fcad8db84d3cc18b4c41d551ea0ee66dd599cde068d998e57d5e09332c131c939092169182907f8be0079c531659141344cd1fd0a4f28419497f9722a3daafe3b4186f6b6457e090600090a3505050565b60006020828403121561027557600080fd5b813573ffffffffffffffffffffffffffffffffffffffff8116811461029957600080fd5b939250505056fea2646970667358221220afe54a74df56254d54c0c99e01edfbc48ce57bd7975a687bcd11cf46bd6ef5ae64736f6c63430008090033290decd9548b62a8d60345a988386fc84ba6bc95484008f6362f93160ef3e563",
  "linkReferences": {},
  "deployedLinkReferences": {},
  "devdoc": {
    "kind": "dev",
    "methods": {},
    "version": 1
  },
  "evm": {
    "bytecode": {
      "linkReferences": {},
      "opcodes": "PUSH1 0x80 PUSH1 0x40 MSTORE CALLVALUE DUP1 ISZERO PUSH3 0x11 JUMPI PUSH1 0x0 DUP1 REVERT JUMPDEST POP PUSH1 0x60 PUSH1 0x0 PUSH1 0x40 MLOAD PUSH3 0x24 SWAP1 PUSH3 0x4EA JUMP JUMPDEST PUSH1 0x40 MLOAD DUP1 SWAP2 SUB SWAP1 PUSH1 0x0 CREATE DUP1 ISZERO DUP1 ISZERO PUSH3 0x41 JUMPI RETURNDATASIZE PUSH1 0x0 DUP1 RETURNDATACOPY RETURNDATASIZE PUSH1 0x0 REVERT JUMPDEST POP PUSH1 0x40 DUP1 MLOAD PUSH1 0x1 DUP1 DUP3 MSTORE DUP2 DUP4 ADD SWAP1 SWAP3 MSTORE SWAP2 SWAP3 POP PUSH1 0x20 DUP1 DUP4 ADD SWAP1 DUP1 CALLDATASIZE DUP4 CALLDATACOPY ADD SWAP1 POP POP SWAP2 POP PUSH4 0x1F931C1C PUSH1 0xE0 SHL DUP3 PUSH1 0x0 DUP2 MLOAD DUP2 LT PUSH3 0x82 JUMPI PUSH3 0x82 PUSH3 0x5DE JUMP JUMPDEST PUSH1 0x1 PUSH1 0x1 PUSH1 0xE0 SHL SUB NOT SWAP3 SWAP1 SWAP3 AND PUSH1 0x20 SWAP3 DUP4 MUL SWAP2 SWAP1 SWAP2 ADD DUP3 ADD MSTORE PUSH1 0x40 DUP1 MLOAD PUSH1 0x60 DUP2 ADD DUP3 MSTORE PUSH1 0x1 PUSH1 0x1 PUSH1 0xA0 SHL SUB DUP5 DUP2 AND DUP3 MSTORE PUSH1 0x0 SWAP4 DUP3 ADD DUP5 DUP2 MSTORE SWAP3 DUP3 ADD DUP7 SWAP1 MSTORE DUP4 SLOAD PUSH1 0x1 DUP2 ADD DUP6 SSTORE SWAP4 DUP1 MSTORE DUP2 MLOAD PUSH1 0x2 SWAP5 DUP6 MUL PUSH1 0x0 DUP1 MLOAD PUSH1 0x20 PUSH3 0x6AB5 DUP4 CODECOPY DUP2 MLOAD SWAP2 MSTORE ADD DUP1 SLOAD PUSH1 0x1 PUSH1 0x1 PUSH1 0xA0 SHL SUB NOT DUP2 AND SWAP3 SWAP1 SWAP4 AND SWAP2 DUP3 OR DUP2 SSTORE SWAP4 MLOAD SWAP3 SWAP5 DUP5 SWAP3 PUSH1 0x1 PUSH1 0x1 PUSH1 0xA8 SHL SUB NOT AND SWAP1 SWAP2 OR SWAP1 PUSH1 0x1 PUSH1 0xA0 SHL SWAP1 DUP5 SWAP1 DUP2 GT ISZERO PUSH3 0x127 JUMPI PUSH3 0x127 PUSH3 0x5F4 JUMP JUMPDEST MUL OR SWAP1 SSTORE POP PUSH1 0x40 DUP3 ADD MLOAD DUP1 MLOAD PUSH3 0x149 SWAP2 PUSH1 0x1 DUP5 ADD SWAP2 PUSH1 0x20 SWAP1 SWAP2 ADD SWAP1 PUSH3 0x4F8 JUMP JUMPDEST POP POP POP PUSH1 0x0 PUSH1 0x40 MLOAD PUSH3 0x15C SWAP1 PUSH3 0x5AB JUMP JUMPDEST PUSH1 0x40 MLOAD DUP1 SWAP2 SUB SWAP1 PUSH1 0x0 CREATE DUP1 ISZERO DUP1 ISZERO PUSH3 0x179 JUMPI RETURNDATASIZE PUSH1 0x0 DUP1 RETURNDATACOPY RETURNDATASIZE PUSH1 0x0 REVERT JUMPDEST POP PUSH1 0x40 DUP1 MLOAD PUSH1 0x5 DUP1 DUP3 MSTORE PUSH1 0xC0 DUP3 ADD SWAP1 SWAP3 MSTORE SWAP2 SWAP3 POP PUSH1 0x20 DUP3 ADD PUSH1 0xA0 DUP1 CALLDATASIZE DUP4 CALLDATACOPY ADD SWAP1 POP POP SWAP3 POP PUSH4 0xADFCA15E PUSH1 0xE0 SHL DUP4 PUSH1 0x0 DUP2 MLOAD DUP2 LT PUSH3 0x1BB JUMPI PUSH3 0x1BB PUSH3 0x5DE JUMP JUMPDEST PUSH1 0x1 PUSH1 0x1 PUSH1 0xE0 SHL SUB NOT SWAP1 SWAP3 AND PUSH1 0x20 SWAP3 DUP4 MUL SWAP2 SWAP1 SWAP2 ADD SWAP1 SWAP2 ADD MSTORE DUP3 MLOAD PUSH4 0x7A0ED627 PUSH1 0xE0 SHL SWAP1 DUP5 SWAP1 PUSH1 0x1 SWAP1 DUP2 LT PUSH3 0x1F5 JUMPI PUSH3 0x1F5 PUSH3 0x5DE JUMP JUMPDEST PUSH1 0x1 PUSH1 0x1 PUSH1 0xE0 SHL SUB NOT SWAP1 SWAP3 AND PUSH1 0x20 SWAP3 DUP4 MUL SWAP2 SWAP1 SWAP2 ADD SWAP1 SWAP2 ADD MSTORE DUP3 MLOAD PUSH4 0x66FFD663 PUSH1 0xE1 SHL SWAP1 DUP5 SWAP1 PUSH1 0x2 SWAP1 DUP2 LT PUSH3 0x22F JUMPI PUSH3 0x22F PUSH3 0x5DE JUMP JUMPDEST PUSH1 0x1 PUSH1 0x1 PUSH1 0xE0 SHL SUB NOT SWAP1 SWAP3 AND PUSH1 0x20 SWAP3 DUP4 MUL SWAP2 SWAP1 SWAP2 ADD SWAP1 SWAP2 ADD MSTORE DUP3 MLOAD PUSH4 0x14BBDACB PUSH1 0xE2 SHL SWAP1 DUP5 SWAP1 PUSH1 0x3 SWAP1 DUP2 LT PUSH3 0x269 JUMPI PUSH3 0x269 PUSH3 0x5DE JUMP JUMPDEST PUSH1 0x1 PUSH1 0x1 PUSH1 0xE0 SHL SUB NOT SWAP1 SWAP3 AND PUSH1 0x20 SWAP3 DUP4 MUL SWAP2 SWAP1 SWAP2 ADD SWAP1 SWAP2 ADD MSTORE DUP3 MLOAD PUSH4 0x1FFC9A7 PUSH1 0xE0 SHL SWAP1 DUP5 SWAP1 PUSH1 0x4 SWAP1 DUP2 LT PUSH3 0x2A3 JUMPI PUSH3 0x2A3 PUSH3 0x5DE JUMP JUMPDEST PUSH1 0x1 PUSH1 0x1 PUSH1 0xE0 SHL SUB NOT SWAP3 SWAP1 SWAP3 AND PUSH1 0x20 SWAP3 DUP4 MUL SWAP2 SWAP1 SWAP2 ADD DUP3 ADD MSTORE PUSH1 0x40 DUP1 MLOAD PUSH1 0x60 DUP2 ADD DUP3 MSTORE PUSH1 0x1 PUSH1 0x1 PUSH1 0xA0 SHL SUB DUP5 DUP2 AND DUP3 MSTORE PUSH1 0x0 SWAP4 DUP3 ADD DUP5 DUP2 MSTORE SWAP3 DUP3 ADD DUP8 SWAP1 MSTORE DUP4 SLOAD PUSH1 0x1 DUP2 ADD DUP6 SSTORE SWAP4 DUP1 MSTORE DUP2 MLOAD PUSH1 0x2 SWAP5 DUP6 MUL PUSH1 0x0 DUP1 MLOAD PUSH1 0x20 PUSH3 0x6AB5 DUP4 CODECOPY DUP2 MLOAD SWAP2 MSTORE ADD DUP1 SLOAD PUSH1 0x1 PUSH1 0x1 PUSH1 0xA0 SHL SUB NOT DUP2 AND SWAP3 SWAP1 SWAP4 AND SWAP2 DUP3 OR DUP2 SSTORE SWAP4 MLOAD SWAP3 SWAP5 DUP5 SWAP3 PUSH1 0x1 PUSH1 0x1 PUSH1 0xA8 SHL SUB NOT AND SWAP1 SWAP2 OR SWAP1 PUSH1 0x1 PUSH1 0xA0 SHL SWAP1 DUP5 SWAP1 DUP2 GT ISZERO PUSH3 0x348 JUMPI PUSH3 0x348 PUSH3 0x5F4 JUMP JUMPDEST MUL OR SWAP1 SSTORE POP PUSH1 0x40 DUP3 ADD MLOAD DUP1 MLOAD PUSH3 0x36A SWAP2 PUSH1 0x1 DUP5 ADD SWAP2 PUSH1 0x20 SWAP1 SWAP2 ADD SWAP1 PUSH3 0x4F8 JUMP JUMPDEST POP POP POP PUSH1 0x0 PUSH1 0x40 MLOAD PUSH3 0x37D SWAP1 PUSH3 0x5B9 JUMP JUMPDEST PUSH1 0x40 MLOAD DUP1 SWAP2 SUB SWAP1 PUSH1 0x0 CREATE DUP1 ISZERO DUP1 ISZERO PUSH3 0x39A JUMPI RETURNDATASIZE PUSH1 0x0 DUP1 RETURNDATACOPY RETURNDATASIZE PUSH1 0x0 REVERT JUMPDEST POP PUSH1 0x40 DUP1 MLOAD PUSH1 0x2 DUP1 DUP3 MSTORE PUSH1 0x60 DUP3 ADD DUP4 MSTORE SWAP3 SWAP4 POP SWAP2 SWAP1 PUSH1 0x20 DUP4 ADD SWAP1 DUP1 CALLDATASIZE DUP4 CALLDATACOPY ADD SWAP1 POP POP SWAP4 POP PUSH4 0xF2FDE38B PUSH1 0xE0 SHL DUP5 PUSH1 0x0 DUP2 MLOAD DUP2 LT PUSH3 0x3DC JUMPI PUSH3 0x3DC PUSH3 0x5DE JUMP JUMPDEST PUSH1 0x1 PUSH1 0x1 PUSH1 0xE0 SHL SUB NOT SWAP1 SWAP3 AND PUSH1 0x20 SWAP3 DUP4 MUL SWAP2 SWAP1 SWAP2 ADD SWAP1 SWAP2 ADD MSTORE DUP4 MLOAD PUSH4 0x8DA5CB5B PUSH1 0xE0 SHL SWAP1 DUP6 SWAP1 PUSH1 0x1 SWAP1 DUP2 LT PUSH3 0x416 JUMPI PUSH3 0x416 PUSH3 0x5DE JUMP JUMPDEST PUSH1 0x1 PUSH1 0x1 PUSH1 0xE0 SHL SUB NOT SWAP3 SWAP1 SWAP3 AND PUSH1 0x20 SWAP3 DUP4 MUL SWAP2 SWAP1 SWAP2 ADD DUP3 ADD MSTORE PUSH1 0x40 DUP1 MLOAD PUSH1 0x60 DUP2 ADD DUP3 MSTORE PUSH1 0x1 PUSH1 0x1 PUSH1 0xA0 SHL SUB DUP5 DUP2 AND DUP3 MSTORE PUSH1 0x0 SWAP4 DUP3 ADD DUP5 DUP2 MSTORE SWAP3 DUP3 ADD DUP9 SWAP1 MSTORE DUP4 SLOAD PUSH1 0x1 DUP2 ADD DUP6 SSTORE SWAP4 DUP1 MSTORE DUP2 MLOAD PUSH1 0x2 SWAP5 DUP6 MUL PUSH1 0x0 DUP1 MLOAD PUSH1 0x20 PUSH3 0x6AB5 DUP4 CODECOPY DUP2 MLOAD SWAP2 MSTORE ADD DUP1 SLOAD PUSH1 0x1 PUSH1 0x1 PUSH1 0xA0 SHL SUB NOT DUP2 AND SWAP3 SWAP1 SWAP4 AND SWAP2 DUP3 OR DUP2 SSTORE SWAP4 MLOAD SWAP3 SWAP5 DUP5 SWAP3 PUSH1 0x1 PUSH1 0x1 PUSH1 0xA8 SHL SUB NOT AND SWAP1 SWAP2 OR SWAP1 PUSH1 0x1 PUSH1 0xA0 SHL SWAP1 DUP5 SWAP1 DUP2 GT ISZERO PUSH3 0x4BB JUMPI PUSH3 0x4BB PUSH3 0x5F4 JUMP JUMPDEST MUL OR SWAP1 SSTORE POP PUSH1 0x40 DUP3 ADD MLOAD DUP1 MLOAD PUSH3 0x4DD SWAP2 PUSH1 0x1 DUP5 ADD SWAP2 PUSH1 0x20 SWAP1 SWAP2 ADD SWAP1 PUSH3 0x4F8 JUMP JUMPDEST POP POP POP POP POP POP POP PUSH3 0x60A JUMP JUMPDEST PUSH2 0x1D36 DUP1 PUSH3 0x421B DUP4 CODECOPY ADD SWAP1 JUMP JUMPDEST DUP3 DUP1 SLOAD DUP3 DUP3 SSTORE SWAP1 PUSH1 0x0 MSTORE PUSH1 0x20 PUSH1 0x0 KECCAK256 SWAP1 PUSH1 0x7 ADD PUSH1 0x8 SWAP1 DIV DUP2 ADD SWAP3 DUP3 ISZERO PUSH3 0x599 JUMPI SWAP2 PUSH1 0x20 MUL DUP3 ADD PUSH1 0x0 JUMPDEST DUP4 DUP3 GT ISZERO PUSH3 0x565 JUMPI DUP4 MLOAD DUP4 DUP3 PUSH2 0x100 EXP DUP2 SLOAD DUP2 PUSH4 0xFFFFFFFF MUL NOT AND SWAP1 DUP4 PUSH1 0xE0 SHR MUL OR SWAP1 SSTORE POP SWAP3 PUSH1 0x20 ADD SWAP3 PUSH1 0x4 ADD PUSH1 0x20 DUP2 PUSH1 0x3 ADD DIV SWAP3 DUP4 ADD SWAP3 PUSH1 0x1 SUB MUL PUSH3 0x522 JUMP JUMPDEST DUP1 ISZERO PUSH3 0x597 JUMPI DUP3 DUP2 PUSH2 0x100 EXP DUP2 SLOAD SWAP1 PUSH4 0xFFFFFFFF MUL NOT AND SWAP1 SSTORE PUSH1 0x4 ADD PUSH1 0x20 DUP2 PUSH1 0x3 ADD DIV SWAP3 DUP4 ADD SWAP3 PUSH1 0x1 SUB MUL PUSH3 0x565 JUMP JUMPDEST POP JUMPDEST POP PUSH3 0x5A7 SWAP3 SWAP2 POP PUSH3 0x5C7 JUMP JUMPDEST POP SWAP1 JUMP JUMPDEST PUSH2 0x86E DUP1 PUSH3 0x5F51 DUP4 CODECOPY ADD SWAP1 JUMP JUMPDEST PUSH2 0x2F6 DUP1 PUSH3 0x67BF DUP4 CODECOPY ADD SWAP1 JUMP JUMPDEST JUMPDEST DUP1 DUP3 GT ISZERO PUSH3 0x5A7 JUMPI PUSH1 0x0 DUP2 SSTORE PUSH1 0x1 ADD PUSH3 0x5C8 JUMP JUMPDEST PUSH4 0x4E487B71 PUSH1 0xE0 SHL PUSH1 0x0 MSTORE PUSH1 0x32 PUSH1 0x4 MSTORE PUSH1 0x24 PUSH1 0x0 REVERT JUMPDEST PUSH4 0x4E487B71 PUSH1 0xE0 SHL PUSH1 0x0 MSTORE PUSH1 0x21 PUSH1 0x4 MSTORE PUSH1 0x24 PUSH1 0x0 REVERT JUMPDEST PUSH2 0x3C01 DUP1 PUSH3 0x61A PUSH1 0x0 CODECOPY PUSH1 0x0 RETURN INVALID PUSH1 0x80 PUSH1 0x40 MSTORE PUSH1 0x4 CALLDATASIZE LT PUSH3 0x20 JUMPI PUSH1 0x0 CALLDATALOAD PUSH1 0xE0 SHR DUP1 PUSH4 0xCCC2E316 EQ PUSH3 0x25 JUMPI JUMPDEST PUSH1 0x0 DUP1 REVERT JUMPDEST PUSH3 0x3C PUSH3 0x36 CALLDATASIZE PUSH1 0x4 PUSH3 0x365 JUMP JUMPDEST PUSH3 0x65 JUMP JUMPDEST PUSH1 0x40 MLOAD PUSH20 0xFFFFFFFFFFFFFFFFFFFFFFFFFFFFFFFFFFFFFFFF SWAP1 SWAP2 AND DUP2 MSTORE PUSH1 0x20 ADD PUSH1 0x40 MLOAD DUP1 SWAP2 SUB SWAP1 RETURN JUMPDEST PUSH1 0x0 DUP2 ISZERO PUSH3 0x137 JUMPI DUP2 DUP8 PUSH1 0x40 MLOAD PUSH1 0x20 ADD PUSH3 0xB0 SWAP3 SWAP2 SWAP1 SWAP2 DUP3 MSTORE PUSH1 0x60 SHL PUSH32 0xFFFFFFFFFFFFFFFFFFFFFFFFFFFFFFFFFFFFFFFF000000000000000000000000 AND PUSH1 0x20 DUP3 ADD MSTORE PUSH1 0x34 ADD SWAP1 JUMP JUMPDEST PUSH1 0x40 MLOAD PUSH1 0x20 DUP2 DUP4 SUB SUB DUP2 MSTORE SWAP1 PUSH1 0x40 MSTORE DUP1 MLOAD SWAP1 PUSH1 0x20 ADD KECCAK256 SWAP2 POP CALLVALUE DUP3 SWAP1 PUSH1 0x0 PUSH1 0x40 MLOAD DUP1 PUSH1 0x20 ADD PUSH1 0x40 MSTORE DUP1 ADDRESS PUSH20 0xFFFFFFFFFFFFFFFFFFFFFFFFFFFFFFFFFFFFFFFF AND DUP2 MSTORE POP PUSH1 0x40 MLOAD PUSH3 0x100 SWAP1 PUSH3 0x2E1 JUMP JUMPDEST PUSH3 0x10D SWAP3 SWAP2 SWAP1 PUSH3 0x465 JUMP JUMPDEST DUP3 SWAP1 PUSH1 0x40 MLOAD DUP1 SWAP2 SUB SWAP1 DUP4 CREATE2 SWAP2 POP POP DUP1 ISZERO DUP1 ISZERO PUSH3 0x12E JUMPI RETURNDATASIZE PUSH1 0x0 DUP1 RETURNDATACOPY RETURNDATASIZE PUSH1 0x0 REVERT JUMPDEST POP SWAP1 POP PUSH3 0x185 JUMP JUMPDEST PUSH1 0x40 DUP1 MLOAD PUSH1 0x20 DUP2 ADD DUP3 MSTORE ADDRESS DUP2 MSTORE SWAP1 MLOAD CALLVALUE SWAP2 PUSH1 0x0 SWAP2 PUSH3 0x156 SWAP1 PUSH3 0x2E1 JUMP JUMPDEST PUSH3 0x163 SWAP3 SWAP2 SWAP1 PUSH3 0x465 JUMP JUMPDEST PUSH1 0x40 MLOAD DUP1 SWAP2 SUB SWAP1 DUP3 CREATE SWAP1 POP DUP1 ISZERO DUP1 ISZERO PUSH3 0x181 JUMPI RETURNDATASIZE PUSH1 0x0 DUP1 RETURNDATACOPY RETURNDATASIZE PUSH1 0x0 REVERT JUMPDEST POP SWAP1 POP JUMPDEST PUSH1 0x40 MLOAD PUSH20 0xFFFFFFFFFFFFFFFFFFFFFFFFFFFFFFFFFFFFFFFF DUP3 AND DUP2 MSTORE PUSH32 0x644CA5B0A8B0418E9FAF3880659EEB84EAAD45AD838B0173808E5CA72F5EFC49 SWAP1 PUSH1 0x20 ADD PUSH1 0x40 MLOAD DUP1 SWAP2 SUB SWAP1 LOG1 PUSH20 0xFFFFFFFFFFFFFFFFFFFFFFFFFFFFFFFFFFFFFFFF DUP2 AND PUSH4 0x1F931C1C DUP8 DUP8 DUP7 PUSH3 0x1FA JUMPI PUSH1 0x0 PUSH3 0x1FC JUMP JUMPDEST DUP5 JUMPDEST DUP9 DUP9 PUSH1 0x40 MLOAD DUP7 PUSH4 0xFFFFFFFF AND PUSH1 0xE0 SHL DUP2 MSTORE PUSH1 0x4 ADD PUSH3 0x220 SWAP6 SWAP5 SWAP4 SWAP3 SWAP2 SWAP1 PUSH3 0x924 JUMP JUMPDEST PUSH1 0x0 PUSH1 0x40 MLOAD DUP1 DUP4 SUB DUP2 PUSH1 0x0 DUP8 DUP1 EXTCODESIZE ISZERO DUP1 ISZERO PUSH3 0x23B JUMPI PUSH1 0x0 DUP1 REVERT JUMPDEST POP GAS CALL ISZERO DUP1 ISZERO PUSH3 0x250 JUMPI RETURNDATASIZE PUSH1 0x0 DUP1 RETURNDATACOPY RETURNDATASIZE PUSH1 0x0 REVERT JUMPDEST POP POP PUSH1 0x40 MLOAD PUSH32 0xF2FDE38B00000000000000000000000000000000000000000000000000000000 DUP2 MSTORE PUSH20 0xFFFFFFFFFFFFFFFFFFFFFFFFFFFFFFFFFFFFFFFF DUP11 DUP2 AND PUSH1 0x4 DUP4 ADD MSTORE DUP5 AND SWAP3 POP PUSH4 0xF2FDE38B SWAP2 POP PUSH1 0x24 ADD PUSH1 0x0 PUSH1 0x40 MLOAD DUP1 DUP4 SUB DUP2 PUSH1 0x0 DUP8 DUP1 EXTCODESIZE ISZERO DUP1 ISZERO PUSH3 0x2BE JUMPI PUSH1 0x0 DUP1 REVERT JUMPDEST POP GAS CALL ISZERO DUP1 ISZERO PUSH3 0x2D3 JUMPI RETURNDATASIZE PUSH1 0x0 DUP1 RETURNDATACOPY RETURNDATASIZE PUSH1 0x0 REVERT JUMPDEST POP POP POP POP SWAP7 SWAP6 POP POP POP POP POP POP JUMP JUMPDEST PUSH2 0x310C DUP1 PUSH3 0xAC0 DUP4 CODECOPY ADD SWAP1 JUMP JUMPDEST DUP1 CALLDATALOAD PUSH20 0xFFFFFFFFFFFFFFFFFFFFFFFFFFFFFFFFFFFFFFFF DUP2 AND DUP2 EQ PUSH3 0x314 JUMPI PUSH1 0x0 DUP1 REVERT JUMPDEST SWAP2 SWAP1 POP JUMP JUMPDEST PUSH1 0x0 DUP1 DUP4 PUSH1 0x1F DUP5 ADD SLT PUSH3 0x32C JUMPI PUSH1 0x0 DUP1 REVERT JUMPDEST POP DUP2 CALLDATALOAD PUSH8 0xFFFFFFFFFFFFFFFF DUP2 GT ISZERO PUSH3 0x345 JUMPI PUSH1 0x0 DUP1 REVERT JUMPDEST PUSH1 0x20 DUP4 ADD SWAP2 POP DUP4 PUSH1 0x20 DUP3 DUP6 ADD ADD GT ISZERO PUSH3 0x35E JUMPI PUSH1 0x0 DUP1 REVERT JUMPDEST SWAP3 POP SWAP3 SWAP1 POP JUMP JUMPDEST PUSH1 0x0 DUP1 PUSH1 0x0 DUP1 PUSH1 0x0 DUP1 PUSH1 0x80 DUP8 DUP10 SUB SLT ISZERO PUSH3 0x37F JUMPI PUSH1 0x0 DUP1 REVERT JUMPDEST PUSH3 0x38A DUP8 PUSH3 0x2EF JUMP JUMPDEST SWAP6 POP PUSH1 0x20 DUP8 ADD CALLDATALOAD PUSH8 0xFFFFFFFFFFFFFFFF DUP1 DUP3 GT ISZERO PUSH3 0x3A8 JUMPI PUSH1 0x0 DUP1 REVERT JUMPDEST DUP2 DUP10 ADD SWAP2 POP DUP10 PUSH1 0x1F DUP4 ADD SLT PUSH3 0x3BD JUMPI PUSH1 0x0 DUP1 REVERT JUMPDEST DUP2 CALLDATALOAD DUP2 DUP2 GT ISZERO PUSH3 0x3CD JUMPI PUSH1 0x0 DUP1 REVERT JUMPDEST DUP11 PUSH1 0x20 DUP3 PUSH1 0x5 SHL DUP6 ADD ADD GT ISZERO PUSH3 0x3E3 JUMPI PUSH1 0x0 DUP1 REVERT JUMPDEST PUSH1 0x20 DUP4 ADD SWAP8 POP DUP1 SWAP7 POP POP PUSH1 0x40 DUP10 ADD CALLDATALOAD SWAP2 POP DUP1 DUP3 GT ISZERO PUSH3 0x402 JUMPI PUSH1 0x0 DUP1 REVERT JUMPDEST POP PUSH3 0x411 DUP10 DUP3 DUP11 ADD PUSH3 0x319 JUMP JUMPDEST SWAP8 SWAP11 SWAP7 SWAP10 POP SWAP5 SWAP8 SWAP5 SWAP7 SWAP6 PUSH1 0x60 SWAP1 SWAP6 ADD CALLDATALOAD SWAP5 SWAP4 POP POP POP POP JUMP JUMPDEST PUSH1 0x3 DUP2 LT PUSH3 0x461 JUMPI PUSH32 0x4E487B7100000000000000000000000000000000000000000000000000000000 PUSH1 0x0 MSTORE PUSH1 0x21 PUSH1 0x4 MSTORE PUSH1 0x24 PUSH1 0x0 REVERT JUMPDEST SWAP1 MSTORE JUMP JUMPDEST PUSH1 0x0 PUSH1 0x40 DUP3 ADD PUSH1 0x40 DUP4 MSTORE DUP1 DUP6 SLOAD DUP1 DUP4 MSTORE PUSH1 0x60 DUP6 ADD SWAP2 POP PUSH1 0x60 DUP2 PUSH1 0x5 SHL DUP7 ADD ADD SWAP3 POP DUP7 PUSH1 0x0 MSTORE PUSH1 0x20 DUP1 PUSH1 0x0 KECCAK256 PUSH1 0x0 JUMPDEST DUP4 DUP2 LT ISZERO PUSH3 0x83D JUMPI PUSH32 0xFFFFFFFFFFFFFFFFFFFFFFFFFFFFFFFFFFFFFFFFFFFFFFFFFFFFFFFFFFFFFFA0 DUP9 DUP8 SUB ADD DUP6 MSTORE PUSH1 0x60 DUP7 ADD DUP3 SLOAD PUSH20 0xFFFFFFFFFFFFFFFFFFFFFFFFFFFFFFFFFFFFFFFF DUP2 AND DUP9 MSTORE PUSH3 0x4F6 DUP6 DUP10 ADD PUSH1 0xFF DUP4 PUSH1 0xA0 SHR AND PUSH3 0x429 JUMP JUMPDEST POP PUSH1 0x60 PUSH1 0x40 DUP9 ADD MSTORE PUSH1 0x1 DUP4 DUP2 ADD DUP1 SLOAD DUP1 DUP5 MSTORE PUSH1 0x0 SWAP2 DUP3 MSTORE PUSH1 0x20 DUP1 DUP4 KECCAK256 SWAP5 ADD SWAP1 JUMPDEST DUP1 PUSH1 0x7 DUP5 ADD LT ISZERO PUSH3 0x64C JUMPI DUP5 SLOAD PUSH3 0x553 DUP4 DUP3 PUSH1 0xE0 SHL PUSH32 0xFFFFFFFF00000000000000000000000000000000000000000000000000000000 AND SWAP1 MSTORE JUMP JUMPDEST PUSH32 0xFFFFFFFF00000000000000000000000000000000000000000000000000000000 PUSH1 0xC0 DUP3 SWAP1 SHL DUP2 AND DUP11 DUP6 ADD MSTORE PUSH1 0xA0 DUP3 SWAP1 SHL DUP2 AND PUSH1 0x40 DUP6 ADD MSTORE PUSH1 0x80 DUP3 SWAP1 SHL DUP2 AND PUSH1 0x60 DUP6 ADD MSTORE PUSH3 0x5CB PUSH1 0x80 DUP6 ADD DUP3 DUP5 PUSH1 0x60 SHL AND PUSH32 0xFFFFFFFF00000000000000000000000000000000000000000000000000000000 AND SWAP1 MSTORE JUMP JUMPDEST PUSH3 0x5FF PUSH1 0xA0 DUP6 ADD DUP3 DUP5 PUSH1 0x40 SHL AND PUSH32 0xFFFFFFFF00000000000000000000000000000000000000000000000000000000 AND SWAP1 MSTORE JUMP JUMPDEST PUSH32 0xFFFFFFFF00000000000000000000000000000000000000000000000000000000 DUP3 DUP12 SHL DUP3 AND DUP2 AND PUSH1 0xC0 DUP7 ADD MSTORE SWAP2 AND AND PUSH1 0xE0 DUP4 ADD MSTORE SWAP4 DUP4 ADD SWAP4 PUSH1 0x8 SWAP3 SWAP1 SWAP3 ADD SWAP2 PUSH2 0x100 SWAP1 SWAP2 ADD SWAP1 PUSH3 0x516 JUMP JUMPDEST SWAP4 SLOAD SWAP4 DUP1 DUP4 LT ISZERO PUSH3 0x690 JUMPI PUSH3 0x687 DUP3 DUP7 PUSH1 0xE0 SHL PUSH32 0xFFFFFFFF00000000000000000000000000000000000000000000000000000000 AND SWAP1 MSTORE JUMP JUMPDEST SWAP2 DUP4 ADD SWAP2 SWAP1 DUP8 ADD SWAP1 JUMPDEST DUP1 DUP4 LT ISZERO PUSH3 0x6CB JUMPI PUSH1 0xC0 DUP6 SWAP1 SHL PUSH32 0xFFFFFFFF00000000000000000000000000000000000000000000000000000000 AND DUP3 MSTORE SWAP2 DUP4 ADD SWAP2 SWAP1 DUP8 ADD SWAP1 JUMPDEST DUP1 DUP4 LT ISZERO PUSH3 0x706 JUMPI PUSH1 0xA0 DUP6 SWAP1 SHL PUSH32 0xFFFFFFFF00000000000000000000000000000000000000000000000000000000 AND DUP3 MSTORE SWAP2 DUP4 ADD SWAP2 SWAP1 DUP8 ADD SWAP1 JUMPDEST DUP1 DUP4 LT ISZERO PUSH3 0x741 JUMPI PUSH1 0x80 DUP6 SWAP1 SHL PUSH32 0xFFFFFFFF00000000000000000000000000000000000000000000000000000000 AND DUP3 MSTORE SWAP2 DUP4 ADD SWAP2 SWAP1 DUP8 ADD SWAP1 JUMPDEST DUP1 DUP4 LT ISZERO PUSH3 0x77C JUMPI PUSH1 0x60 DUP6 SWAP1 SHL PUSH32 0xFFFFFFFF00000000000000000000000000000000000000000000000000000000 AND DUP3 MSTORE SWAP2 DUP4 ADD SWAP2 SWAP1 DUP8 ADD SWAP1 JUMPDEST DUP1 DUP4 LT ISZERO PUSH3 0x7B7 JUMPI PUSH1 0x40 DUP6 SWAP1 SHL PUSH32 0xFFFFFFFF00000000000000000000000000000000000000000000000000000000 AND DUP3 MSTORE SWAP2 DUP4 ADD SWAP2 SWAP1 DUP8 ADD SWAP1 JUMPDEST DUP1 DUP4 LT ISZERO PUSH3 0x7F0 JUMPI DUP5 DUP9 SHL PUSH32 0xFFFFFFFF00000000000000000000000000000000000000000000000000000000 AND DUP3 MSTORE SWAP2 DUP4 ADD SWAP2 SWAP1 DUP8 ADD SWAP1 JUMPDEST DUP1 DUP4 LT ISZERO PUSH3 0x823 JUMPI PUSH32 0xFFFFFFFF00000000000000000000000000000000000000000000000000000000 DUP6 AND DUP3 MSTORE SWAP1 DUP8 ADD SWAP1 JUMPDEST POP SWAP9 POP POP POP SWAP5 DUP4 ADD SWAP5 POP PUSH1 0x2 SWAP2 SWAP1 SWAP2 ADD SWAP1 PUSH1 0x1 ADD PUSH3 0x493 JUMP JUMPDEST POP POP DUP4 SWAP5 POP PUSH3 0x865 DUP2 DUP8 ADD DUP9 MLOAD PUSH20 0xFFFFFFFFFFFFFFFFFFFFFFFFFFFFFFFFFFFFFFFF AND SWAP1 MSTORE JUMP JUMPDEST POP POP POP POP SWAP4 SWAP3 POP POP POP JUMP JUMPDEST DUP2 DUP4 MSTORE PUSH1 0x0 PUSH1 0x20 DUP1 DUP6 ADD SWAP5 POP DUP3 PUSH1 0x0 DUP1 JUMPDEST DUP7 DUP2 LT ISZERO PUSH3 0x8CF JUMPI DUP3 CALLDATALOAD PUSH32 0xFFFFFFFF00000000000000000000000000000000000000000000000000000000 DUP2 AND DUP1 DUP3 EQ PUSH3 0x8BB JUMPI DUP4 DUP5 REVERT JUMPDEST DUP10 MSTORE POP SWAP7 DUP4 ADD SWAP7 SWAP2 DUP4 ADD SWAP2 PUSH1 0x1 ADD PUSH3 0x881 JUMP JUMPDEST POP SWAP6 SWAP7 SWAP6 POP POP POP POP POP POP JUMP JUMPDEST DUP2 DUP4 MSTORE DUP2 DUP2 PUSH1 0x20 DUP6 ADD CALLDATACOPY POP PUSH1 0x0 PUSH1 0x20 DUP3 DUP5 ADD ADD MSTORE PUSH1 0x0 PUSH1 0x20 PUSH32 0xFFFFFFFFFFFFFFFFFFFFFFFFFFFFFFFFFFFFFFFFFFFFFFFFFFFFFFFFFFFFFFE0 PUSH1 0x1F DUP5 ADD AND DUP5 ADD ADD SWAP1 POP SWAP3 SWAP2 POP POP JUMP JUMPDEST PUSH1 0x60 DUP1 DUP3 MSTORE DUP2 DUP2 ADD DUP7 SWAP1 MSTORE PUSH1 0x0 SWAP1 PUSH1 0x5 PUSH1 0x80 DUP1 DUP6 ADD SWAP1 DUP10 DUP4 SHL DUP7 ADD ADD DUP11 DUP6 JUMPDEST DUP12 DUP2 LT ISZERO PUSH3 0xA7D JUMPI PUSH32 0xFFFFFFFFFFFFFFFFFFFFFFFFFFFFFFFFFFFFFFFFFFFFFFFFFFFFFFFFFFFFFF80 DUP9 DUP5 SUB ADD DUP5 MSTORE DUP2 CALLDATALOAD PUSH32 0xFFFFFFFFFFFFFFFFFFFFFFFFFFFFFFFFFFFFFFFFFFFFFFFFFFFFFFFFFFFFFFA1 DUP15 CALLDATASIZE SUB ADD DUP2 SLT PUSH3 0x9A6 JUMPI PUSH1 0x0 DUP1 REVERT JUMPDEST DUP14 ADD PUSH20 0xFFFFFFFFFFFFFFFFFFFFFFFFFFFFFFFFFFFFFFFF PUSH3 0x9C8 DUP3 PUSH3 0x2EF JUMP JUMPDEST AND DUP5 MSTORE PUSH1 0x20 DUP1 DUP3 ADD CALLDATALOAD PUSH1 0x3 DUP2 LT PUSH3 0x9DF JUMPI PUSH1 0x0 DUP1 REVERT JUMPDEST PUSH3 0x9ED DUP3 DUP8 ADD DUP3 PUSH3 0x429 JUMP JUMPDEST POP PUSH1 0x40 DUP1 DUP4 ADD CALLDATALOAD PUSH32 0xFFFFFFFFFFFFFFFFFFFFFFFFFFFFFFFFFFFFFFFFFFFFFFFFFFFFFFFFFFFFFFE1 DUP5 CALLDATASIZE SUB ADD DUP2 SLT PUSH3 0xA25 JUMPI PUSH1 0x0 DUP1 REVERT JUMPDEST DUP4 ADD DUP1 CALLDATALOAD PUSH8 0xFFFFFFFFFFFFFFFF DUP2 GT ISZERO PUSH3 0xA3F JUMPI PUSH1 0x0 DUP1 REVERT JUMPDEST DUP1 DUP11 SHL CALLDATASIZE SUB DUP6 SGT ISZERO PUSH3 0xA51 JUMPI PUSH1 0x0 DUP1 REVERT JUMPDEST DUP11 DUP4 DUP10 ADD MSTORE PUSH3 0xA67 DUP12 DUP10 ADD DUP3 DUP7 DUP6 ADD PUSH3 0x870 JUMP JUMPDEST SWAP9 DUP5 ADD SWAP9 SWAP8 POP POP POP SWAP4 ADD SWAP3 POP POP PUSH1 0x1 ADD PUSH3 0x943 JUMP JUMPDEST POP POP PUSH20 0xFFFFFFFFFFFFFFFFFFFFFFFFFFFFFFFFFFFFFFFF DUP10 AND PUSH1 0x20 DUP8 ADD MSTORE DUP6 DUP2 SUB PUSH1 0x40 DUP8 ADD MSTORE PUSH3 0xAB0 DUP2 DUP9 DUP11 PUSH3 0x8DB JUMP JUMPDEST SWAP12 SWAP11 POP POP POP POP POP POP POP POP POP POP POP JUMP INVALID PUSH1 0x80 PUSH1 0x40 MSTORE PUSH1 0x40 MLOAD PUSH3 0x310C CODESIZE SUB DUP1 PUSH3 0x310C DUP4 CODECOPY DUP2 ADD PUSH1 0x40 DUP2 SWAP1 MSTORE PUSH3 0x26 SWAP2 PUSH3 0x1205 JUMP JUMPDEST PUSH1 0x40 DUP1 MLOAD PUSH1 0x0 DUP1 DUP3 MSTORE PUSH1 0x20 DUP3 ADD SWAP1 SWAP3 MSTORE PUSH3 0x4E SWAP2 DUP5 SWAP2 PUSH3 0xF5 PUSH1 0x20 SHL PUSH3 0x107 OR PUSH1 0x20 SHR JUMP JUMPDEST PUSH3 0x68 DUP2 PUSH1 0x0 ADD MLOAD PUSH3 0x353 PUSH1 0x20 SHL PUSH3 0x34B OR PUSH1 0x20 SHR JUMP JUMPDEST PUSH1 0x0 PUSH3 0x7F PUSH3 0x3D7 PUSH1 0x20 SHL PUSH3 0x405 OR PUSH1 0x20 SHR JUMP JUMPDEST PUSH4 0x1FFC9A7 PUSH1 0xE0 SHL PUSH1 0x0 SWAP1 DUP2 MSTORE PUSH1 0x3 SWAP1 SWAP2 ADD PUSH1 0x20 MSTORE PUSH1 0x40 DUP1 DUP3 KECCAK256 DUP1 SLOAD PUSH1 0xFF NOT SWAP1 DUP2 AND PUSH1 0x1 SWAP1 DUP2 OR SWAP1 SWAP3 SSTORE PUSH4 0x7E4C707 PUSH1 0xE2 SHL DUP5 MSTORE DUP3 DUP5 KECCAK256 DUP1 SLOAD DUP3 AND DUP4 OR SWAP1 SSTORE PUSH4 0x48E2B093 PUSH1 0xE0 SHL DUP5 MSTORE DUP3 DUP5 KECCAK256 DUP1 SLOAD DUP3 AND DUP4 OR SWAP1 SSTORE PUSH4 0x7F5828D PUSH1 0xE4 SHL DUP5 MSTORE SWAP2 SWAP1 SWAP3 KECCAK256 DUP1 SLOAD SWAP1 SWAP2 AND SWAP1 SWAP2 OR SWAP1 SSTORE POP PUSH3 0x1607 SWAP2 POP POP JUMP JUMPDEST PUSH1 0x0 JUMPDEST DUP4 MLOAD DUP2 LT ISZERO PUSH3 0x304 JUMPI PUSH1 0x0 DUP5 DUP3 DUP2 MLOAD DUP2 LT PUSH3 0x119 JUMPI PUSH3 0x119 PUSH3 0x13AF JUMP JUMPDEST PUSH1 0x20 MUL PUSH1 0x20 ADD ADD MLOAD PUSH1 0x20 ADD MLOAD SWAP1 POP PUSH1 0x0 PUSH1 0x2 DUP2 GT ISZERO PUSH3 0x13D JUMPI PUSH3 0x13D PUSH3 0x13C5 JUMP JUMPDEST DUP2 PUSH1 0x2 DUP2 GT ISZERO PUSH3 0x152 JUMPI PUSH3 0x152 PUSH3 0x13C5 JUMP JUMPDEST EQ ISZERO PUSH3 0x1B1 JUMPI PUSH3 0x1AB DUP6 DUP4 DUP2 MLOAD DUP2 LT PUSH3 0x172 JUMPI PUSH3 0x172 PUSH3 0x13AF JUMP JUMPDEST PUSH1 0x20 MUL PUSH1 0x20 ADD ADD MLOAD PUSH1 0x0 ADD MLOAD DUP7 DUP5 DUP2 MLOAD DUP2 LT PUSH3 0x193 JUMPI PUSH3 0x193 PUSH3 0x13AF JUMP JUMPDEST PUSH1 0x20 MUL PUSH1 0x20 ADD ADD MLOAD PUSH1 0x40 ADD MLOAD PUSH3 0x3EA PUSH1 0x20 SHL PUSH1 0x20 SHR JUMP JUMPDEST PUSH3 0x2EE JUMP JUMPDEST PUSH1 0x1 DUP2 PUSH1 0x2 DUP2 GT ISZERO PUSH3 0x1C8 JUMPI PUSH3 0x1C8 PUSH3 0x13C5 JUMP JUMPDEST EQ ISZERO PUSH3 0x221 JUMPI PUSH3 0x1AB DUP6 DUP4 DUP2 MLOAD DUP2 LT PUSH3 0x1E8 JUMPI PUSH3 0x1E8 PUSH3 0x13AF JUMP JUMPDEST PUSH1 0x20 MUL PUSH1 0x20 ADD ADD MLOAD PUSH1 0x0 ADD MLOAD DUP7 DUP5 DUP2 MLOAD DUP2 LT PUSH3 0x209 JUMPI PUSH3 0x209 PUSH3 0x13AF JUMP JUMPDEST PUSH1 0x20 MUL PUSH1 0x20 ADD ADD MLOAD PUSH1 0x40 ADD MLOAD PUSH3 0x674 PUSH1 0x20 SHL PUSH1 0x20 SHR JUMP JUMPDEST PUSH1 0x2 DUP2 PUSH1 0x2 DUP2 GT ISZERO PUSH3 0x238 JUMPI PUSH3 0x238 PUSH3 0x13C5 JUMP JUMPDEST EQ ISZERO PUSH3 0x291 JUMPI PUSH3 0x1AB DUP6 DUP4 DUP2 MLOAD DUP2 LT PUSH3 0x258 JUMPI PUSH3 0x258 PUSH3 0x13AF JUMP JUMPDEST PUSH1 0x20 MUL PUSH1 0x20 ADD ADD MLOAD PUSH1 0x0 ADD MLOAD DUP7 DUP5 DUP2 MLOAD DUP2 LT PUSH3 0x279 JUMPI PUSH3 0x279 PUSH3 0x13AF JUMP JUMPDEST PUSH1 0x20 MUL PUSH1 0x20 ADD ADD MLOAD PUSH1 0x40 ADD MLOAD PUSH3 0x90A PUSH1 0x20 SHL PUSH1 0x20 SHR JUMP JUMPDEST PUSH1 0x40 MLOAD PUSH3 0x461BCD PUSH1 0xE5 SHL DUP2 MSTORE PUSH1 0x20 PUSH1 0x4 DUP3 ADD MSTORE PUSH1 0x27 PUSH1 0x24 DUP3 ADD MSTORE PUSH32 0x4C69624469616D6F6E644375743A20496E636F72726563742046616365744375 PUSH1 0x44 DUP3 ADD MSTORE PUSH7 0x3A20B1BA34B7B7 PUSH1 0xC9 SHL PUSH1 0x64 DUP3 ADD MSTORE PUSH1 0x84 ADD JUMPDEST PUSH1 0x40 MLOAD DUP1 SWAP2 SUB SWAP1 REVERT JUMPDEST POP DUP1 PUSH3 0x2FB DUP2 PUSH3 0x13F1 JUMP JUMPDEST SWAP2 POP POP PUSH3 0xF8 JUMP JUMPDEST POP PUSH32 0x8FAA70878671CCD212D20771B795C50AF8FD3FF6CF27F4BDE57E5D4DE0AEB673 DUP4 DUP4 DUP4 PUSH1 0x40 MLOAD PUSH3 0x33A SWAP4 SWAP3 SWAP2 SWAP1 PUSH3 0x146C JUMP JUMPDEST PUSH1 0x40 MLOAD DUP1 SWAP2 SUB SWAP1 LOG1 PUSH3 0x34E DUP3 DUP3 PUSH3 0xA70 JUMP JUMPDEST POP POP POP JUMP JUMPDEST PUSH32 0xC8FCAD8DB84D3CC18B4C41D551EA0EE66DD599CDE068D998E57D5E09332C1320 DUP1 SLOAD PUSH1 0x1 PUSH1 0x1 PUSH1 0xA0 SHL SUB NOT DUP2 AND PUSH1 0x1 PUSH1 0x1 PUSH1 0xA0 SHL SUB DUP5 DUP2 AND SWAP2 DUP3 OR SWAP1 SWAP4 SSTORE PUSH1 0x40 MLOAD PUSH1 0x0 DUP1 MLOAD PUSH1 0x20 PUSH3 0x3060 DUP4 CODECOPY DUP2 MLOAD SWAP2 MSTORE SWAP4 SWAP1 SWAP3 AND SWAP2 DUP3 SWAP1 PUSH32 0x8BE0079C531659141344CD1FD0A4F28419497F9722A3DAAFE3B4186F6B6457E0 SWAP1 PUSH1 0x0 SWAP1 LOG3 POP POP POP JUMP JUMPDEST PUSH1 0x0 DUP1 MLOAD PUSH1 0x20 PUSH3 0x3060 DUP4 CODECOPY DUP2 MLOAD SWAP2 MSTORE SWAP1 JUMP JUMPDEST PUSH1 0x0 DUP2 MLOAD GT PUSH3 0x440 JUMPI PUSH1 0x40 MLOAD PUSH3 0x461BCD PUSH1 0xE5 SHL DUP2 MSTORE PUSH1 0x20 PUSH1 0x4 DUP3 ADD MSTORE PUSH1 0x2B PUSH1 0x24 DUP3 ADD MSTORE PUSH1 0x0 DUP1 MLOAD PUSH1 0x20 PUSH3 0x30EC DUP4 CODECOPY DUP2 MLOAD SWAP2 MSTORE PUSH1 0x44 DUP3 ADD MSTORE PUSH11 0x1858D95D081D1BC818DD5D PUSH1 0xAA SHL PUSH1 0x64 DUP3 ADD MSTORE PUSH1 0x84 ADD PUSH3 0x2E5 JUMP JUMPDEST PUSH1 0x0 DUP1 MLOAD PUSH1 0x20 PUSH3 0x3060 DUP4 CODECOPY DUP2 MLOAD SWAP2 MSTORE PUSH1 0x1 PUSH1 0x1 PUSH1 0xA0 SHL SUB DUP4 AND PUSH3 0x4AC JUMPI PUSH1 0x40 MLOAD PUSH3 0x461BCD PUSH1 0xE5 SHL DUP2 MSTORE PUSH1 0x20 PUSH1 0x4 DUP3 ADD MSTORE PUSH1 0x2C PUSH1 0x24 DUP3 ADD MSTORE PUSH1 0x0 DUP1 MLOAD PUSH1 0x20 PUSH3 0x30A8 DUP4 CODECOPY DUP2 MLOAD SWAP2 MSTORE PUSH1 0x44 DUP3 ADD MSTORE PUSH12 0x652061646472657373283029 PUSH1 0xA0 SHL PUSH1 0x64 DUP3 ADD MSTORE PUSH1 0x84 ADD PUSH3 0x2E5 JUMP JUMPDEST PUSH1 0x1 PUSH1 0x1 PUSH1 0xA0 SHL SUB DUP4 AND PUSH1 0x0 SWAP1 DUP2 MSTORE PUSH1 0x1 DUP3 ADD PUSH1 0x20 MSTORE PUSH1 0x40 SWAP1 KECCAK256 SLOAD PUSH1 0x1 PUSH1 0x1 PUSH1 0x60 SHL SUB DUP2 AND PUSH3 0x4E2 JUMPI PUSH3 0x4E2 DUP3 DUP6 PUSH3 0xC8F JUMP JUMPDEST PUSH1 0x0 JUMPDEST DUP4 MLOAD DUP2 LT ISZERO PUSH3 0x66D JUMPI PUSH1 0x0 DUP5 DUP3 DUP2 MLOAD DUP2 LT PUSH3 0x506 JUMPI PUSH3 0x506 PUSH3 0x13AF JUMP JUMPDEST PUSH1 0x20 SWAP1 DUP2 MUL SWAP2 SWAP1 SWAP2 ADD DUP2 ADD MLOAD PUSH1 0x1 PUSH1 0x1 PUSH1 0xE0 SHL SUB NOT DUP2 AND PUSH1 0x0 SWAP1 DUP2 MSTORE SWAP2 DUP7 SWAP1 MSTORE PUSH1 0x40 SWAP1 SWAP2 KECCAK256 SLOAD SWAP1 SWAP2 POP PUSH1 0x1 PUSH1 0x1 PUSH1 0xA0 SHL SUB AND DUP1 ISZERO PUSH3 0x5AE JUMPI PUSH1 0x40 MLOAD PUSH3 0x461BCD PUSH1 0xE5 SHL DUP2 MSTORE PUSH1 0x20 PUSH1 0x4 DUP3 ADD MSTORE PUSH1 0x35 PUSH1 0x24 DUP3 ADD MSTORE PUSH32 0x4C69624469616D6F6E644375743A2043616E2774206164642066756E6374696F PUSH1 0x44 DUP3 ADD MSTORE PUSH32 0x6E207468617420616C7265616479206578697374730000000000000000000000 PUSH1 0x64 DUP3 ADD MSTORE PUSH1 0x84 ADD PUSH3 0x2E5 JUMP JUMPDEST PUSH1 0x1 PUSH1 0x1 PUSH1 0xE0 SHL SUB NOT DUP3 AND PUSH1 0x0 DUP2 DUP2 MSTORE PUSH1 0x20 DUP8 DUP2 MSTORE PUSH1 0x40 DUP1 DUP4 KECCAK256 DUP1 SLOAD PUSH1 0x1 PUSH1 0x1 PUSH1 0xA0 SHL SUB SWAP1 DUP2 AND PUSH1 0x1 PUSH1 0xA0 SHL PUSH1 0x1 PUSH1 0x1 PUSH1 0x60 SHL SUB DUP13 AND MUL OR DUP3 SSTORE DUP13 AND DUP1 DUP6 MSTORE PUSH1 0x1 DUP1 DUP13 ADD DUP6 MSTORE SWAP3 DUP6 KECCAK256 DUP1 SLOAD SWAP4 DUP5 ADD DUP2 SSTORE DUP6 MSTORE DUP4 DUP6 KECCAK256 PUSH1 0x8 DUP5 DIV ADD DUP1 SLOAD PUSH4 0xFFFFFFFF PUSH1 0x7 SWAP1 SWAP6 AND PUSH1 0x4 MUL PUSH2 0x100 EXP SWAP5 DUP6 MUL NOT AND PUSH1 0xE0 DUP11 SWAP1 SHR SWAP5 SWAP1 SWAP5 MUL SWAP4 SWAP1 SWAP4 OR SWAP1 SWAP3 SSTORE SWAP4 SWAP1 SWAP3 MSTORE DUP8 SWAP1 MSTORE DUP2 SLOAD PUSH1 0x1 PUSH1 0x1 PUSH1 0xA0 SHL SUB NOT AND OR SWAP1 SSTORE DUP4 PUSH3 0x652 DUP2 PUSH3 0x1573 JUMP JUMPDEST SWAP5 POP POP POP POP DUP1 DUP1 PUSH3 0x664 SWAP1 PUSH3 0x13F1 JUMP JUMPDEST SWAP2 POP POP PUSH3 0x4E5 JUMP JUMPDEST POP POP POP POP POP JUMP JUMPDEST PUSH1 0x0 DUP2 MLOAD GT PUSH3 0x6CA JUMPI PUSH1 0x40 MLOAD PUSH3 0x461BCD PUSH1 0xE5 SHL DUP2 MSTORE PUSH1 0x20 PUSH1 0x4 DUP3 ADD MSTORE PUSH1 0x2B PUSH1 0x24 DUP3 ADD MSTORE PUSH1 0x0 DUP1 MLOAD PUSH1 0x20 PUSH3 0x30EC DUP4 CODECOPY DUP2 MLOAD SWAP2 MSTORE PUSH1 0x44 DUP3 ADD MSTORE PUSH11 0x1858D95D081D1BC818DD5D PUSH1 0xAA SHL PUSH1 0x64 DUP3 ADD MSTORE PUSH1 0x84 ADD PUSH3 0x2E5 JUMP JUMPDEST PUSH1 0x0 DUP1 MLOAD PUSH1 0x20 PUSH3 0x3060 DUP4 CODECOPY DUP2 MLOAD SWAP2 MSTORE PUSH1 0x1 PUSH1 0x1 PUSH1 0xA0 SHL SUB DUP4 AND PUSH3 0x736 JUMPI PUSH1 0x40 MLOAD PUSH3 0x461BCD PUSH1 0xE5 SHL DUP2 MSTORE PUSH1 0x20 PUSH1 0x4 DUP3 ADD MSTORE PUSH1 0x2C PUSH1 0x24 DUP3 ADD MSTORE PUSH1 0x0 DUP1 MLOAD PUSH1 0x20 PUSH3 0x30A8 DUP4 CODECOPY DUP2 MLOAD SWAP2 MSTORE PUSH1 0x44 DUP3 ADD MSTORE PUSH12 0x652061646472657373283029 PUSH1 0xA0 SHL PUSH1 0x64 DUP3 ADD MSTORE PUSH1 0x84 ADD PUSH3 0x2E5 JUMP JUMPDEST PUSH1 0x1 PUSH1 0x1 PUSH1 0xA0 SHL SUB DUP4 AND PUSH1 0x0 SWAP1 DUP2 MSTORE PUSH1 0x1 DUP3 ADD PUSH1 0x20 MSTORE PUSH1 0x40 SWAP1 KECCAK256 SLOAD PUSH1 0x1 PUSH1 0x1 PUSH1 0x60 SHL SUB DUP2 AND PUSH3 0x76C JUMPI PUSH3 0x76C DUP3 DUP6 PUSH3 0xC8F JUMP JUMPDEST PUSH1 0x0 JUMPDEST DUP4 MLOAD DUP2 LT ISZERO PUSH3 0x66D JUMPI PUSH1 0x0 DUP5 DUP3 DUP2 MLOAD DUP2 LT PUSH3 0x790 JUMPI PUSH3 0x790 PUSH3 0x13AF JUMP JUMPDEST PUSH1 0x20 SWAP1 DUP2 MUL SWAP2 SWAP1 SWAP2 ADD DUP2 ADD MLOAD PUSH1 0x1 PUSH1 0x1 PUSH1 0xE0 SHL SUB NOT DUP2 AND PUSH1 0x0 SWAP1 DUP2 MSTORE SWAP2 DUP7 SWAP1 MSTORE PUSH1 0x40 SWAP1 SWAP2 KECCAK256 SLOAD SWAP1 SWAP2 POP PUSH1 0x1 PUSH1 0x1 PUSH1 0xA0 SHL SUB SWAP1 DUP2 AND SWAP1 DUP8 AND DUP2 EQ ISZERO PUSH3 0x83E JUMPI PUSH1 0x40 MLOAD PUSH3 0x461BCD PUSH1 0xE5 SHL DUP2 MSTORE PUSH1 0x20 PUSH1 0x4 DUP3 ADD MSTORE PUSH1 0x38 PUSH1 0x24 DUP3 ADD MSTORE PUSH32 0x4C69624469616D6F6E644375743A2043616E2774207265706C6163652066756E PUSH1 0x44 DUP3 ADD MSTORE PUSH32 0x6374696F6E20776974682073616D652066756E6374696F6E0000000000000000 PUSH1 0x64 DUP3 ADD MSTORE PUSH1 0x84 ADD PUSH3 0x2E5 JUMP JUMPDEST PUSH3 0x84B DUP6 DUP3 DUP5 PUSH3 0xCFC JUMP JUMPDEST PUSH1 0x1 PUSH1 0x1 PUSH1 0xE0 SHL SUB NOT DUP3 AND PUSH1 0x0 DUP2 DUP2 MSTORE PUSH1 0x20 DUP8 DUP2 MSTORE PUSH1 0x40 DUP1 DUP4 KECCAK256 DUP1 SLOAD PUSH1 0x1 PUSH1 0x1 PUSH1 0xA0 SHL SUB SWAP1 DUP2 AND PUSH1 0x1 PUSH1 0xA0 SHL PUSH1 0x1 PUSH1 0x1 PUSH1 0x60 SHL SUB DUP13 AND MUL OR DUP3 SSTORE DUP13 AND DUP1 DUP6 MSTORE PUSH1 0x1 DUP1 DUP13 ADD DUP6 MSTORE SWAP3 DUP6 KECCAK256 DUP1 SLOAD SWAP4 DUP5 ADD DUP2 SSTORE DUP6 MSTORE DUP4 DUP6 KECCAK256 PUSH1 0x8 DUP5 DIV ADD DUP1 SLOAD PUSH4 0xFFFFFFFF PUSH1 0x7 SWAP1 SWAP6 AND PUSH1 0x4 MUL PUSH2 0x100 EXP SWAP5 DUP6 MUL NOT AND PUSH1 0xE0 DUP11 SWAP1 SHR SWAP5 SWAP1 SWAP5 MUL SWAP4 SWAP1 SWAP4 OR SWAP1 SWAP3 SSTORE SWAP4 SWAP1 SWAP3 MSTORE DUP8 SWAP1 MSTORE DUP2 SLOAD PUSH1 0x1 PUSH1 0x1 PUSH1 0xA0 SHL SUB NOT AND OR SWAP1 SSTORE DUP4 PUSH3 0x8EF DUP2 PUSH3 0x1573 JUMP JUMPDEST SWAP5 POP POP POP POP DUP1 DUP1 PUSH3 0x901 SWAP1 PUSH3 0x13F1 JUMP JUMPDEST SWAP2 POP POP PUSH3 0x76F JUMP JUMPDEST PUSH1 0x0 DUP2 MLOAD GT PUSH3 0x960 JUMPI PUSH1 0x40 MLOAD PUSH3 0x461BCD PUSH1 0xE5 SHL DUP2 MSTORE PUSH1 0x20 PUSH1 0x4 DUP3 ADD MSTORE PUSH1 0x2B PUSH1 0x24 DUP3 ADD MSTORE PUSH1 0x0 DUP1 MLOAD PUSH1 0x20 PUSH3 0x30EC DUP4 CODECOPY DUP2 MLOAD SWAP2 MSTORE PUSH1 0x44 DUP3 ADD MSTORE PUSH11 0x1858D95D081D1BC818DD5D PUSH1 0xAA SHL PUSH1 0x64 DUP3 ADD MSTORE PUSH1 0x84 ADD PUSH3 0x2E5 JUMP JUMPDEST PUSH1 0x0 DUP1 MLOAD PUSH1 0x20 PUSH3 0x3060 DUP4 CODECOPY DUP2 MLOAD SWAP2 MSTORE PUSH1 0x1 PUSH1 0x1 PUSH1 0xA0 SHL SUB DUP4 AND ISZERO PUSH3 0x9EF JUMPI PUSH1 0x40 MLOAD PUSH3 0x461BCD PUSH1 0xE5 SHL DUP2 MSTORE PUSH1 0x20 PUSH1 0x4 DUP3 ADD MSTORE PUSH1 0x36 PUSH1 0x24 DUP3 ADD MSTORE PUSH32 0x4C69624469616D6F6E644375743A2052656D6F76652066616365742061646472 PUSH1 0x44 DUP3 ADD MSTORE PUSH32 0x657373206D757374206265206164647265737328302900000000000000000000 PUSH1 0x64 DUP3 ADD MSTORE PUSH1 0x84 ADD PUSH3 0x2E5 JUMP JUMPDEST PUSH1 0x0 JUMPDEST DUP3 MLOAD DUP2 LT ISZERO PUSH3 0xA6A JUMPI PUSH1 0x0 DUP4 DUP3 DUP2 MLOAD DUP2 LT PUSH3 0xA13 JUMPI PUSH3 0xA13 PUSH3 0x13AF JUMP JUMPDEST PUSH1 0x20 SWAP1 DUP2 MUL SWAP2 SWAP1 SWAP2 ADD DUP2 ADD MLOAD PUSH1 0x1 PUSH1 0x1 PUSH1 0xE0 SHL SUB NOT DUP2 AND PUSH1 0x0 SWAP1 DUP2 MSTORE SWAP2 DUP6 SWAP1 MSTORE PUSH1 0x40 SWAP1 SWAP2 KECCAK256 SLOAD SWAP1 SWAP2 POP PUSH1 0x1 PUSH1 0x1 PUSH1 0xA0 SHL SUB AND PUSH3 0xA52 DUP5 DUP3 DUP5 PUSH3 0xCFC JUMP JUMPDEST POP POP DUP1 DUP1 PUSH3 0xA61 SWAP1 PUSH3 0x13F1 JUMP JUMPDEST SWAP2 POP POP PUSH3 0x9F2 JUMP JUMPDEST POP POP POP POP JUMP JUMPDEST PUSH1 0x1 PUSH1 0x1 PUSH1 0xA0 SHL SUB DUP3 AND PUSH3 0xAFA JUMPI DUP1 MLOAD ISZERO PUSH3 0xAF6 JUMPI PUSH1 0x40 MLOAD PUSH3 0x461BCD PUSH1 0xE5 SHL DUP2 MSTORE PUSH1 0x20 PUSH1 0x4 DUP3 ADD MSTORE PUSH1 0x3C PUSH1 0x24 DUP3 ADD MSTORE PUSH32 0x4C69624469616D6F6E644375743A205F696E6974206973206164647265737328 PUSH1 0x44 DUP3 ADD MSTORE PUSH32 0x3029206275745F63616C6C64617461206973206E6F7420656D70747900000000 PUSH1 0x64 DUP3 ADD MSTORE PUSH1 0x84 ADD PUSH3 0x2E5 JUMP JUMPDEST POP POP JUMP JUMPDEST PUSH1 0x0 DUP2 MLOAD GT PUSH3 0xB73 JUMPI PUSH1 0x40 MLOAD PUSH3 0x461BCD PUSH1 0xE5 SHL DUP2 MSTORE PUSH1 0x20 PUSH1 0x4 DUP3 ADD MSTORE PUSH1 0x3D PUSH1 0x24 DUP3 ADD MSTORE PUSH32 0x4C69624469616D6F6E644375743A205F63616C6C6461746120697320656D7074 PUSH1 0x44 DUP3 ADD MSTORE PUSH32 0x7920627574205F696E6974206973206E6F742061646472657373283029000000 PUSH1 0x64 DUP3 ADD MSTORE PUSH1 0x84 ADD PUSH3 0x2E5 JUMP JUMPDEST PUSH1 0x1 PUSH1 0x1 PUSH1 0xA0 SHL SUB DUP3 AND ADDRESS EQ PUSH3 0xBA9 JUMPI PUSH3 0xBA9 DUP3 PUSH1 0x40 MLOAD DUP1 PUSH1 0x60 ADD PUSH1 0x40 MSTORE DUP1 PUSH1 0x28 DUP2 MSTORE PUSH1 0x20 ADD PUSH3 0x3080 PUSH1 0x28 SWAP2 CODECOPY PUSH3 0x10D9 JUMP JUMPDEST PUSH1 0x0 DUP1 DUP4 PUSH1 0x1 PUSH1 0x1 PUSH1 0xA0 SHL SUB AND DUP4 PUSH1 0x40 MLOAD PUSH3 0xBC6 SWAP2 SWAP1 PUSH3 0x159D JUMP JUMPDEST PUSH1 0x0 PUSH1 0x40 MLOAD DUP1 DUP4 SUB DUP2 DUP6 GAS DELEGATECALL SWAP2 POP POP RETURNDATASIZE DUP1 PUSH1 0x0 DUP2 EQ PUSH3 0xC03 JUMPI PUSH1 0x40 MLOAD SWAP2 POP PUSH1 0x1F NOT PUSH1 0x3F RETURNDATASIZE ADD AND DUP3 ADD PUSH1 0x40 MSTORE RETURNDATASIZE DUP3 MSTORE RETURNDATASIZE PUSH1 0x0 PUSH1 0x20 DUP5 ADD RETURNDATACOPY PUSH3 0xC08 JUMP JUMPDEST PUSH1 0x60 SWAP2 POP JUMPDEST POP SWAP2 POP SWAP2 POP DUP2 PUSH3 0xA6A JUMPI DUP1 MLOAD ISZERO PUSH3 0xC37 JUMPI DUP1 PUSH1 0x40 MLOAD PUSH3 0x461BCD PUSH1 0xE5 SHL DUP2 MSTORE PUSH1 0x4 ADD PUSH3 0x2E5 SWAP2 SWAP1 PUSH3 0x15BB JUMP JUMPDEST PUSH1 0x40 MLOAD PUSH3 0x461BCD PUSH1 0xE5 SHL DUP2 MSTORE PUSH1 0x20 PUSH1 0x4 DUP3 ADD MSTORE PUSH1 0x26 PUSH1 0x24 DUP3 ADD MSTORE PUSH32 0x4C69624469616D6F6E644375743A205F696E69742066756E6374696F6E207265 PUSH1 0x44 DUP3 ADD MSTORE PUSH6 0x1D995C9D1959 PUSH1 0xD2 SHL PUSH1 0x64 DUP3 ADD MSTORE PUSH1 0x84 ADD PUSH3 0x2E5 JUMP JUMPDEST PUSH3 0xCB4 DUP2 PUSH1 0x40 MLOAD DUP1 PUSH1 0x60 ADD PUSH1 0x40 MSTORE DUP1 PUSH1 0x24 DUP2 MSTORE PUSH1 0x20 ADD PUSH3 0x30C8 PUSH1 0x24 SWAP2 CODECOPY PUSH3 0x10D9 JUMP JUMPDEST PUSH1 0x2 DUP3 ADD DUP1 SLOAD PUSH1 0x1 PUSH1 0x1 PUSH1 0xA0 SHL SUB SWAP1 SWAP3 AND PUSH1 0x0 DUP2 DUP2 MSTORE PUSH1 0x1 SWAP5 DUP6 ADD PUSH1 0x20 SWAP1 DUP2 MSTORE PUSH1 0x40 DUP3 KECCAK256 DUP7 ADD DUP6 SWAP1 SSTORE SWAP5 DUP5 ADD DUP4 SSTORE SWAP2 DUP3 MSTORE SWAP3 SWAP1 KECCAK256 ADD DUP1 SLOAD PUSH1 0x1 PUSH1 0x1 PUSH1 0xA0 SHL SUB NOT AND SWAP1 SWAP2 OR SWAP1 SSTORE JUMP JUMPDEST PUSH1 0x1 PUSH1 0x1 PUSH1 0xA0 SHL SUB DUP3 AND PUSH3 0xD7A JUMPI PUSH1 0x40 MLOAD PUSH3 0x461BCD PUSH1 0xE5 SHL DUP2 MSTORE PUSH1 0x20 PUSH1 0x4 DUP3 ADD MSTORE PUSH1 0x37 PUSH1 0x24 DUP3 ADD MSTORE PUSH32 0x4C69624469616D6F6E644375743A2043616E27742072656D6F76652066756E63 PUSH1 0x44 DUP3 ADD MSTORE PUSH32 0x74696F6E207468617420646F65736E2774206578697374000000000000000000 PUSH1 0x64 DUP3 ADD MSTORE PUSH1 0x84 ADD PUSH3 0x2E5 JUMP JUMPDEST PUSH1 0x1 PUSH1 0x1 PUSH1 0xA0 SHL SUB DUP3 AND ADDRESS EQ ISZERO PUSH3 0xDEC JUMPI PUSH1 0x40 MLOAD PUSH3 0x461BCD PUSH1 0xE5 SHL DUP2 MSTORE PUSH1 0x20 PUSH1 0x4 DUP3 ADD MSTORE PUSH1 0x2E PUSH1 0x24 DUP3 ADD MSTORE PUSH32 0x4C69624469616D6F6E644375743A2043616E27742072656D6F766520696D6D75 PUSH1 0x44 DUP3 ADD MSTORE PUSH14 0x3A30B1363290333AB731BA34B7B7 PUSH1 0x91 SHL PUSH1 0x64 DUP3 ADD MSTORE PUSH1 0x84 ADD PUSH3 0x2E5 JUMP JUMPDEST PUSH1 0x1 PUSH1 0x1 PUSH1 0xE0 SHL SUB NOT DUP2 AND PUSH1 0x0 SWAP1 DUP2 MSTORE PUSH1 0x20 DUP5 DUP2 MSTORE PUSH1 0x40 DUP1 DUP4 KECCAK256 SLOAD PUSH1 0x1 PUSH1 0x1 PUSH1 0xA0 SHL SUB DUP7 AND DUP5 MSTORE PUSH1 0x1 DUP1 DUP9 ADD SWAP1 SWAP4 MSTORE SWAP1 DUP4 KECCAK256 SLOAD PUSH1 0x1 PUSH1 0xA0 SHL SWAP1 SWAP2 DIV PUSH1 0x1 PUSH1 0x1 PUSH1 0x60 SHL SUB AND SWAP3 SWAP2 PUSH3 0xE3D SWAP2 PUSH3 0x15D7 JUMP JUMPDEST SWAP1 POP DUP1 DUP3 EQ PUSH3 0xF36 JUMPI PUSH1 0x1 PUSH1 0x1 PUSH1 0xA0 SHL SUB DUP5 AND PUSH1 0x0 SWAP1 DUP2 MSTORE PUSH1 0x1 DUP7 ADD PUSH1 0x20 MSTORE PUSH1 0x40 DUP2 KECCAK256 DUP1 SLOAD DUP4 SWAP1 DUP2 LT PUSH3 0xE76 JUMPI PUSH3 0xE76 PUSH3 0x13AF JUMP JUMPDEST PUSH1 0x0 SWAP2 DUP3 MSTORE PUSH1 0x20 DUP1 DUP4 KECCAK256 PUSH1 0x8 DUP4 DIV ADD SLOAD PUSH1 0x1 PUSH1 0x1 PUSH1 0xA0 SHL SUB DUP10 AND DUP5 MSTORE PUSH1 0x1 DUP11 ADD SWAP1 SWAP2 MSTORE PUSH1 0x40 SWAP1 SWAP3 KECCAK256 DUP1 SLOAD PUSH1 0x7 SWAP1 SWAP3 AND PUSH1 0x4 MUL PUSH2 0x100 EXP SWAP1 SWAP3 DIV PUSH1 0xE0 SHL SWAP3 POP DUP3 SWAP2 SWAP1 DUP6 SWAP1 DUP2 LT PUSH3 0xECA JUMPI PUSH3 0xECA PUSH3 0x13AF JUMP JUMPDEST PUSH1 0x0 SWAP2 DUP3 MSTORE PUSH1 0x20 DUP1 DUP4 KECCAK256 PUSH1 0x8 DUP4 DIV ADD DUP1 SLOAD PUSH4 0xFFFFFFFF PUSH1 0x7 SWAP1 SWAP5 AND PUSH1 0x4 MUL PUSH2 0x100 EXP SWAP4 DUP5 MUL NOT AND PUSH1 0xE0 SWAP6 SWAP1 SWAP6 SHR SWAP3 SWAP1 SWAP3 MUL SWAP4 SWAP1 SWAP4 OR SWAP1 SSTORE PUSH1 0x1 PUSH1 0x1 PUSH1 0xE0 SHL SUB NOT SWAP3 SWAP1 SWAP3 AND DUP3 MSTORE DUP7 SWAP1 MSTORE PUSH1 0x40 SWAP1 KECCAK256 DUP1 SLOAD PUSH1 0x1 PUSH1 0x1 PUSH1 0xA0 SHL SUB AND PUSH1 0x1 PUSH1 0xA0 SHL PUSH1 0x1 PUSH1 0x1 PUSH1 0x60 SHL SUB DUP6 AND MUL OR SWAP1 SSTORE JUMPDEST PUSH1 0x1 PUSH1 0x1 PUSH1 0xA0 SHL SUB DUP5 AND PUSH1 0x0 SWAP1 DUP2 MSTORE PUSH1 0x1 DUP7 ADD PUSH1 0x20 MSTORE PUSH1 0x40 SWAP1 KECCAK256 DUP1 SLOAD DUP1 PUSH3 0xF62 JUMPI PUSH3 0xF62 PUSH3 0x15F1 JUMP JUMPDEST PUSH1 0x0 DUP3 DUP2 MSTORE PUSH1 0x20 DUP1 DUP3 KECCAK256 PUSH1 0x8 PUSH1 0x0 NOT SWAP1 SWAP5 ADD SWAP4 DUP5 DIV ADD DUP1 SLOAD PUSH4 0xFFFFFFFF PUSH1 0x4 PUSH1 0x7 DUP8 AND MUL PUSH2 0x100 EXP MUL NOT AND SWAP1 SSTORE SWAP2 SWAP1 SWAP3 SSTORE PUSH1 0x1 PUSH1 0x1 PUSH1 0xE0 SHL SUB NOT DUP6 AND DUP3 MSTORE DUP7 SWAP1 MSTORE PUSH1 0x40 DUP2 KECCAK256 SSTORE DUP1 PUSH3 0x66D JUMPI PUSH1 0x2 DUP6 ADD SLOAD PUSH1 0x0 SWAP1 PUSH3 0xFC4 SWAP1 PUSH1 0x1 SWAP1 PUSH3 0x15D7 JUMP JUMPDEST PUSH1 0x1 PUSH1 0x1 PUSH1 0xA0 SHL SUB DUP7 AND PUSH1 0x0 SWAP1 DUP2 MSTORE PUSH1 0x1 DUP1 DUP10 ADD PUSH1 0x20 MSTORE PUSH1 0x40 SWAP1 SWAP2 KECCAK256 ADD SLOAD SWAP1 SWAP2 POP DUP1 DUP3 EQ PUSH3 0x107A JUMPI PUSH1 0x0 DUP8 PUSH1 0x2 ADD DUP4 DUP2 SLOAD DUP2 LT PUSH3 0x1007 JUMPI PUSH3 0x1007 PUSH3 0x13AF JUMP JUMPDEST PUSH1 0x0 SWAP2 DUP3 MSTORE PUSH1 0x20 SWAP1 SWAP2 KECCAK256 ADD SLOAD PUSH1 0x2 DUP10 ADD DUP1 SLOAD PUSH1 0x1 PUSH1 0x1 PUSH1 0xA0 SHL SUB SWAP1 SWAP3 AND SWAP3 POP DUP3 SWAP2 DUP5 SWAP1 DUP2 LT PUSH3 0x103B JUMPI PUSH3 0x103B PUSH3 0x13AF JUMP JUMPDEST PUSH1 0x0 SWAP2 DUP3 MSTORE PUSH1 0x20 DUP1 DUP4 KECCAK256 SWAP2 SWAP1 SWAP2 ADD DUP1 SLOAD PUSH1 0x1 PUSH1 0x1 PUSH1 0xA0 SHL SUB NOT AND PUSH1 0x1 PUSH1 0x1 PUSH1 0xA0 SHL SUB SWAP5 DUP6 AND OR SWAP1 SSTORE SWAP3 SWAP1 SWAP2 AND DUP2 MSTORE PUSH1 0x1 DUP10 DUP2 ADD SWAP1 SWAP3 MSTORE PUSH1 0x40 SWAP1 KECCAK256 ADD DUP2 SWAP1 SSTORE JUMPDEST DUP7 PUSH1 0x2 ADD DUP1 SLOAD DUP1 PUSH3 0x1090 JUMPI PUSH3 0x1090 PUSH3 0x15F1 JUMP JUMPDEST PUSH1 0x0 DUP3 DUP2 MSTORE PUSH1 0x20 DUP1 DUP3 KECCAK256 DUP4 ADD PUSH1 0x0 NOT SWAP1 DUP2 ADD DUP1 SLOAD PUSH1 0x1 PUSH1 0x1 PUSH1 0xA0 SHL SUB NOT AND SWAP1 SSTORE SWAP1 SWAP3 ADD SWAP1 SWAP3 SSTORE PUSH1 0x1 PUSH1 0x1 PUSH1 0xA0 SHL SUB DUP9 AND DUP3 MSTORE PUSH1 0x1 DUP10 DUP2 ADD SWAP1 SWAP2 MSTORE PUSH1 0x40 DUP3 KECCAK256 ADD SSTORE POP POP POP POP POP POP POP JUMP JUMPDEST DUP2 EXTCODESIZE DUP2 DUP2 PUSH3 0xA6A JUMPI PUSH1 0x40 MLOAD PUSH3 0x461BCD PUSH1 0xE5 SHL DUP2 MSTORE PUSH1 0x4 ADD PUSH3 0x2E5 SWAP2 SWAP1 PUSH3 0x15BB JUMP JUMPDEST PUSH4 0x4E487B71 PUSH1 0xE0 SHL PUSH1 0x0 MSTORE PUSH1 0x41 PUSH1 0x4 MSTORE PUSH1 0x24 PUSH1 0x0 REVERT JUMPDEST PUSH1 0x40 MLOAD PUSH1 0x60 DUP2 ADD PUSH1 0x1 PUSH1 0x1 PUSH1 0x40 SHL SUB DUP2 GT DUP3 DUP3 LT OR ISZERO PUSH3 0x1138 JUMPI PUSH3 0x1138 PUSH3 0x10FD JUMP JUMPDEST PUSH1 0x40 MSTORE SWAP1 JUMP JUMPDEST PUSH1 0x40 MLOAD PUSH1 0x1F DUP3 ADD PUSH1 0x1F NOT AND DUP2 ADD PUSH1 0x1 PUSH1 0x1 PUSH1 0x40 SHL SUB DUP2 GT DUP3 DUP3 LT OR ISZERO PUSH3 0x1169 JUMPI PUSH3 0x1169 PUSH3 0x10FD JUMP JUMPDEST PUSH1 0x40 MSTORE SWAP2 SWAP1 POP JUMP JUMPDEST PUSH1 0x0 PUSH1 0x1 PUSH1 0x1 PUSH1 0x40 SHL SUB DUP3 GT ISZERO PUSH3 0x118D JUMPI PUSH3 0x118D PUSH3 0x10FD JUMP JUMPDEST POP PUSH1 0x5 SHL PUSH1 0x20 ADD SWAP1 JUMP JUMPDEST DUP1 MLOAD PUSH1 0x1 PUSH1 0x1 PUSH1 0xA0 SHL SUB DUP2 AND DUP2 EQ PUSH3 0x11AF JUMPI PUSH1 0x0 DUP1 REVERT JUMPDEST SWAP2 SWAP1 POP JUMP JUMPDEST PUSH1 0x0 PUSH1 0x20 DUP3 DUP5 SUB SLT ISZERO PUSH3 0x11C7 JUMPI PUSH1 0x0 DUP1 REVERT JUMPDEST PUSH1 0x40 MLOAD PUSH1 0x20 DUP2 ADD PUSH1 0x1 PUSH1 0x1 PUSH1 0x40 SHL SUB DUP2 GT DUP3 DUP3 LT OR ISZERO PUSH3 0x11EC JUMPI PUSH3 0x11EC PUSH3 0x10FD JUMP JUMPDEST PUSH1 0x40 MSTORE SWAP1 POP DUP1 PUSH3 0x11FD DUP4 PUSH3 0x1197 JUMP JUMPDEST SWAP1 MSTORE SWAP3 SWAP2 POP POP JUMP JUMPDEST PUSH1 0x0 DUP1 PUSH1 0x40 DUP4 DUP6 SUB SLT ISZERO PUSH3 0x1219 JUMPI PUSH1 0x0 DUP1 REVERT JUMPDEST DUP3 MLOAD PUSH1 0x1 PUSH1 0x1 PUSH1 0x40 SHL SUB DUP1 DUP3 GT ISZERO PUSH3 0x1231 JUMPI PUSH1 0x0 DUP1 REVERT JUMPDEST DUP2 DUP6 ADD SWAP2 POP DUP6 PUSH1 0x1F DUP4 ADD SLT PUSH3 0x1246 JUMPI PUSH1 0x0 DUP1 REVERT JUMPDEST DUP2 MLOAD PUSH1 0x20 PUSH3 0x125F PUSH3 0x1259 DUP4 PUSH3 0x1171 JUMP JUMPDEST PUSH3 0x113E JUMP JUMPDEST DUP3 DUP2 MSTORE PUSH1 0x5 SWAP3 SWAP1 SWAP3 SHL DUP5 ADD DUP2 ADD SWAP2 DUP2 DUP2 ADD SWAP1 DUP10 DUP5 GT ISZERO PUSH3 0x127F JUMPI PUSH1 0x0 DUP1 REVERT JUMPDEST DUP3 DUP7 ADD JUMPDEST DUP5 DUP2 LT ISZERO PUSH3 0x138F JUMPI DUP1 MLOAD DUP7 DUP2 GT ISZERO PUSH3 0x129C JUMPI PUSH1 0x0 DUP1 REVERT JUMPDEST DUP8 ADD PUSH1 0x60 DUP2 DUP14 SUB PUSH1 0x1F NOT ADD SLT ISZERO PUSH3 0x12B3 JUMPI PUSH1 0x0 DUP1 REVERT JUMPDEST PUSH3 0x12BD PUSH3 0x1113 JUMP JUMPDEST PUSH3 0x12CA DUP7 DUP4 ADD PUSH3 0x1197 JUMP JUMPDEST DUP2 MSTORE PUSH1 0x40 DUP3 ADD MLOAD PUSH1 0x3 DUP2 LT PUSH3 0x12DF JUMPI PUSH1 0x0 DUP1 REVERT JUMPDEST DUP2 DUP8 ADD MSTORE PUSH1 0x60 DUP3 ADD MLOAD DUP9 DUP2 GT ISZERO PUSH3 0x12F6 JUMPI PUSH1 0x0 DUP1 REVERT JUMPDEST DUP1 DUP4 ADD SWAP3 POP POP DUP13 PUSH1 0x3F DUP4 ADD SLT PUSH3 0x130C JUMPI PUSH1 0x0 DUP1 REVERT JUMPDEST DUP6 DUP3 ADD MLOAD PUSH3 0x131F PUSH3 0x1259 DUP3 PUSH3 0x1171 JUMP JUMPDEST DUP2 DUP2 MSTORE PUSH1 0x5 SWAP2 SWAP1 SWAP2 SHL DUP4 ADD PUSH1 0x40 ADD SWAP1 DUP8 DUP2 ADD SWAP1 DUP16 DUP4 GT ISZERO PUSH3 0x1340 JUMPI PUSH1 0x0 DUP1 REVERT JUMPDEST PUSH1 0x40 DUP6 ADD SWAP5 POP JUMPDEST DUP3 DUP6 LT ISZERO PUSH3 0x1379 JUMPI DUP5 MLOAD PUSH1 0x1 PUSH1 0x1 PUSH1 0xE0 SHL SUB NOT DUP2 AND DUP2 EQ PUSH3 0x1369 JUMPI PUSH1 0x0 DUP1 REVERT JUMPDEST DUP3 MSTORE SWAP4 DUP9 ADD SWAP4 SWAP1 DUP9 ADD SWAP1 PUSH3 0x1347 JUMP JUMPDEST PUSH1 0x40 DUP5 ADD MSTORE POP POP DUP5 MSTORE POP SWAP2 DUP4 ADD SWAP2 DUP4 ADD PUSH3 0x1283 JUMP JUMPDEST POP SWAP7 POP PUSH3 0x13A2 SWAP1 POP DUP9 DUP9 DUP4 ADD PUSH3 0x11B4 JUMP JUMPDEST SWAP5 POP POP POP POP POP SWAP3 POP SWAP3 SWAP1 POP JUMP JUMPDEST PUSH4 0x4E487B71 PUSH1 0xE0 SHL PUSH1 0x0 MSTORE PUSH1 0x32 PUSH1 0x4 MSTORE PUSH1 0x24 PUSH1 0x0 REVERT JUMPDEST PUSH4 0x4E487B71 PUSH1 0xE0 SHL PUSH1 0x0 MSTORE PUSH1 0x21 PUSH1 0x4 MSTORE PUSH1 0x24 PUSH1 0x0 REVERT JUMPDEST PUSH4 0x4E487B71 PUSH1 0xE0 SHL PUSH1 0x0 MSTORE PUSH1 0x11 PUSH1 0x4 MSTORE PUSH1 0x24 PUSH1 0x0 REVERT JUMPDEST PUSH1 0x0 PUSH1 0x0 NOT DUP3 EQ ISZERO PUSH3 0x1408 JUMPI PUSH3 0x1408 PUSH3 0x13DB JUMP JUMPDEST POP PUSH1 0x1 ADD SWAP1 JUMP JUMPDEST PUSH1 0x0 JUMPDEST DUP4 DUP2 LT ISZERO PUSH3 0x142C JUMPI DUP2 DUP2 ADD MLOAD DUP4 DUP3 ADD MSTORE PUSH1 0x20 ADD PUSH3 0x1412 JUMP JUMPDEST DUP4 DUP2 GT ISZERO PUSH3 0xA6A JUMPI POP POP PUSH1 0x0 SWAP2 ADD MSTORE JUMP JUMPDEST PUSH1 0x0 DUP2 MLOAD DUP1 DUP5 MSTORE PUSH3 0x1458 DUP2 PUSH1 0x20 DUP7 ADD PUSH1 0x20 DUP7 ADD PUSH3 0x140F JUMP JUMPDEST PUSH1 0x1F ADD PUSH1 0x1F NOT AND SWAP3 SWAP1 SWAP3 ADD PUSH1 0x20 ADD SWAP3 SWAP2 POP POP JUMP JUMPDEST PUSH1 0x0 PUSH1 0x60 DUP1 DUP4 ADD DUP2 DUP5 MSTORE DUP1 DUP8 MLOAD DUP1 DUP4 MSTORE PUSH1 0x80 SWAP3 POP DUP3 DUP7 ADD SWAP2 POP DUP3 DUP2 PUSH1 0x5 SHL DUP8 ADD ADD PUSH1 0x20 DUP1 DUP12 ADD PUSH1 0x0 JUMPDEST DUP5 DUP2 LT ISZERO PUSH3 0x1541 JUMPI DUP10 DUP5 SUB PUSH1 0x7F NOT ADD DUP7 MSTORE DUP2 MLOAD DUP1 MLOAD PUSH1 0x1 PUSH1 0x1 PUSH1 0xA0 SHL SUB AND DUP6 MSTORE DUP4 DUP2 ADD MLOAD DUP10 DUP7 ADD SWAP1 PUSH1 0x3 DUP2 LT PUSH3 0x14DD JUMPI PUSH4 0x4E487B71 PUSH1 0xE0 SHL PUSH1 0x0 MSTORE PUSH1 0x21 PUSH1 0x4 MSTORE PUSH1 0x24 PUSH1 0x0 REVERT JUMPDEST DUP7 DUP7 ADD MSTORE PUSH1 0x40 SWAP2 DUP3 ADD MLOAD SWAP2 DUP7 ADD DUP11 SWAP1 MSTORE DUP2 MLOAD SWAP1 DUP2 SWAP1 MSTORE SWAP1 DUP5 ADD SWAP1 PUSH1 0x0 SWAP1 DUP10 DUP8 ADD SWAP1 JUMPDEST DUP1 DUP4 LT ISZERO PUSH3 0x152B JUMPI DUP4 MLOAD PUSH1 0x1 PUSH1 0x1 PUSH1 0xE0 SHL SUB NOT AND DUP3 MSTORE SWAP3 DUP7 ADD SWAP3 PUSH1 0x1 SWAP3 SWAP1 SWAP3 ADD SWAP2 SWAP1 DUP7 ADD SWAP1 PUSH3 0x14FF JUMP JUMPDEST POP SWAP8 DUP6 ADD SWAP8 SWAP6 POP POP POP SWAP1 DUP3 ADD SWAP1 PUSH1 0x1 ADD PUSH3 0x1495 JUMP JUMPDEST POP POP PUSH1 0x1 PUSH1 0x1 PUSH1 0xA0 SHL SUB DUP11 AND SWAP1 DUP9 ADD MSTORE DUP7 DUP2 SUB PUSH1 0x40 DUP9 ADD MSTORE PUSH3 0x1565 DUP2 DUP10 PUSH3 0x143E JUMP JUMPDEST SWAP11 SWAP10 POP POP POP POP POP POP POP POP POP POP JUMP JUMPDEST PUSH1 0x0 PUSH1 0x1 PUSH1 0x1 PUSH1 0x60 SHL SUB DUP3 DUP2 AND DUP1 DUP3 EQ ISZERO PUSH3 0x1593 JUMPI PUSH3 0x1593 PUSH3 0x13DB JUMP JUMPDEST PUSH1 0x1 ADD SWAP4 SWAP3 POP POP POP JUMP JUMPDEST PUSH1 0x0 DUP3 MLOAD PUSH3 0x15B1 DUP2 DUP5 PUSH1 0x20 DUP8 ADD PUSH3 0x140F JUMP JUMPDEST SWAP2 SWAP1 SWAP2 ADD SWAP3 SWAP2 POP POP JUMP JUMPDEST PUSH1 0x20 DUP2 MSTORE PUSH1 0x0 PUSH3 0x15D0 PUSH1 0x20 DUP4 ADD DUP5 PUSH3 0x143E JUMP JUMPDEST SWAP4 SWAP3 POP POP POP JUMP JUMPDEST PUSH1 0x0 DUP3 DUP3 LT ISZERO PUSH3 0x15EC JUMPI PUSH3 0x15EC PUSH3 0x13DB JUMP JUMPDEST POP SUB SWAP1 JUMP JUMPDEST PUSH4 0x4E487B71 PUSH1 0xE0 SHL PUSH1 0x0 MSTORE PUSH1 0x31 PUSH1 0x4 MSTORE PUSH1 0x24 PUSH1 0x0 REVERT JUMPDEST PUSH2 0x1A49 DUP1 PUSH3 0x1617 PUSH1 0x0 CODECOPY PUSH1 0x0 RETURN INVALID PUSH1 0x80 PUSH1 0x40 MSTORE CALLDATASIZE PUSH2 0xB JUMPI STOP JUMPDEST PUSH1 0x0 DUP1 CALLDATALOAD PUSH32 0xFFFFFFFF00000000000000000000000000000000000000000000000000000000 AND DUP2 MSTORE PUSH32 0xC8FCAD8DB84D3CC18B4C41D551EA0EE66DD599CDE068D998E57D5E09332C131C PUSH1 0x20 DUP2 SWAP1 MSTORE PUSH1 0x40 SWAP1 SWAP2 KECCAK256 SLOAD DUP2 SWAP1 PUSH20 0xFFFFFFFFFFFFFFFFFFFFFFFFFFFFFFFFFFFFFFFF AND DUP1 PUSH2 0xE3 JUMPI PUSH1 0x40 MLOAD PUSH32 0x8C379A000000000000000000000000000000000000000000000000000000000 DUP2 MSTORE PUSH1 0x20 PUSH1 0x4 DUP3 ADD DUP2 SWAP1 MSTORE PUSH1 0x24 DUP3 ADD MSTORE PUSH32 0x4469616D6F6E643A2046756E6374696F6E20646F6573206E6F74206578697374 PUSH1 0x44 DUP3 ADD MSTORE PUSH1 0x64 ADD JUMPDEST PUSH1 0x40 MLOAD DUP1 SWAP2 SUB SWAP1 REVERT JUMPDEST CALLDATASIZE PUSH1 0x0 DUP1 CALLDATACOPY PUSH1 0x0 DUP1 CALLDATASIZE PUSH1 0x0 DUP5 GAS DELEGATECALL RETURNDATASIZE PUSH1 0x0 DUP1 RETURNDATACOPY DUP1 DUP1 ISZERO PUSH2 0x102 JUMPI RETURNDATASIZE PUSH1 0x0 RETURN JUMPDEST RETURNDATASIZE PUSH1 0x0 REVERT JUMPDEST PUSH1 0x0 JUMPDEST DUP4 MLOAD DUP2 LT ISZERO PUSH2 0x300 JUMPI PUSH1 0x0 DUP5 DUP3 DUP2 MLOAD DUP2 LT PUSH2 0x127 JUMPI PUSH2 0x127 PUSH2 0x167B JUMP JUMPDEST PUSH1 0x20 MUL PUSH1 0x20 ADD ADD MLOAD PUSH1 0x20 ADD MLOAD SWAP1 POP PUSH1 0x0 PUSH1 0x2 DUP2 GT ISZERO PUSH2 0x148 JUMPI PUSH2 0x148 PUSH2 0x16AA JUMP JUMPDEST DUP2 PUSH1 0x2 DUP2 GT ISZERO PUSH2 0x15A JUMPI PUSH2 0x15A PUSH2 0x16AA JUMP JUMPDEST EQ ISZERO PUSH2 0x1A9 JUMPI PUSH2 0x1A4 DUP6 DUP4 DUP2 MLOAD DUP2 LT PUSH2 0x175 JUMPI PUSH2 0x175 PUSH2 0x167B JUMP JUMPDEST PUSH1 0x20 MUL PUSH1 0x20 ADD ADD MLOAD PUSH1 0x0 ADD MLOAD DUP7 DUP5 DUP2 MLOAD DUP2 LT PUSH2 0x193 JUMPI PUSH2 0x193 PUSH2 0x167B JUMP JUMPDEST PUSH1 0x20 MUL PUSH1 0x20 ADD ADD MLOAD PUSH1 0x40 ADD MLOAD PUSH2 0x429 JUMP JUMPDEST PUSH2 0x2ED JUMP JUMPDEST PUSH1 0x1 DUP2 PUSH1 0x2 DUP2 GT ISZERO PUSH2 0x1BD JUMPI PUSH2 0x1BD PUSH2 0x16AA JUMP JUMPDEST EQ ISZERO PUSH2 0x207 JUMPI PUSH2 0x1A4 DUP6 DUP4 DUP2 MLOAD DUP2 LT PUSH2 0x1D8 JUMPI PUSH2 0x1D8 PUSH2 0x167B JUMP JUMPDEST PUSH1 0x20 MUL PUSH1 0x20 ADD ADD MLOAD PUSH1 0x0 ADD MLOAD DUP7 DUP5 DUP2 MLOAD DUP2 LT PUSH2 0x1F6 JUMPI PUSH2 0x1F6 PUSH2 0x167B JUMP JUMPDEST PUSH1 0x20 MUL PUSH1 0x20 ADD ADD MLOAD PUSH1 0x40 ADD MLOAD PUSH2 0x7DC JUMP JUMPDEST PUSH1 0x2 DUP2 PUSH1 0x2 DUP2 GT ISZERO PUSH2 0x21B JUMPI PUSH2 0x21B PUSH2 0x16AA JUMP JUMPDEST EQ ISZERO PUSH2 0x265 JUMPI PUSH2 0x1A4 DUP6 DUP4 DUP2 MLOAD DUP2 LT PUSH2 0x236 JUMPI PUSH2 0x236 PUSH2 0x167B JUMP JUMPDEST PUSH1 0x20 MUL PUSH1 0x20 ADD ADD MLOAD PUSH1 0x0 ADD MLOAD DUP7 DUP5 DUP2 MLOAD DUP2 LT PUSH2 0x254 JUMPI PUSH2 0x254 PUSH2 0x167B JUMP JUMPDEST PUSH1 0x20 MUL PUSH1 0x20 ADD ADD MLOAD PUSH1 0x40 ADD MLOAD PUSH2 0xB99 JUMP JUMPDEST PUSH1 0x40 MLOAD PUSH32 0x8C379A000000000000000000000000000000000000000000000000000000000 DUP2 MSTORE PUSH1 0x20 PUSH1 0x4 DUP3 ADD MSTORE PUSH1 0x27 PUSH1 0x24 DUP3 ADD MSTORE PUSH32 0x4C69624469616D6F6E644375743A20496E636F72726563742046616365744375 PUSH1 0x44 DUP3 ADD MSTORE PUSH32 0x74416374696F6E00000000000000000000000000000000000000000000000000 PUSH1 0x64 DUP3 ADD MSTORE PUSH1 0x84 ADD PUSH2 0xDA JUMP JUMPDEST POP DUP1 PUSH2 0x2F8 DUP2 PUSH2 0x1708 JUMP JUMPDEST SWAP2 POP POP PUSH2 0x10A JUMP JUMPDEST POP PUSH32 0x8FAA70878671CCD212D20771B795C50AF8FD3FF6CF27F4BDE57E5D4DE0AEB673 DUP4 DUP4 DUP4 PUSH1 0x40 MLOAD PUSH2 0x334 SWAP4 SWAP3 SWAP2 SWAP1 PUSH2 0x17B7 JUMP JUMPDEST PUSH1 0x40 MLOAD DUP1 SWAP2 SUB SWAP1 LOG1 PUSH2 0x346 DUP3 DUP3 PUSH2 0xD8C JUMP JUMPDEST POP POP POP JUMP JUMPDEST PUSH32 0xC8FCAD8DB84D3CC18B4C41D551EA0EE66DD599CDE068D998E57D5E09332C1320 DUP1 SLOAD PUSH32 0xFFFFFFFFFFFFFFFFFFFFFFFF0000000000000000000000000000000000000000 DUP2 AND PUSH20 0xFFFFFFFFFFFFFFFFFFFFFFFFFFFFFFFFFFFFFFFF DUP5 DUP2 AND SWAP2 DUP3 OR SWAP1 SWAP4 SSTORE PUSH1 0x40 MLOAD PUSH32 0xC8FCAD8DB84D3CC18B4C41D551EA0EE66DD599CDE068D998E57D5E09332C131C SWAP4 SWAP1 SWAP3 AND SWAP2 DUP3 SWAP1 PUSH32 0x8BE0079C531659141344CD1FD0A4F28419497F9722A3DAAFE3B4186F6B6457E0 SWAP1 PUSH1 0x0 SWAP1 LOG3 POP POP POP JUMP JUMPDEST PUSH32 0xC8FCAD8DB84D3CC18B4C41D551EA0EE66DD599CDE068D998E57D5E09332C131C SWAP1 JUMP JUMPDEST PUSH1 0x0 DUP2 MLOAD GT PUSH2 0x4BA JUMPI PUSH1 0x40 MLOAD PUSH32 0x8C379A000000000000000000000000000000000000000000000000000000000 DUP2 MSTORE PUSH1 0x20 PUSH1 0x4 DUP3 ADD MSTORE PUSH1 0x2B PUSH1 0x24 DUP3 ADD MSTORE PUSH32 0x4C69624469616D6F6E644375743A204E6F2073656C6563746F727320696E2066 PUSH1 0x44 DUP3 ADD MSTORE PUSH32 0x6163657420746F20637574000000000000000000000000000000000000000000 PUSH1 0x64 DUP3 ADD MSTORE PUSH1 0x84 ADD PUSH2 0xDA JUMP JUMPDEST PUSH32 0xC8FCAD8DB84D3CC18B4C41D551EA0EE66DD599CDE068D998E57D5E09332C131C PUSH20 0xFFFFFFFFFFFFFFFFFFFFFFFFFFFFFFFFFFFFFFFF DUP4 AND PUSH2 0x57E JUMPI PUSH1 0x40 MLOAD PUSH32 0x8C379A000000000000000000000000000000000000000000000000000000000 DUP2 MSTORE PUSH1 0x20 PUSH1 0x4 DUP3 ADD MSTORE PUSH1 0x2C PUSH1 0x24 DUP3 ADD MSTORE PUSH32 0x4C69624469616D6F6E644375743A204164642066616365742063616E27742062 PUSH1 0x44 DUP3 ADD MSTORE PUSH32 0x6520616464726573732830290000000000000000000000000000000000000000 PUSH1 0x64 DUP3 ADD MSTORE PUSH1 0x84 ADD PUSH2 0xDA JUMP JUMPDEST PUSH20 0xFFFFFFFFFFFFFFFFFFFFFFFFFFFFFFFFFFFFFFFF DUP4 AND PUSH1 0x0 SWAP1 DUP2 MSTORE PUSH1 0x1 DUP3 ADD PUSH1 0x20 MSTORE PUSH1 0x40 SWAP1 KECCAK256 SLOAD PUSH12 0xFFFFFFFFFFFFFFFFFFFFFFFF DUP2 AND PUSH2 0x5C3 JUMPI PUSH2 0x5C3 DUP3 DUP6 PUSH2 0x103F JUMP JUMPDEST PUSH1 0x0 JUMPDEST DUP4 MLOAD DUP2 LT ISZERO PUSH2 0x7D5 JUMPI PUSH1 0x0 DUP5 DUP3 DUP2 MLOAD DUP2 LT PUSH2 0x5E3 JUMPI PUSH2 0x5E3 PUSH2 0x167B JUMP JUMPDEST PUSH1 0x20 SWAP1 DUP2 MUL SWAP2 SWAP1 SWAP2 ADD DUP2 ADD MLOAD PUSH32 0xFFFFFFFF00000000000000000000000000000000000000000000000000000000 DUP2 AND PUSH1 0x0 SWAP1 DUP2 MSTORE SWAP2 DUP7 SWAP1 MSTORE PUSH1 0x40 SWAP1 SWAP2 KECCAK256 SLOAD SWAP1 SWAP2 POP PUSH20 0xFFFFFFFFFFFFFFFFFFFFFFFFFFFFFFFFFFFFFFFF AND DUP1 ISZERO PUSH2 0x6C8 JUMPI PUSH1 0x40 MLOAD PUSH32 0x8C379A000000000000000000000000000000000000000000000000000000000 DUP2 MSTORE PUSH1 0x20 PUSH1 0x4 DUP3 ADD MSTORE PUSH1 0x35 PUSH1 0x24 DUP3 ADD MSTORE PUSH32 0x4C69624469616D6F6E644375743A2043616E2774206164642066756E6374696F PUSH1 0x44 DUP3 ADD MSTORE PUSH32 0x6E207468617420616C7265616479206578697374730000000000000000000000 PUSH1 0x64 DUP3 ADD MSTORE PUSH1 0x84 ADD PUSH2 0xDA JUMP JUMPDEST PUSH32 0xFFFFFFFF00000000000000000000000000000000000000000000000000000000 DUP3 AND PUSH1 0x0 DUP2 DUP2 MSTORE PUSH1 0x20 DUP8 DUP2 MSTORE PUSH1 0x40 DUP1 DUP4 KECCAK256 DUP1 SLOAD PUSH20 0xFFFFFFFFFFFFFFFFFFFFFFFFFFFFFFFFFFFFFFFF SWAP1 DUP2 AND PUSH21 0x10000000000000000000000000000000000000000 PUSH12 0xFFFFFFFFFFFFFFFFFFFFFFFF DUP13 AND MUL OR DUP3 SSTORE DUP13 AND DUP1 DUP6 MSTORE PUSH1 0x1 DUP1 DUP13 ADD DUP6 MSTORE SWAP3 DUP6 KECCAK256 DUP1 SLOAD SWAP4 DUP5 ADD DUP2 SSTORE DUP6 MSTORE DUP4 DUP6 KECCAK256 PUSH1 0x8 DUP5 DIV ADD DUP1 SLOAD PUSH4 0xFFFFFFFF PUSH1 0x7 SWAP1 SWAP6 AND PUSH1 0x4 MUL PUSH2 0x100 EXP SWAP5 DUP6 MUL NOT AND PUSH1 0xE0 DUP11 SWAP1 SHR SWAP5 SWAP1 SWAP5 MUL SWAP4 SWAP1 SWAP4 OR SWAP1 SWAP3 SSTORE SWAP4 SWAP1 SWAP3 MSTORE DUP8 SWAP1 MSTORE DUP2 SLOAD PUSH32 0xFFFFFFFFFFFFFFFFFFFFFFFF0000000000000000000000000000000000000000 AND OR SWAP1 SSTORE DUP4 PUSH2 0x7BD DUP2 PUSH2 0x191F JUMP JUMPDEST SWAP5 POP POP POP POP DUP1 DUP1 PUSH2 0x7CD SWAP1 PUSH2 0x1708 JUMP JUMPDEST SWAP2 POP POP PUSH2 0x5C6 JUMP JUMPDEST POP POP POP POP POP JUMP JUMPDEST PUSH1 0x0 DUP2 MLOAD GT PUSH2 0x86D JUMPI PUSH1 0x40 MLOAD PUSH32 0x8C379A000000000000000000000000000000000000000000000000000000000 DUP2 MSTORE PUSH1 0x20 PUSH1 0x4 DUP3 ADD MSTORE PUSH1 0x2B PUSH1 0x24 DUP3 ADD MSTORE PUSH32 0x4C69624469616D6F6E644375743A204E6F2073656C6563746F727320696E2066 PUSH1 0x44 DUP3 ADD MSTORE PUSH32 0x6163657420746F20637574000000000000000000000000000000000000000000 PUSH1 0x64 DUP3 ADD MSTORE PUSH1 0x84 ADD PUSH2 0xDA JUMP JUMPDEST PUSH32 0xC8FCAD8DB84D3CC18B4C41D551EA0EE66DD599CDE068D998E57D5E09332C131C PUSH20 0xFFFFFFFFFFFFFFFFFFFFFFFFFFFFFFFFFFFFFFFF DUP4 AND PUSH2 0x931 JUMPI PUSH1 0x40 MLOAD PUSH32 0x8C379A000000000000000000000000000000000000000000000000000000000 DUP2 MSTORE PUSH1 0x20 PUSH1 0x4 DUP3 ADD MSTORE PUSH1 0x2C PUSH1 0x24 DUP3 ADD MSTORE PUSH32 0x4C69624469616D6F6E644375743A204164642066616365742063616E27742062 PUSH1 0x44 DUP3 ADD MSTORE PUSH32 0x6520616464726573732830290000000000000000000000000000000000000000 PUSH1 0x64 DUP3 ADD MSTORE PUSH1 0x84 ADD PUSH2 0xDA JUMP JUMPDEST PUSH20 0xFFFFFFFFFFFFFFFFFFFFFFFFFFFFFFFFFFFFFFFF DUP4 AND PUSH1 0x0 SWAP1 DUP2 MSTORE PUSH1 0x1 DUP3 ADD PUSH1 0x20 MSTORE PUSH1 0x40 SWAP1 KECCAK256 SLOAD PUSH12 0xFFFFFFFFFFFFFFFFFFFFFFFF DUP2 AND PUSH2 0x976 JUMPI PUSH2 0x976 DUP3 DUP6 PUSH2 0x103F JUMP JUMPDEST PUSH1 0x0 JUMPDEST DUP4 MLOAD DUP2 LT ISZERO PUSH2 0x7D5 JUMPI PUSH1 0x0 DUP5 DUP3 DUP2 MLOAD DUP2 LT PUSH2 0x996 JUMPI PUSH2 0x996 PUSH2 0x167B JUMP JUMPDEST PUSH1 0x20 SWAP1 DUP2 MUL SWAP2 SWAP1 SWAP2 ADD DUP2 ADD MLOAD PUSH32 0xFFFFFFFF00000000000000000000000000000000000000000000000000000000 DUP2 AND PUSH1 0x0 SWAP1 DUP2 MSTORE SWAP2 DUP7 SWAP1 MSTORE PUSH1 0x40 SWAP1 SWAP2 KECCAK256 SLOAD SWAP1 SWAP2 POP PUSH20 0xFFFFFFFFFFFFFFFFFFFFFFFFFFFFFFFFFFFFFFFF SWAP1 DUP2 AND SWAP1 DUP8 AND DUP2 EQ ISZERO PUSH2 0xA81 JUMPI PUSH1 0x40 MLOAD PUSH32 0x8C379A000000000000000000000000000000000000000000000000000000000 DUP2 MSTORE PUSH1 0x20 PUSH1 0x4 DUP3 ADD MSTORE PUSH1 0x38 PUSH1 0x24 DUP3 ADD MSTORE PUSH32 0x4C69624469616D6F6E644375743A2043616E2774207265706C6163652066756E PUSH1 0x44 DUP3 ADD MSTORE PUSH32 0x6374696F6E20776974682073616D652066756E6374696F6E0000000000000000 PUSH1 0x64 DUP3 ADD MSTORE PUSH1 0x84 ADD PUSH2 0xDA JUMP JUMPDEST PUSH2 0xA8C DUP6 DUP3 DUP5 PUSH2 0x10CE JUMP JUMPDEST PUSH32 0xFFFFFFFF00000000000000000000000000000000000000000000000000000000 DUP3 AND PUSH1 0x0 DUP2 DUP2 MSTORE PUSH1 0x20 DUP8 DUP2 MSTORE PUSH1 0x40 DUP1 DUP4 KECCAK256 DUP1 SLOAD PUSH20 0xFFFFFFFFFFFFFFFFFFFFFFFFFFFFFFFFFFFFFFFF SWAP1 DUP2 AND PUSH21 0x10000000000000000000000000000000000000000 PUSH12 0xFFFFFFFFFFFFFFFFFFFFFFFF DUP13 AND MUL OR DUP3 SSTORE DUP13 AND DUP1 DUP6 MSTORE PUSH1 0x1 DUP1 DUP13 ADD DUP6 MSTORE SWAP3 DUP6 KECCAK256 DUP1 SLOAD SWAP4 DUP5 ADD DUP2 SSTORE DUP6 MSTORE DUP4 DUP6 KECCAK256 PUSH1 0x8 DUP5 DIV ADD DUP1 SLOAD PUSH4 0xFFFFFFFF PUSH1 0x7 SWAP1 SWAP6 AND PUSH1 0x4 MUL PUSH2 0x100 EXP SWAP5 DUP6 MUL NOT AND PUSH1 0xE0 DUP11 SWAP1 SHR SWAP5 SWAP1 SWAP5 MUL SWAP4 SWAP1 SWAP4 OR SWAP1 SWAP3 SSTORE SWAP4 SWAP1 SWAP3 MSTORE DUP8 SWAP1 MSTORE DUP2 SLOAD PUSH32 0xFFFFFFFFFFFFFFFFFFFFFFFF0000000000000000000000000000000000000000 AND OR SWAP1 SSTORE DUP4 PUSH2 0xB81 DUP2 PUSH2 0x191F JUMP JUMPDEST SWAP5 POP POP POP POP DUP1 DUP1 PUSH2 0xB91 SWAP1 PUSH2 0x1708 JUMP JUMPDEST SWAP2 POP POP PUSH2 0x979 JUMP JUMPDEST PUSH1 0x0 DUP2 MLOAD GT PUSH2 0xC2A JUMPI PUSH1 0x40 MLOAD PUSH32 0x8C379A000000000000000000000000000000000000000000000000000000000 DUP2 MSTORE PUSH1 0x20 PUSH1 0x4 DUP3 ADD MSTORE PUSH1 0x2B PUSH1 0x24 DUP3 ADD MSTORE PUSH32 0x4C69624469616D6F6E644375743A204E6F2073656C6563746F727320696E2066 PUSH1 0x44 DUP3 ADD MSTORE PUSH32 0x6163657420746F20637574000000000000000000000000000000000000000000 PUSH1 0x64 DUP3 ADD MSTORE PUSH1 0x84 ADD PUSH2 0xDA JUMP JUMPDEST PUSH32 0xC8FCAD8DB84D3CC18B4C41D551EA0EE66DD599CDE068D998E57D5E09332C131C PUSH20 0xFFFFFFFFFFFFFFFFFFFFFFFFFFFFFFFFFFFFFFFF DUP4 AND ISZERO PUSH2 0xCEF JUMPI PUSH1 0x40 MLOAD PUSH32 0x8C379A000000000000000000000000000000000000000000000000000000000 DUP2 MSTORE PUSH1 0x20 PUSH1 0x4 DUP3 ADD MSTORE PUSH1 0x36 PUSH1 0x24 DUP3 ADD MSTORE PUSH32 0x4C69624469616D6F6E644375743A2052656D6F76652066616365742061646472 PUSH1 0x44 DUP3 ADD MSTORE PUSH32 0x657373206D757374206265206164647265737328302900000000000000000000 PUSH1 0x64 DUP3 ADD MSTORE PUSH1 0x84 ADD PUSH2 0xDA JUMP JUMPDEST PUSH1 0x0 JUMPDEST DUP3 MLOAD DUP2 LT ISZERO PUSH2 0xD86 JUMPI PUSH1 0x0 DUP4 DUP3 DUP2 MLOAD DUP2 LT PUSH2 0xD0F JUMPI PUSH2 0xD0F PUSH2 0x167B JUMP JUMPDEST PUSH1 0x20 SWAP1 DUP2 MUL SWAP2 SWAP1 SWAP2 ADD DUP2 ADD MLOAD PUSH32 0xFFFFFFFF00000000000000000000000000000000000000000000000000000000 DUP2 AND PUSH1 0x0 SWAP1 DUP2 MSTORE SWAP2 DUP6 SWAP1 MSTORE PUSH1 0x40 SWAP1 SWAP2 KECCAK256 SLOAD SWAP1 SWAP2 POP PUSH20 0xFFFFFFFFFFFFFFFFFFFFFFFFFFFFFFFFFFFFFFFF AND PUSH2 0xD71 DUP5 DUP3 DUP5 PUSH2 0x10CE JUMP JUMPDEST POP POP DUP1 DUP1 PUSH2 0xD7E SWAP1 PUSH2 0x1708 JUMP JUMPDEST SWAP2 POP POP PUSH2 0xCF2 JUMP JUMPDEST POP POP POP POP JUMP JUMPDEST PUSH20 0xFFFFFFFFFFFFFFFFFFFFFFFFFFFFFFFFFFFFFFFF DUP3 AND PUSH2 0xE3A JUMPI DUP1 MLOAD ISZERO PUSH2 0xE36 JUMPI PUSH1 0x40 MLOAD PUSH32 0x8C379A000000000000000000000000000000000000000000000000000000000 DUP2 MSTORE PUSH1 0x20 PUSH1 0x4 DUP3 ADD MSTORE PUSH1 0x3C PUSH1 0x24 DUP3 ADD MSTORE PUSH32 0x4C69624469616D6F6E644375743A205F696E6974206973206164647265737328 PUSH1 0x44 DUP3 ADD MSTORE PUSH32 0x3029206275745F63616C6C64617461206973206E6F7420656D70747900000000 PUSH1 0x64 DUP3 ADD MSTORE PUSH1 0x84 ADD PUSH2 0xDA JUMP JUMPDEST POP POP JUMP JUMPDEST PUSH1 0x0 DUP2 MLOAD GT PUSH2 0xECB JUMPI PUSH1 0x40 MLOAD PUSH32 0x8C379A000000000000000000000000000000000000000000000000000000000 DUP2 MSTORE PUSH1 0x20 PUSH1 0x4 DUP3 ADD MSTORE PUSH1 0x3D PUSH1 0x24 DUP3 ADD MSTORE PUSH32 0x4C69624469616D6F6E644375743A205F63616C6C6461746120697320656D7074 PUSH1 0x44 DUP3 ADD MSTORE PUSH32 0x7920627574205F696E6974206973206E6F742061646472657373283029000000 PUSH1 0x64 DUP3 ADD MSTORE PUSH1 0x84 ADD PUSH2 0xDA JUMP JUMPDEST PUSH20 0xFFFFFFFFFFFFFFFFFFFFFFFFFFFFFFFFFFFFFFFF DUP3 AND ADDRESS EQ PUSH2 0xF0A JUMPI PUSH2 0xF0A DUP3 PUSH1 0x40 MLOAD DUP1 PUSH1 0x60 ADD PUSH1 0x40 MSTORE DUP1 PUSH1 0x28 DUP2 MSTORE PUSH1 0x20 ADD PUSH2 0x19C8 PUSH1 0x28 SWAP2 CODECOPY PUSH2 0x1640 JUMP JUMPDEST PUSH1 0x0 DUP1 DUP4 PUSH20 0xFFFFFFFFFFFFFFFFFFFFFFFFFFFFFFFFFFFFFFFF AND DUP4 PUSH1 0x40 MLOAD PUSH2 0xF32 SWAP2 SWAP1 PUSH2 0x194B JUMP JUMPDEST PUSH1 0x0 PUSH1 0x40 MLOAD DUP1 DUP4 SUB DUP2 DUP6 GAS DELEGATECALL SWAP2 POP POP RETURNDATASIZE DUP1 PUSH1 0x0 DUP2 EQ PUSH2 0xF6D JUMPI PUSH1 0x40 MLOAD SWAP2 POP PUSH1 0x1F NOT PUSH1 0x3F RETURNDATASIZE ADD AND DUP3 ADD PUSH1 0x40 MSTORE RETURNDATASIZE DUP3 MSTORE RETURNDATASIZE PUSH1 0x0 PUSH1 0x20 DUP5 ADD RETURNDATACOPY PUSH2 0xF72 JUMP JUMPDEST PUSH1 0x60 SWAP2 POP JUMPDEST POP SWAP2 POP SWAP2 POP DUP2 PUSH2 0xD86 JUMPI DUP1 MLOAD ISZERO PUSH2 0xFB7 JUMPI DUP1 PUSH1 0x40 MLOAD PUSH32 0x8C379A000000000000000000000000000000000000000000000000000000000 DUP2 MSTORE PUSH1 0x4 ADD PUSH2 0xDA SWAP2 SWAP1 PUSH2 0x1967 JUMP JUMPDEST PUSH1 0x40 MLOAD PUSH32 0x8C379A000000000000000000000000000000000000000000000000000000000 DUP2 MSTORE PUSH1 0x20 PUSH1 0x4 DUP3 ADD MSTORE PUSH1 0x26 PUSH1 0x24 DUP3 ADD MSTORE PUSH32 0x4C69624469616D6F6E644375743A205F696E69742066756E6374696F6E207265 PUSH1 0x44 DUP3 ADD MSTORE PUSH32 0x7665727465640000000000000000000000000000000000000000000000000000 PUSH1 0x64 DUP3 ADD MSTORE PUSH1 0x84 ADD PUSH2 0xDA JUMP JUMPDEST PUSH2 0x1061 DUP2 PUSH1 0x40 MLOAD DUP1 PUSH1 0x60 ADD PUSH1 0x40 MSTORE DUP1 PUSH1 0x24 DUP2 MSTORE PUSH1 0x20 ADD PUSH2 0x19F0 PUSH1 0x24 SWAP2 CODECOPY PUSH2 0x1640 JUMP JUMPDEST PUSH1 0x2 DUP3 ADD DUP1 SLOAD PUSH20 0xFFFFFFFFFFFFFFFFFFFFFFFFFFFFFFFFFFFFFFFF SWAP1 SWAP3 AND PUSH1 0x0 DUP2 DUP2 MSTORE PUSH1 0x1 SWAP5 DUP6 ADD PUSH1 0x20 SWAP1 DUP2 MSTORE PUSH1 0x40 DUP3 KECCAK256 DUP7 ADD DUP6 SWAP1 SSTORE SWAP5 DUP5 ADD DUP4 SSTORE SWAP2 DUP3 MSTORE SWAP3 SWAP1 KECCAK256 ADD DUP1 SLOAD PUSH32 0xFFFFFFFFFFFFFFFFFFFFFFFF0000000000000000000000000000000000000000 AND SWAP1 SWAP2 OR SWAP1 SSTORE JUMP JUMPDEST PUSH20 0xFFFFFFFFFFFFFFFFFFFFFFFFFFFFFFFFFFFFFFFF DUP3 AND PUSH2 0x1171 JUMPI PUSH1 0x40 MLOAD PUSH32 0x8C379A000000000000000000000000000000000000000000000000000000000 DUP2 MSTORE PUSH1 0x20 PUSH1 0x4 DUP3 ADD MSTORE PUSH1 0x37 PUSH1 0x24 DUP3 ADD MSTORE PUSH32 0x4C69624469616D6F6E644375743A2043616E27742072656D6F76652066756E63 PUSH1 0x44 DUP3 ADD MSTORE PUSH32 0x74696F6E207468617420646F65736E2774206578697374000000000000000000 PUSH1 0x64 DUP3 ADD MSTORE PUSH1 0x84 ADD PUSH2 0xDA JUMP JUMPDEST PUSH20 0xFFFFFFFFFFFFFFFFFFFFFFFFFFFFFFFFFFFFFFFF DUP3 AND ADDRESS EQ ISZERO PUSH2 0x1217 JUMPI PUSH1 0x40 MLOAD PUSH32 0x8C379A000000000000000000000000000000000000000000000000000000000 DUP2 MSTORE PUSH1 0x20 PUSH1 0x4 DUP3 ADD MSTORE PUSH1 0x2E PUSH1 0x24 DUP3 ADD MSTORE PUSH32 0x4C69624469616D6F6E644375743A2043616E27742072656D6F766520696D6D75 PUSH1 0x44 DUP3 ADD MSTORE PUSH32 0x7461626C652066756E6374696F6E000000000000000000000000000000000000 PUSH1 0x64 DUP3 ADD MSTORE PUSH1 0x84 ADD PUSH2 0xDA JUMP JUMPDEST PUSH32 0xFFFFFFFF00000000000000000000000000000000000000000000000000000000 DUP2 AND PUSH1 0x0 SWAP1 DUP2 MSTORE PUSH1 0x20 DUP5 DUP2 MSTORE PUSH1 0x40 DUP1 DUP4 KECCAK256 SLOAD PUSH20 0xFFFFFFFFFFFFFFFFFFFFFFFFFFFFFFFFFFFFFFFF DUP7 AND DUP5 MSTORE PUSH1 0x1 DUP1 DUP9 ADD SWAP1 SWAP4 MSTORE SWAP1 DUP4 KECCAK256 SLOAD PUSH21 0x10000000000000000000000000000000000000000 SWAP1 SWAP2 DIV PUSH12 0xFFFFFFFFFFFFFFFFFFFFFFFF AND SWAP3 SWAP2 PUSH2 0x12A1 SWAP2 PUSH2 0x1981 JUMP JUMPDEST SWAP1 POP DUP1 DUP3 EQ PUSH2 0x13E8 JUMPI PUSH20 0xFFFFFFFFFFFFFFFFFFFFFFFFFFFFFFFFFFFFFFFF DUP5 AND PUSH1 0x0 SWAP1 DUP2 MSTORE PUSH1 0x1 DUP7 ADD PUSH1 0x20 MSTORE PUSH1 0x40 DUP2 KECCAK256 DUP1 SLOAD DUP4 SWAP1 DUP2 LT PUSH2 0x12E3 JUMPI PUSH2 0x12E3 PUSH2 0x167B JUMP JUMPDEST PUSH1 0x0 SWAP2 DUP3 MSTORE PUSH1 0x20 DUP1 DUP4 KECCAK256 PUSH1 0x8 DUP4 DIV ADD SLOAD PUSH20 0xFFFFFFFFFFFFFFFFFFFFFFFFFFFFFFFFFFFFFFFF DUP10 AND DUP5 MSTORE PUSH1 0x1 DUP11 ADD SWAP1 SWAP2 MSTORE PUSH1 0x40 SWAP1 SWAP3 KECCAK256 DUP1 SLOAD PUSH1 0x7 SWAP1 SWAP3 AND PUSH1 0x4 MUL PUSH2 0x100 EXP SWAP1 SWAP3 DIV PUSH1 0xE0 SHL SWAP3 POP DUP3 SWAP2 SWAP1 DUP6 SWAP1 DUP2 LT PUSH2 0x1341 JUMPI PUSH2 0x1341 PUSH2 0x167B JUMP JUMPDEST PUSH1 0x0 SWAP2 DUP3 MSTORE PUSH1 0x20 DUP1 DUP4 KECCAK256 PUSH1 0x8 DUP4 DIV ADD DUP1 SLOAD PUSH4 0xFFFFFFFF PUSH1 0x7 SWAP1 SWAP5 AND PUSH1 0x4 MUL PUSH2 0x100 EXP SWAP4 DUP5 MUL NOT AND PUSH1 0xE0 SWAP6 SWAP1 SWAP6 SHR SWAP3 SWAP1 SWAP3 MUL SWAP4 SWAP1 SWAP4 OR SWAP1 SSTORE PUSH32 0xFFFFFFFF00000000000000000000000000000000000000000000000000000000 SWAP3 SWAP1 SWAP3 AND DUP3 MSTORE DUP7 SWAP1 MSTORE PUSH1 0x40 SWAP1 KECCAK256 DUP1 SLOAD PUSH20 0xFFFFFFFFFFFFFFFFFFFFFFFFFFFFFFFFFFFFFFFF AND PUSH21 0x10000000000000000000000000000000000000000 PUSH12 0xFFFFFFFFFFFFFFFFFFFFFFFF DUP6 AND MUL OR SWAP1 SSTORE JUMPDEST PUSH20 0xFFFFFFFFFFFFFFFFFFFFFFFFFFFFFFFFFFFFFFFF DUP5 AND PUSH1 0x0 SWAP1 DUP2 MSTORE PUSH1 0x1 DUP7 ADD PUSH1 0x20 MSTORE PUSH1 0x40 SWAP1 KECCAK256 DUP1 SLOAD DUP1 PUSH2 0x141E JUMPI PUSH2 0x141E PUSH2 0x1998 JUMP JUMPDEST PUSH1 0x0 DUP3 DUP2 MSTORE PUSH1 0x20 DUP1 DUP3 KECCAK256 PUSH1 0x8 PUSH32 0xFFFFFFFFFFFFFFFFFFFFFFFFFFFFFFFFFFFFFFFFFFFFFFFFFFFFFFFFFFFFFFFF SWAP1 SWAP5 ADD SWAP4 DUP5 DIV ADD DUP1 SLOAD PUSH4 0xFFFFFFFF PUSH1 0x4 PUSH1 0x7 DUP8 AND MUL PUSH2 0x100 EXP MUL NOT AND SWAP1 SSTORE SWAP2 SWAP1 SWAP3 SSTORE PUSH32 0xFFFFFFFF00000000000000000000000000000000000000000000000000000000 DUP6 AND DUP3 MSTORE DUP7 SWAP1 MSTORE PUSH1 0x40 DUP2 KECCAK256 SSTORE DUP1 PUSH2 0x7D5 JUMPI PUSH1 0x2 DUP6 ADD SLOAD PUSH1 0x0 SWAP1 PUSH2 0x14B3 SWAP1 PUSH1 0x1 SWAP1 PUSH2 0x1981 JUMP JUMPDEST PUSH20 0xFFFFFFFFFFFFFFFFFFFFFFFFFFFFFFFFFFFFFFFF DUP7 AND PUSH1 0x0 SWAP1 DUP2 MSTORE PUSH1 0x1 DUP1 DUP10 ADD PUSH1 0x20 MSTORE PUSH1 0x40 SWAP1 SWAP2 KECCAK256 ADD SLOAD SWAP1 SWAP2 POP DUP1 DUP3 EQ PUSH2 0x15A1 JUMPI PUSH1 0x0 DUP8 PUSH1 0x2 ADD DUP4 DUP2 SLOAD DUP2 LT PUSH2 0x14FF JUMPI PUSH2 0x14FF PUSH2 0x167B JUMP JUMPDEST PUSH1 0x0 SWAP2 DUP3 MSTORE PUSH1 0x20 SWAP1 SWAP2 KECCAK256 ADD SLOAD PUSH1 0x2 DUP10 ADD DUP1 SLOAD PUSH20 0xFFFFFFFFFFFFFFFFFFFFFFFFFFFFFFFFFFFFFFFF SWAP1 SWAP3 AND SWAP3 POP DUP3 SWAP2 DUP5 SWAP1 DUP2 LT PUSH2 0x153D JUMPI PUSH2 0x153D PUSH2 0x167B JUMP JUMPDEST PUSH1 0x0 SWAP2 DUP3 MSTORE PUSH1 0x20 DUP1 DUP4 KECCAK256 SWAP2 SWAP1 SWAP2 ADD DUP1 SLOAD PUSH32 0xFFFFFFFFFFFFFFFFFFFFFFFF0000000000000000000000000000000000000000 AND PUSH20 0xFFFFFFFFFFFFFFFFFFFFFFFFFFFFFFFFFFFFFFFF SWAP5 DUP6 AND OR SWAP1 SSTORE SWAP3 SWAP1 SWAP2 AND DUP2 MSTORE PUSH1 0x1 DUP10 DUP2 ADD SWAP1 SWAP3 MSTORE PUSH1 0x40 SWAP1 KECCAK256 ADD DUP2 SWAP1 SSTORE JUMPDEST DUP7 PUSH1 0x2 ADD DUP1 SLOAD DUP1 PUSH2 0x15B4 JUMPI PUSH2 0x15B4 PUSH2 0x1998 JUMP JUMPDEST PUSH1 0x0 DUP3 DUP2 MSTORE PUSH1 0x20 DUP1 DUP3 KECCAK256 DUP4 ADD PUSH32 0xFFFFFFFFFFFFFFFFFFFFFFFFFFFFFFFFFFFFFFFFFFFFFFFFFFFFFFFFFFFFFFFF SWAP1 DUP2 ADD DUP1 SLOAD PUSH32 0xFFFFFFFFFFFFFFFFFFFFFFFF0000000000000000000000000000000000000000 AND SWAP1 SSTORE SWAP1 SWAP3 ADD SWAP1 SWAP3 SSTORE PUSH20 0xFFFFFFFFFFFFFFFFFFFFFFFFFFFFFFFFFFFFFFFF DUP9 AND DUP3 MSTORE PUSH1 0x1 DUP10 DUP2 ADD SWAP1 SWAP2 MSTORE PUSH1 0x40 DUP3 KECCAK256 ADD SSTORE POP POP POP POP POP POP POP JUMP JUMPDEST DUP2 EXTCODESIZE DUP2 DUP2 PUSH2 0xD86 JUMPI PUSH1 0x40 MLOAD PUSH32 0x8C379A000000000000000000000000000000000000000000000000000000000 DUP2 MSTORE PUSH1 0x4 ADD PUSH2 0xDA SWAP2 SWAP1 PUSH2 0x1967 JUMP JUMPDEST PUSH32 0x4E487B7100000000000000000000000000000000000000000000000000000000 PUSH1 0x0 MSTORE PUSH1 0x32 PUSH1 0x4 MSTORE PUSH1 0x24 PUSH1 0x0 REVERT JUMPDEST PUSH32 0x4E487B7100000000000000000000000000000000000000000000000000000000 PUSH1 0x0 MSTORE PUSH1 0x21 PUSH1 0x4 MSTORE PUSH1 0x24 PUSH1 0x0 REVERT JUMPDEST PUSH32 0x4E487B7100000000000000000000000000000000000000000000000000000000 PUSH1 0x0 MSTORE PUSH1 0x11 PUSH1 0x4 MSTORE PUSH1 0x24 PUSH1 0x0 REVERT JUMPDEST PUSH1 0x0 PUSH32 0xFFFFFFFFFFFFFFFFFFFFFFFFFFFFFFFFFFFFFFFFFFFFFFFFFFFFFFFFFFFFFFFF DUP3 EQ ISZERO PUSH2 0x173A JUMPI PUSH2 0x173A PUSH2 0x16D9 JUMP JUMPDEST POP PUSH1 0x1 ADD SWAP1 JUMP JUMPDEST PUSH1 0x0 JUMPDEST DUP4 DUP2 LT ISZERO PUSH2 0x175C JUMPI DUP2 DUP2 ADD MLOAD DUP4 DUP3 ADD MSTORE PUSH1 0x20 ADD PUSH2 0x1744 JUMP JUMPDEST DUP4 DUP2 GT ISZERO PUSH2 0xD86 JUMPI POP POP PUSH1 0x0 SWAP2 ADD MSTORE JUMP JUMPDEST PUSH1 0x0 DUP2 MLOAD DUP1 DUP5 MSTORE PUSH2 0x1785 DUP2 PUSH1 0x20 DUP7 ADD PUSH1 0x20 DUP7 ADD PUSH2 0x1741 JUMP JUMPDEST PUSH1 0x1F ADD PUSH32 0xFFFFFFFFFFFFFFFFFFFFFFFFFFFFFFFFFFFFFFFFFFFFFFFFFFFFFFFFFFFFFFE0 AND SWAP3 SWAP1 SWAP3 ADD PUSH1 0x20 ADD SWAP3 SWAP2 POP POP JUMP JUMPDEST PUSH1 0x0 PUSH1 0x60 DUP1 DUP4 ADD DUP2 DUP5 MSTORE DUP1 DUP8 MLOAD DUP1 DUP4 MSTORE PUSH1 0x80 SWAP3 POP DUP3 DUP7 ADD SWAP2 POP DUP3 DUP2 PUSH1 0x5 SHL DUP8 ADD ADD PUSH1 0x20 DUP1 DUP12 ADD PUSH1 0x0 JUMPDEST DUP5 DUP2 LT ISZERO PUSH2 0x18E2 JUMPI PUSH32 0xFFFFFFFFFFFFFFFFFFFFFFFFFFFFFFFFFFFFFFFFFFFFFFFFFFFFFFFFFFFFFF80 DUP11 DUP6 SUB ADD DUP7 MSTORE DUP2 MLOAD DUP9 DUP6 ADD PUSH20 0xFFFFFFFFFFFFFFFFFFFFFFFFFFFFFFFFFFFFFFFF DUP3 MLOAD AND DUP7 MSTORE DUP5 DUP3 ADD MLOAD PUSH1 0x3 DUP2 LT PUSH2 0x1869 JUMPI PUSH32 0x4E487B7100000000000000000000000000000000000000000000000000000000 PUSH1 0x0 MSTORE PUSH1 0x21 PUSH1 0x4 MSTORE PUSH1 0x24 PUSH1 0x0 REVERT JUMPDEST DUP7 DUP7 ADD MSTORE PUSH1 0x40 SWAP2 DUP3 ADD MLOAD SWAP2 DUP7 ADD DUP11 SWAP1 MSTORE DUP2 MLOAD SWAP1 DUP2 SWAP1 MSTORE SWAP1 DUP5 ADD SWAP1 PUSH1 0x0 SWAP1 DUP10 DUP8 ADD SWAP1 JUMPDEST DUP1 DUP4 LT ISZERO PUSH2 0x18CD JUMPI DUP4 MLOAD PUSH32 0xFFFFFFFF00000000000000000000000000000000000000000000000000000000 AND DUP3 MSTORE SWAP3 DUP7 ADD SWAP3 PUSH1 0x1 SWAP3 SWAP1 SWAP3 ADD SWAP2 SWAP1 DUP7 ADD SWAP1 PUSH2 0x188B JUMP JUMPDEST POP SWAP8 DUP6 ADD SWAP8 SWAP6 POP POP POP SWAP1 DUP3 ADD SWAP1 PUSH1 0x1 ADD PUSH2 0x17E0 JUMP JUMPDEST POP POP PUSH20 0xFFFFFFFFFFFFFFFFFFFFFFFFFFFFFFFFFFFFFFFF DUP11 AND SWAP1 DUP9 ADD MSTORE DUP7 DUP2 SUB PUSH1 0x40 DUP9 ADD MSTORE PUSH2 0x1911 DUP2 DUP10 PUSH2 0x176D JUMP JUMPDEST SWAP11 SWAP10 POP POP POP POP POP POP POP POP POP POP JUMP JUMPDEST PUSH1 0x0 PUSH12 0xFFFFFFFFFFFFFFFFFFFFFFFF DUP1 DUP4 AND DUP2 DUP2 EQ ISZERO PUSH2 0x1941 JUMPI PUSH2 0x1941 PUSH2 0x16D9 JUMP JUMPDEST PUSH1 0x1 ADD SWAP4 SWAP3 POP POP POP JUMP JUMPDEST PUSH1 0x0 DUP3 MLOAD PUSH2 0x195D DUP2 DUP5 PUSH1 0x20 DUP8 ADD PUSH2 0x1741 JUMP JUMPDEST SWAP2 SWAP1 SWAP2 ADD SWAP3 SWAP2 POP POP JUMP JUMPDEST PUSH1 0x20 DUP2 MSTORE PUSH1 0x0 PUSH2 0x197A PUSH1 0x20 DUP4 ADD DUP5 PUSH2 0x176D JUMP JUMPDEST SWAP4 SWAP3 POP POP POP JUMP JUMPDEST PUSH1 0x0 DUP3 DUP3 LT ISZERO PUSH2 0x1993 JUMPI PUSH2 0x1993 PUSH2 0x16D9 JUMP JUMPDEST POP SUB SWAP1 JUMP JUMPDEST PUSH32 0x4E487B7100000000000000000000000000000000000000000000000000000000 PUSH1 0x0 MSTORE PUSH1 0x31 PUSH1 0x4 MSTORE PUSH1 0x24 PUSH1 0x0 REVERT INVALID 0x4C PUSH10 0x624469616D6F6E644375 PUSH21 0x3A205F696E6974206164647265737320686173206E PUSH16 0x20636F64654C69624469616D6F6E6443 PUSH22 0x743A204E657720666163657420686173206E6F20636F PUSH5 0x65A2646970 PUSH7 0x7358221220A164 CREATE2 0xC0 0xA5 0xFB CODESIZE DUP4 PUSH16 0x80DB7C0D13BA057B758BB3BDF1D37D32 CREATE SWAP8 0xAD DUP10 DUP9 0x27 PUSH13 0x64736F6C63430008090033C8FC 0xAD DUP14 0xB8 0x4D EXTCODECOPY 0xC1 DUP12 0x4C COINBASE 0xD5 MLOAD 0xEA 0xE 0xE6 PUSH14 0xD599CDE068D998E57D5E09332C13 SHR 0x4C PUSH10 0x624469616D6F6E644375 PUSH21 0x3A205F696E6974206164647265737320686173206E PUSH16 0x20636F64654C69624469616D6F6E6443 PUSH22 0x743A204164642066616365742063616E277420624C69 PUSH3 0x446961 PUSH14 0x6F6E644375743A204E6577206661 PUSH4 0x65742068 PUSH2 0x7320 PUSH15 0x6F20636F64654C69624469616D6F6E PUSH5 0x4375743A20 0x4E PUSH16 0x2073656C6563746F727320696E2066A2 PUSH5 0x6970667358 0x22 SLT KECCAK256 0xD1 PUSH9 0xB12DEB9403843A8384 EXTCODECOPY 0xBF CALLDATALOAD JUMPI 0xF 0xBA 0x2E NUMBER 0xD6 SHR 0xC7 JUMPDEST CALL 0xC1 DUP15 0xCC 0xC4 0xE3 DUP14 0xED JUMPDEST PUSH5 0x736F6C6343 STOP ADDMOD MULMOD STOP CALLER PUSH1 0x80 PUSH1 0x40 MSTORE CALLVALUE DUP1 ISZERO PUSH2 0x10 JUMPI PUSH1 0x0 DUP1 REVERT JUMPDEST POP PUSH2 0x1D16 DUP1 PUSH2 0x20 PUSH1 0x0 CODECOPY PUSH1 0x0 RETURN INVALID PUSH1 0x80 PUSH1 0x40 MSTORE CALLVALUE DUP1 ISZERO PUSH2 0x10 JUMPI PUSH1 0x0 DUP1 REVERT JUMPDEST POP PUSH1 0x4 CALLDATASIZE LT PUSH2 0x2B JUMPI PUSH1 0x0 CALLDATALOAD PUSH1 0xE0 SHR DUP1 PUSH4 0x1F931C1C EQ PUSH2 0x30 JUMPI JUMPDEST PUSH1 0x0 DUP1 REVERT JUMPDEST PUSH2 0x43 PUSH2 0x3E CALLDATASIZE PUSH1 0x4 PUSH2 0x166F JUMP JUMPDEST PUSH2 0x45 JUMP JUMPDEST STOP JUMPDEST PUSH2 0x4D PUSH2 0x9E JUMP JUMPDEST PUSH2 0x97 PUSH2 0x5A DUP6 DUP8 PUSH2 0x17EC JUMP JUMPDEST DUP5 DUP5 DUP5 DUP1 DUP1 PUSH1 0x1F ADD PUSH1 0x20 DUP1 SWAP2 DIV MUL PUSH1 0x20 ADD PUSH1 0x40 MLOAD SWAP1 DUP2 ADD PUSH1 0x40 MSTORE DUP1 SWAP4 SWAP3 SWAP2 SWAP1 DUP2 DUP2 MSTORE PUSH1 0x20 ADD DUP4 DUP4 DUP1 DUP3 DUP5 CALLDATACOPY PUSH1 0x0 SWAP3 ADD SWAP2 SWAP1 SWAP2 MSTORE POP PUSH2 0x16E SWAP3 POP POP POP JUMP JUMPDEST POP POP POP POP POP JUMP JUMPDEST PUSH32 0xC8FCAD8DB84D3CC18B4C41D551EA0EE66DD599CDE068D998E57D5E09332C131C PUSH1 0x4 ADD SLOAD PUSH20 0xFFFFFFFFFFFFFFFFFFFFFFFFFFFFFFFFFFFFFFFF AND CALLER EQ PUSH2 0x16C JUMPI PUSH1 0x40 MLOAD PUSH32 0x8C379A000000000000000000000000000000000000000000000000000000000 DUP2 MSTORE PUSH1 0x20 PUSH1 0x4 DUP3 ADD MSTORE PUSH1 0x22 PUSH1 0x24 DUP3 ADD MSTORE PUSH32 0x4C69624469616D6F6E643A204D75737420626520636F6E7472616374206F776E PUSH1 0x44 DUP3 ADD MSTORE PUSH32 0x6572000000000000000000000000000000000000000000000000000000000000 PUSH1 0x64 DUP3 ADD MSTORE PUSH1 0x84 ADD JUMPDEST PUSH1 0x40 MLOAD DUP1 SWAP2 SUB SWAP1 REVERT JUMPDEST JUMP JUMPDEST PUSH1 0x0 JUMPDEST DUP4 MLOAD DUP2 LT ISZERO PUSH2 0x367 JUMPI PUSH1 0x0 DUP5 DUP3 DUP2 MLOAD DUP2 LT PUSH2 0x18E JUMPI PUSH2 0x18E PUSH2 0x1948 JUMP JUMPDEST PUSH1 0x20 MUL PUSH1 0x20 ADD ADD MLOAD PUSH1 0x20 ADD MLOAD SWAP1 POP PUSH1 0x0 PUSH1 0x2 DUP2 GT ISZERO PUSH2 0x1AF JUMPI PUSH2 0x1AF PUSH2 0x1977 JUMP JUMPDEST DUP2 PUSH1 0x2 DUP2 GT ISZERO PUSH2 0x1C1 JUMPI PUSH2 0x1C1 PUSH2 0x1977 JUMP JUMPDEST EQ ISZERO PUSH2 0x210 JUMPI PUSH2 0x20B DUP6 DUP4 DUP2 MLOAD DUP2 LT PUSH2 0x1DC JUMPI PUSH2 0x1DC PUSH2 0x1948 JUMP JUMPDEST PUSH1 0x20 MUL PUSH1 0x20 ADD ADD MLOAD PUSH1 0x0 ADD MLOAD DUP7 DUP5 DUP2 MLOAD DUP2 LT PUSH2 0x1FA JUMPI PUSH2 0x1FA PUSH2 0x1948 JUMP JUMPDEST PUSH1 0x20 MUL PUSH1 0x20 ADD ADD MLOAD PUSH1 0x40 ADD MLOAD PUSH2 0x3B2 JUMP JUMPDEST PUSH2 0x354 JUMP JUMPDEST PUSH1 0x1 DUP2 PUSH1 0x2 DUP2 GT ISZERO PUSH2 0x224 JUMPI PUSH2 0x224 PUSH2 0x1977 JUMP JUMPDEST EQ ISZERO PUSH2 0x26E JUMPI PUSH2 0x20B DUP6 DUP4 DUP2 MLOAD DUP2 LT PUSH2 0x23F JUMPI PUSH2 0x23F PUSH2 0x1948 JUMP JUMPDEST PUSH1 0x20 MUL PUSH1 0x20 ADD ADD MLOAD PUSH1 0x0 ADD MLOAD DUP7 DUP5 DUP2 MLOAD DUP2 LT PUSH2 0x25D JUMPI PUSH2 0x25D PUSH2 0x1948 JUMP JUMPDEST PUSH1 0x20 MUL PUSH1 0x20 ADD ADD MLOAD PUSH1 0x40 ADD MLOAD PUSH2 0x75E JUMP JUMPDEST PUSH1 0x2 DUP2 PUSH1 0x2 DUP2 GT ISZERO PUSH2 0x282 JUMPI PUSH2 0x282 PUSH2 0x1977 JUMP JUMPDEST EQ ISZERO PUSH2 0x2CC JUMPI PUSH2 0x20B DUP6 DUP4 DUP2 MLOAD DUP2 LT PUSH2 0x29D JUMPI PUSH2 0x29D PUSH2 0x1948 JUMP JUMPDEST PUSH1 0x20 MUL PUSH1 0x20 ADD ADD MLOAD PUSH1 0x0 ADD MLOAD DUP7 DUP5 DUP2 MLOAD DUP2 LT PUSH2 0x2BB JUMPI PUSH2 0x2BB PUSH2 0x1948 JUMP JUMPDEST PUSH1 0x20 MUL PUSH1 0x20 ADD ADD MLOAD PUSH1 0x40 ADD MLOAD PUSH2 0xB1B JUMP JUMPDEST PUSH1 0x40 MLOAD PUSH32 0x8C379A000000000000000000000000000000000000000000000000000000000 DUP2 MSTORE PUSH1 0x20 PUSH1 0x4 DUP3 ADD MSTORE PUSH1 0x27 PUSH1 0x24 DUP3 ADD MSTORE PUSH32 0x4C69624469616D6F6E644375743A20496E636F72726563742046616365744375 PUSH1 0x44 DUP3 ADD MSTORE PUSH32 0x74416374696F6E00000000000000000000000000000000000000000000000000 PUSH1 0x64 DUP3 ADD MSTORE PUSH1 0x84 ADD PUSH2 0x163 JUMP JUMPDEST POP DUP1 PUSH2 0x35F DUP2 PUSH2 0x19D5 JUMP JUMPDEST SWAP2 POP POP PUSH2 0x171 JUMP JUMPDEST POP PUSH32 0x8FAA70878671CCD212D20771B795C50AF8FD3FF6CF27F4BDE57E5D4DE0AEB673 DUP4 DUP4 DUP4 PUSH1 0x40 MLOAD PUSH2 0x39B SWAP4 SWAP3 SWAP2 SWAP1 PUSH2 0x1A84 JUMP JUMPDEST PUSH1 0x40 MLOAD DUP1 SWAP2 SUB SWAP1 LOG1 PUSH2 0x3AD DUP3 DUP3 PUSH2 0xD0E JUMP JUMPDEST POP POP POP JUMP JUMPDEST PUSH1 0x0 DUP2 MLOAD GT PUSH2 0x443 JUMPI PUSH1 0x40 MLOAD PUSH32 0x8C379A000000000000000000000000000000000000000000000000000000000 DUP2 MSTORE PUSH1 0x20 PUSH1 0x4 DUP3 ADD MSTORE PUSH1 0x2B PUSH1 0x24 DUP3 ADD MSTORE PUSH32 0x4C69624469616D6F6E644375743A204E6F2073656C6563746F727320696E2066 PUSH1 0x44 DUP3 ADD MSTORE PUSH32 0x6163657420746F20637574000000000000000000000000000000000000000000 PUSH1 0x64 DUP3 ADD MSTORE PUSH1 0x84 ADD PUSH2 0x163 JUMP JUMPDEST PUSH32 0xC8FCAD8DB84D3CC18B4C41D551EA0EE66DD599CDE068D998E57D5E09332C131C PUSH20 0xFFFFFFFFFFFFFFFFFFFFFFFFFFFFFFFFFFFFFFFF DUP4 AND PUSH2 0x507 JUMPI PUSH1 0x40 MLOAD PUSH32 0x8C379A000000000000000000000000000000000000000000000000000000000 DUP2 MSTORE PUSH1 0x20 PUSH1 0x4 DUP3 ADD MSTORE PUSH1 0x2C PUSH1 0x24 DUP3 ADD MSTORE PUSH32 0x4C69624469616D6F6E644375743A204164642066616365742063616E27742062 PUSH1 0x44 DUP3 ADD MSTORE PUSH32 0x6520616464726573732830290000000000000000000000000000000000000000 PUSH1 0x64 DUP3 ADD MSTORE PUSH1 0x84 ADD PUSH2 0x163 JUMP JUMPDEST PUSH20 0xFFFFFFFFFFFFFFFFFFFFFFFFFFFFFFFFFFFFFFFF DUP4 AND PUSH1 0x0 SWAP1 DUP2 MSTORE PUSH1 0x1 DUP3 ADD PUSH1 0x20 MSTORE PUSH1 0x40 SWAP1 KECCAK256 SLOAD PUSH12 0xFFFFFFFFFFFFFFFFFFFFFFFF DUP2 AND PUSH2 0x54C JUMPI PUSH2 0x54C DUP3 DUP6 PUSH2 0xFC1 JUMP JUMPDEST PUSH1 0x0 JUMPDEST DUP4 MLOAD DUP2 LT ISZERO PUSH2 0x97 JUMPI PUSH1 0x0 DUP5 DUP3 DUP2 MLOAD DUP2 LT PUSH2 0x56C JUMPI PUSH2 0x56C PUSH2 0x1948 JUMP JUMPDEST PUSH1 0x20 SWAP1 DUP2 MUL SWAP2 SWAP1 SWAP2 ADD DUP2 ADD MLOAD PUSH32 0xFFFFFFFF00000000000000000000000000000000000000000000000000000000 DUP2 AND PUSH1 0x0 SWAP1 DUP2 MSTORE SWAP2 DUP7 SWAP1 MSTORE PUSH1 0x40 SWAP1 SWAP2 KECCAK256 SLOAD SWAP1 SWAP2 POP PUSH20 0xFFFFFFFFFFFFFFFFFFFFFFFFFFFFFFFFFFFFFFFF AND DUP1 ISZERO PUSH2 0x651 JUMPI PUSH1 0x40 MLOAD PUSH32 0x8C379A000000000000000000000000000000000000000000000000000000000 DUP2 MSTORE PUSH1 0x20 PUSH1 0x4 DUP3 ADD MSTORE PUSH1 0x35 PUSH1 0x24 DUP3 ADD MSTORE PUSH32 0x4C69624469616D6F6E644375743A2043616E2774206164642066756E6374696F PUSH1 0x44 DUP3 ADD MSTORE PUSH32 0x6E207468617420616C7265616479206578697374730000000000000000000000 PUSH1 0x64 DUP3 ADD MSTORE PUSH1 0x84 ADD PUSH2 0x163 JUMP JUMPDEST PUSH32 0xFFFFFFFF00000000000000000000000000000000000000000000000000000000 DUP3 AND PUSH1 0x0 DUP2 DUP2 MSTORE PUSH1 0x20 DUP8 DUP2 MSTORE PUSH1 0x40 DUP1 DUP4 KECCAK256 DUP1 SLOAD PUSH20 0xFFFFFFFFFFFFFFFFFFFFFFFFFFFFFFFFFFFFFFFF SWAP1 DUP2 AND PUSH21 0x10000000000000000000000000000000000000000 PUSH12 0xFFFFFFFFFFFFFFFFFFFFFFFF DUP13 AND MUL OR DUP3 SSTORE DUP13 AND DUP1 DUP6 MSTORE PUSH1 0x1 DUP1 DUP13 ADD DUP6 MSTORE SWAP3 DUP6 KECCAK256 DUP1 SLOAD SWAP4 DUP5 ADD DUP2 SSTORE DUP6 MSTORE DUP4 DUP6 KECCAK256 PUSH1 0x8 DUP5 DIV ADD DUP1 SLOAD PUSH4 0xFFFFFFFF PUSH1 0x7 SWAP1 SWAP6 AND PUSH1 0x4 MUL PUSH2 0x100 EXP SWAP5 DUP6 MUL NOT AND PUSH1 0xE0 DUP11 SWAP1 SHR SWAP5 SWAP1 SWAP5 MUL SWAP4 SWAP1 SWAP4 OR SWAP1 SWAP3 SSTORE SWAP4 SWAP1 SWAP3 MSTORE DUP8 SWAP1 MSTORE DUP2 SLOAD PUSH32 0xFFFFFFFFFFFFFFFFFFFFFFFF0000000000000000000000000000000000000000 AND OR SWAP1 SSTORE DUP4 PUSH2 0x746 DUP2 PUSH2 0x1BEC JUMP JUMPDEST SWAP5 POP POP POP POP DUP1 DUP1 PUSH2 0x756 SWAP1 PUSH2 0x19D5 JUMP JUMPDEST SWAP2 POP POP PUSH2 0x54F JUMP JUMPDEST PUSH1 0x0 DUP2 MLOAD GT PUSH2 0x7EF JUMPI PUSH1 0x40 MLOAD PUSH32 0x8C379A000000000000000000000000000000000000000000000000000000000 DUP2 MSTORE PUSH1 0x20 PUSH1 0x4 DUP3 ADD MSTORE PUSH1 0x2B PUSH1 0x24 DUP3 ADD MSTORE PUSH32 0x4C69624469616D6F6E644375743A204E6F2073656C6563746F727320696E2066 PUSH1 0x44 DUP3 ADD MSTORE PUSH32 0x6163657420746F20637574000000000000000000000000000000000000000000 PUSH1 0x64 DUP3 ADD MSTORE PUSH1 0x84 ADD PUSH2 0x163 JUMP JUMPDEST PUSH32 0xC8FCAD8DB84D3CC18B4C41D551EA0EE66DD599CDE068D998E57D5E09332C131C PUSH20 0xFFFFFFFFFFFFFFFFFFFFFFFFFFFFFFFFFFFFFFFF DUP4 AND PUSH2 0x8B3 JUMPI PUSH1 0x40 MLOAD PUSH32 0x8C379A000000000000000000000000000000000000000000000000000000000 DUP2 MSTORE PUSH1 0x20 PUSH1 0x4 DUP3 ADD MSTORE PUSH1 0x2C PUSH1 0x24 DUP3 ADD MSTORE PUSH32 0x4C69624469616D6F6E644375743A204164642066616365742063616E27742062 PUSH1 0x44 DUP3 ADD MSTORE PUSH32 0x6520616464726573732830290000000000000000000000000000000000000000 PUSH1 0x64 DUP3 ADD MSTORE PUSH1 0x84 ADD PUSH2 0x163 JUMP JUMPDEST PUSH20 0xFFFFFFFFFFFFFFFFFFFFFFFFFFFFFFFFFFFFFFFF DUP4 AND PUSH1 0x0 SWAP1 DUP2 MSTORE PUSH1 0x1 DUP3 ADD PUSH1 0x20 MSTORE PUSH1 0x40 SWAP1 KECCAK256 SLOAD PUSH12 0xFFFFFFFFFFFFFFFFFFFFFFFF DUP2 AND PUSH2 0x8F8 JUMPI PUSH2 0x8F8 DUP3 DUP6 PUSH2 0xFC1 JUMP JUMPDEST PUSH1 0x0 JUMPDEST DUP4 MLOAD DUP2 LT ISZERO PUSH2 0x97 JUMPI PUSH1 0x0 DUP5 DUP3 DUP2 MLOAD DUP2 LT PUSH2 0x918 JUMPI PUSH2 0x918 PUSH2 0x1948 JUMP JUMPDEST PUSH1 0x20 SWAP1 DUP2 MUL SWAP2 SWAP1 SWAP2 ADD DUP2 ADD MLOAD PUSH32 0xFFFFFFFF00000000000000000000000000000000000000000000000000000000 DUP2 AND PUSH1 0x0 SWAP1 DUP2 MSTORE SWAP2 DUP7 SWAP1 MSTORE PUSH1 0x40 SWAP1 SWAP2 KECCAK256 SLOAD SWAP1 SWAP2 POP PUSH20 0xFFFFFFFFFFFFFFFFFFFFFFFFFFFFFFFFFFFFFFFF SWAP1 DUP2 AND SWAP1 DUP8 AND DUP2 EQ ISZERO PUSH2 0xA03 JUMPI PUSH1 0x40 MLOAD PUSH32 0x8C379A000000000000000000000000000000000000000000000000000000000 DUP2 MSTORE PUSH1 0x20 PUSH1 0x4 DUP3 ADD MSTORE PUSH1 0x38 PUSH1 0x24 DUP3 ADD MSTORE PUSH32 0x4C69624469616D6F6E644375743A2043616E2774207265706C6163652066756E PUSH1 0x44 DUP3 ADD MSTORE PUSH32 0x6374696F6E20776974682073616D652066756E6374696F6E0000000000000000 PUSH1 0x64 DUP3 ADD MSTORE PUSH1 0x84 ADD PUSH2 0x163 JUMP JUMPDEST PUSH2 0xA0E DUP6 DUP3 DUP5 PUSH2 0x1050 JUMP JUMPDEST PUSH32 0xFFFFFFFF00000000000000000000000000000000000000000000000000000000 DUP3 AND PUSH1 0x0 DUP2 DUP2 MSTORE PUSH1 0x20 DUP8 DUP2 MSTORE PUSH1 0x40 DUP1 DUP4 KECCAK256 DUP1 SLOAD PUSH20 0xFFFFFFFFFFFFFFFFFFFFFFFFFFFFFFFFFFFFFFFF SWAP1 DUP2 AND PUSH21 0x10000000000000000000000000000000000000000 PUSH12 0xFFFFFFFFFFFFFFFFFFFFFFFF DUP13 AND MUL OR DUP3 SSTORE DUP13 AND DUP1 DUP6 MSTORE PUSH1 0x1 DUP1 DUP13 ADD DUP6 MSTORE SWAP3 DUP6 KECCAK256 DUP1 SLOAD SWAP4 DUP5 ADD DUP2 SSTORE DUP6 MSTORE DUP4 DUP6 KECCAK256 PUSH1 0x8 DUP5 DIV ADD DUP1 SLOAD PUSH4 0xFFFFFFFF PUSH1 0x7 SWAP1 SWAP6 AND PUSH1 0x4 MUL PUSH2 0x100 EXP SWAP5 DUP6 MUL NOT AND PUSH1 0xE0 DUP11 SWAP1 SHR SWAP5 SWAP1 SWAP5 MUL SWAP4 SWAP1 SWAP4 OR SWAP1 SWAP3 SSTORE SWAP4 SWAP1 SWAP3 MSTORE DUP8 SWAP1 MSTORE DUP2 SLOAD PUSH32 0xFFFFFFFFFFFFFFFFFFFFFFFF0000000000000000000000000000000000000000 AND OR SWAP1 SSTORE DUP4 PUSH2 0xB03 DUP2 PUSH2 0x1BEC JUMP JUMPDEST SWAP5 POP POP POP POP DUP1 DUP1 PUSH2 0xB13 SWAP1 PUSH2 0x19D5 JUMP JUMPDEST SWAP2 POP POP PUSH2 0x8FB JUMP JUMPDEST PUSH1 0x0 DUP2 MLOAD GT PUSH2 0xBAC JUMPI PUSH1 0x40 MLOAD PUSH32 0x8C379A000000000000000000000000000000000000000000000000000000000 DUP2 MSTORE PUSH1 0x20 PUSH1 0x4 DUP3 ADD MSTORE PUSH1 0x2B PUSH1 0x24 DUP3 ADD MSTORE PUSH32 0x4C69624469616D6F6E644375743A204E6F2073656C6563746F727320696E2066 PUSH1 0x44 DUP3 ADD MSTORE PUSH32 0x6163657420746F20637574000000000000000000000000000000000000000000 PUSH1 0x64 DUP3 ADD MSTORE PUSH1 0x84 ADD PUSH2 0x163 JUMP JUMPDEST PUSH32 0xC8FCAD8DB84D3CC18B4C41D551EA0EE66DD599CDE068D998E57D5E09332C131C PUSH20 0xFFFFFFFFFFFFFFFFFFFFFFFFFFFFFFFFFFFFFFFF DUP4 AND ISZERO PUSH2 0xC71 JUMPI PUSH1 0x40 MLOAD PUSH32 0x8C379A000000000000000000000000000000000000000000000000000000000 DUP2 MSTORE PUSH1 0x20 PUSH1 0x4 DUP3 ADD MSTORE PUSH1 0x36 PUSH1 0x24 DUP3 ADD MSTORE PUSH32 0x4C69624469616D6F6E644375743A2052656D6F76652066616365742061646472 PUSH1 0x44 DUP3 ADD MSTORE PUSH32 0x657373206D757374206265206164647265737328302900000000000000000000 PUSH1 0x64 DUP3 ADD MSTORE PUSH1 0x84 ADD PUSH2 0x163 JUMP JUMPDEST PUSH1 0x0 JUMPDEST DUP3 MLOAD DUP2 LT ISZERO PUSH2 0xD08 JUMPI PUSH1 0x0 DUP4 DUP3 DUP2 MLOAD DUP2 LT PUSH2 0xC91 JUMPI PUSH2 0xC91 PUSH2 0x1948 JUMP JUMPDEST PUSH1 0x20 SWAP1 DUP2 MUL SWAP2 SWAP1 SWAP2 ADD DUP2 ADD MLOAD PUSH32 0xFFFFFFFF00000000000000000000000000000000000000000000000000000000 DUP2 AND PUSH1 0x0 SWAP1 DUP2 MSTORE SWAP2 DUP6 SWAP1 MSTORE PUSH1 0x40 SWAP1 SWAP2 KECCAK256 SLOAD SWAP1 SWAP2 POP PUSH20 0xFFFFFFFFFFFFFFFFFFFFFFFFFFFFFFFFFFFFFFFF AND PUSH2 0xCF3 DUP5 DUP3 DUP5 PUSH2 0x1050 JUMP JUMPDEST POP POP DUP1 DUP1 PUSH2 0xD00 SWAP1 PUSH2 0x19D5 JUMP JUMPDEST SWAP2 POP POP PUSH2 0xC74 JUMP JUMPDEST POP POP POP POP JUMP JUMPDEST PUSH20 0xFFFFFFFFFFFFFFFFFFFFFFFFFFFFFFFFFFFFFFFF DUP3 AND PUSH2 0xDBC JUMPI DUP1 MLOAD ISZERO PUSH2 0xDB8 JUMPI PUSH1 0x40 MLOAD PUSH32 0x8C379A000000000000000000000000000000000000000000000000000000000 DUP2 MSTORE PUSH1 0x20 PUSH1 0x4 DUP3 ADD MSTORE PUSH1 0x3C PUSH1 0x24 DUP3 ADD MSTORE PUSH32 0x4C69624469616D6F6E644375743A205F696E6974206973206164647265737328 PUSH1 0x44 DUP3 ADD MSTORE PUSH32 0x3029206275745F63616C6C64617461206973206E6F7420656D70747900000000 PUSH1 0x64 DUP3 ADD MSTORE PUSH1 0x84 ADD PUSH2 0x163 JUMP JUMPDEST POP POP JUMP JUMPDEST PUSH1 0x0 DUP2 MLOAD GT PUSH2 0xE4D JUMPI PUSH1 0x40 MLOAD PUSH32 0x8C379A000000000000000000000000000000000000000000000000000000000 DUP2 MSTORE PUSH1 0x20 PUSH1 0x4 DUP3 ADD MSTORE PUSH1 0x3D PUSH1 0x24 DUP3 ADD MSTORE PUSH32 0x4C69624469616D6F6E644375743A205F63616C6C6461746120697320656D7074 PUSH1 0x44 DUP3 ADD MSTORE PUSH32 0x7920627574205F696E6974206973206E6F742061646472657373283029000000 PUSH1 0x64 DUP3 ADD MSTORE PUSH1 0x84 ADD PUSH2 0x163 JUMP JUMPDEST PUSH20 0xFFFFFFFFFFFFFFFFFFFFFFFFFFFFFFFFFFFFFFFF DUP3 AND ADDRESS EQ PUSH2 0xE8C JUMPI PUSH2 0xE8C DUP3 PUSH1 0x40 MLOAD DUP1 PUSH1 0x60 ADD PUSH1 0x40 MSTORE DUP1 PUSH1 0x28 DUP2 MSTORE PUSH1 0x20 ADD PUSH2 0x1C95 PUSH1 0x28 SWAP2 CODECOPY PUSH2 0x15C2 JUMP JUMPDEST PUSH1 0x0 DUP1 DUP4 PUSH20 0xFFFFFFFFFFFFFFFFFFFFFFFFFFFFFFFFFFFFFFFF AND DUP4 PUSH1 0x40 MLOAD PUSH2 0xEB4 SWAP2 SWAP1 PUSH2 0x1C18 JUMP JUMPDEST PUSH1 0x0 PUSH1 0x40 MLOAD DUP1 DUP4 SUB DUP2 DUP6 GAS DELEGATECALL SWAP2 POP POP RETURNDATASIZE DUP1 PUSH1 0x0 DUP2 EQ PUSH2 0xEEF JUMPI PUSH1 0x40 MLOAD SWAP2 POP PUSH1 0x1F NOT PUSH1 0x3F RETURNDATASIZE ADD AND DUP3 ADD PUSH1 0x40 MSTORE RETURNDATASIZE DUP3 MSTORE RETURNDATASIZE PUSH1 0x0 PUSH1 0x20 DUP5 ADD RETURNDATACOPY PUSH2 0xEF4 JUMP JUMPDEST PUSH1 0x60 SWAP2 POP JUMPDEST POP SWAP2 POP SWAP2 POP DUP2 PUSH2 0xD08 JUMPI DUP1 MLOAD ISZERO PUSH2 0xF39 JUMPI DUP1 PUSH1 0x40 MLOAD PUSH32 0x8C379A000000000000000000000000000000000000000000000000000000000 DUP2 MSTORE PUSH1 0x4 ADD PUSH2 0x163 SWAP2 SWAP1 PUSH2 0x1C34 JUMP JUMPDEST PUSH1 0x40 MLOAD PUSH32 0x8C379A000000000000000000000000000000000000000000000000000000000 DUP2 MSTORE PUSH1 0x20 PUSH1 0x4 DUP3 ADD MSTORE PUSH1 0x26 PUSH1 0x24 DUP3 ADD MSTORE PUSH32 0x4C69624469616D6F6E644375743A205F696E69742066756E6374696F6E207265 PUSH1 0x44 DUP3 ADD MSTORE PUSH32 0x7665727465640000000000000000000000000000000000000000000000000000 PUSH1 0x64 DUP3 ADD MSTORE PUSH1 0x84 ADD PUSH2 0x163 JUMP JUMPDEST PUSH2 0xFE3 DUP2 PUSH1 0x40 MLOAD DUP1 PUSH1 0x60 ADD PUSH1 0x40 MSTORE DUP1 PUSH1 0x24 DUP2 MSTORE PUSH1 0x20 ADD PUSH2 0x1CBD PUSH1 0x24 SWAP2 CODECOPY PUSH2 0x15C2 JUMP JUMPDEST PUSH1 0x2 DUP3 ADD DUP1 SLOAD PUSH20 0xFFFFFFFFFFFFFFFFFFFFFFFFFFFFFFFFFFFFFFFF SWAP1 SWAP3 AND PUSH1 0x0 DUP2 DUP2 MSTORE PUSH1 0x1 SWAP5 DUP6 ADD PUSH1 0x20 SWAP1 DUP2 MSTORE PUSH1 0x40 DUP3 KECCAK256 DUP7 ADD DUP6 SWAP1 SSTORE SWAP5 DUP5 ADD DUP4 SSTORE SWAP2 DUP3 MSTORE SWAP3 SWAP1 KECCAK256 ADD DUP1 SLOAD PUSH32 0xFFFFFFFFFFFFFFFFFFFFFFFF0000000000000000000000000000000000000000 AND SWAP1 SWAP2 OR SWAP1 SSTORE JUMP JUMPDEST PUSH20 0xFFFFFFFFFFFFFFFFFFFFFFFFFFFFFFFFFFFFFFFF DUP3 AND PUSH2 0x10F3 JUMPI PUSH1 0x40 MLOAD PUSH32 0x8C379A000000000000000000000000000000000000000000000000000000000 DUP2 MSTORE PUSH1 0x20 PUSH1 0x4 DUP3 ADD MSTORE PUSH1 0x37 PUSH1 0x24 DUP3 ADD MSTORE PUSH32 0x4C69624469616D6F6E644375743A2043616E27742072656D6F76652066756E63 PUSH1 0x44 DUP3 ADD MSTORE PUSH32 0x74696F6E207468617420646F65736E2774206578697374000000000000000000 PUSH1 0x64 DUP3 ADD MSTORE PUSH1 0x84 ADD PUSH2 0x163 JUMP JUMPDEST PUSH20 0xFFFFFFFFFFFFFFFFFFFFFFFFFFFFFFFFFFFFFFFF DUP3 AND ADDRESS EQ ISZERO PUSH2 0x1199 JUMPI PUSH1 0x40 MLOAD PUSH32 0x8C379A000000000000000000000000000000000000000000000000000000000 DUP2 MSTORE PUSH1 0x20 PUSH1 0x4 DUP3 ADD MSTORE PUSH1 0x2E PUSH1 0x24 DUP3 ADD MSTORE PUSH32 0x4C69624469616D6F6E644375743A2043616E27742072656D6F766520696D6D75 PUSH1 0x44 DUP3 ADD MSTORE PUSH32 0x7461626C652066756E6374696F6E000000000000000000000000000000000000 PUSH1 0x64 DUP3 ADD MSTORE PUSH1 0x84 ADD PUSH2 0x163 JUMP JUMPDEST PUSH32 0xFFFFFFFF00000000000000000000000000000000000000000000000000000000 DUP2 AND PUSH1 0x0 SWAP1 DUP2 MSTORE PUSH1 0x20 DUP5 DUP2 MSTORE PUSH1 0x40 DUP1 DUP4 KECCAK256 SLOAD PUSH20 0xFFFFFFFFFFFFFFFFFFFFFFFFFFFFFFFFFFFFFFFF DUP7 AND DUP5 MSTORE PUSH1 0x1 DUP1 DUP9 ADD SWAP1 SWAP4 MSTORE SWAP1 DUP4 KECCAK256 SLOAD PUSH21 0x10000000000000000000000000000000000000000 SWAP1 SWAP2 DIV PUSH12 0xFFFFFFFFFFFFFFFFFFFFFFFF AND SWAP3 SWAP2 PUSH2 0x1223 SWAP2 PUSH2 0x1C4E JUMP JUMPDEST SWAP1 POP DUP1 DUP3 EQ PUSH2 0x136A JUMPI PUSH20 0xFFFFFFFFFFFFFFFFFFFFFFFFFFFFFFFFFFFFFFFF DUP5 AND PUSH1 0x0 SWAP1 DUP2 MSTORE PUSH1 0x1 DUP7 ADD PUSH1 0x20 MSTORE PUSH1 0x40 DUP2 KECCAK256 DUP1 SLOAD DUP4 SWAP1 DUP2 LT PUSH2 0x1265 JUMPI PUSH2 0x1265 PUSH2 0x1948 JUMP JUMPDEST PUSH1 0x0 SWAP2 DUP3 MSTORE PUSH1 0x20 DUP1 DUP4 KECCAK256 PUSH1 0x8 DUP4 DIV ADD SLOAD PUSH20 0xFFFFFFFFFFFFFFFFFFFFFFFFFFFFFFFFFFFFFFFF DUP10 AND DUP5 MSTORE PUSH1 0x1 DUP11 ADD SWAP1 SWAP2 MSTORE PUSH1 0x40 SWAP1 SWAP3 KECCAK256 DUP1 SLOAD PUSH1 0x7 SWAP1 SWAP3 AND PUSH1 0x4 MUL PUSH2 0x100 EXP SWAP1 SWAP3 DIV PUSH1 0xE0 SHL SWAP3 POP DUP3 SWAP2 SWAP1 DUP6 SWAP1 DUP2 LT PUSH2 0x12C3 JUMPI PUSH2 0x12C3 PUSH2 0x1948 JUMP JUMPDEST PUSH1 0x0 SWAP2 DUP3 MSTORE PUSH1 0x20 DUP1 DUP4 KECCAK256 PUSH1 0x8 DUP4 DIV ADD DUP1 SLOAD PUSH4 0xFFFFFFFF PUSH1 0x7 SWAP1 SWAP5 AND PUSH1 0x4 MUL PUSH2 0x100 EXP SWAP4 DUP5 MUL NOT AND PUSH1 0xE0 SWAP6 SWAP1 SWAP6 SHR SWAP3 SWAP1 SWAP3 MUL SWAP4 SWAP1 SWAP4 OR SWAP1 SSTORE PUSH32 0xFFFFFFFF00000000000000000000000000000000000000000000000000000000 SWAP3 SWAP1 SWAP3 AND DUP3 MSTORE DUP7 SWAP1 MSTORE PUSH1 0x40 SWAP1 KECCAK256 DUP1 SLOAD PUSH20 0xFFFFFFFFFFFFFFFFFFFFFFFFFFFFFFFFFFFFFFFF AND PUSH21 0x10000000000000000000000000000000000000000 PUSH12 0xFFFFFFFFFFFFFFFFFFFFFFFF DUP6 AND MUL OR SWAP1 SSTORE JUMPDEST PUSH20 0xFFFFFFFFFFFFFFFFFFFFFFFFFFFFFFFFFFFFFFFF DUP5 AND PUSH1 0x0 SWAP1 DUP2 MSTORE PUSH1 0x1 DUP7 ADD PUSH1 0x20 MSTORE PUSH1 0x40 SWAP1 KECCAK256 DUP1 SLOAD DUP1 PUSH2 0x13A0 JUMPI PUSH2 0x13A0 PUSH2 0x1C65 JUMP JUMPDEST PUSH1 0x0 DUP3 DUP2 MSTORE PUSH1 0x20 DUP1 DUP3 KECCAK256 PUSH1 0x8 PUSH32 0xFFFFFFFFFFFFFFFFFFFFFFFFFFFFFFFFFFFFFFFFFFFFFFFFFFFFFFFFFFFFFFFF SWAP1 SWAP5 ADD SWAP4 DUP5 DIV ADD DUP1 SLOAD PUSH4 0xFFFFFFFF PUSH1 0x4 PUSH1 0x7 DUP8 AND MUL PUSH2 0x100 EXP MUL NOT AND SWAP1 SSTORE SWAP2 SWAP1 SWAP3 SSTORE PUSH32 0xFFFFFFFF00000000000000000000000000000000000000000000000000000000 DUP6 AND DUP3 MSTORE DUP7 SWAP1 MSTORE PUSH1 0x40 DUP2 KECCAK256 SSTORE DUP1 PUSH2 0x97 JUMPI PUSH1 0x2 DUP6 ADD SLOAD PUSH1 0x0 SWAP1 PUSH2 0x1435 SWAP1 PUSH1 0x1 SWAP1 PUSH2 0x1C4E JUMP JUMPDEST PUSH20 0xFFFFFFFFFFFFFFFFFFFFFFFFFFFFFFFFFFFFFFFF DUP7 AND PUSH1 0x0 SWAP1 DUP2 MSTORE PUSH1 0x1 DUP1 DUP10 ADD PUSH1 0x20 MSTORE PUSH1 0x40 SWAP1 SWAP2 KECCAK256 ADD SLOAD SWAP1 SWAP2 POP DUP1 DUP3 EQ PUSH2 0x1523 JUMPI PUSH1 0x0 DUP8 PUSH1 0x2 ADD DUP4 DUP2 SLOAD DUP2 LT PUSH2 0x1481 JUMPI PUSH2 0x1481 PUSH2 0x1948 JUMP JUMPDEST PUSH1 0x0 SWAP2 DUP3 MSTORE PUSH1 0x20 SWAP1 SWAP2 KECCAK256 ADD SLOAD PUSH1 0x2 DUP10 ADD DUP1 SLOAD PUSH20 0xFFFFFFFFFFFFFFFFFFFFFFFFFFFFFFFFFFFFFFFF SWAP1 SWAP3 AND SWAP3 POP DUP3 SWAP2 DUP5 SWAP1 DUP2 LT PUSH2 0x14BF JUMPI PUSH2 0x14BF PUSH2 0x1948 JUMP JUMPDEST PUSH1 0x0 SWAP2 DUP3 MSTORE PUSH1 0x20 DUP1 DUP4 KECCAK256 SWAP2 SWAP1 SWAP2 ADD DUP1 SLOAD PUSH32 0xFFFFFFFFFFFFFFFFFFFFFFFF0000000000000000000000000000000000000000 AND PUSH20 0xFFFFFFFFFFFFFFFFFFFFFFFFFFFFFFFFFFFFFFFF SWAP5 DUP6 AND OR SWAP1 SSTORE SWAP3 SWAP1 SWAP2 AND DUP2 MSTORE PUSH1 0x1 DUP10 DUP2 ADD SWAP1 SWAP3 MSTORE PUSH1 0x40 SWAP1 KECCAK256 ADD DUP2 SWAP1 SSTORE JUMPDEST DUP7 PUSH1 0x2 ADD DUP1 SLOAD DUP1 PUSH2 0x1536 JUMPI PUSH2 0x1536 PUSH2 0x1C65 JUMP JUMPDEST PUSH1 0x0 DUP3 DUP2 MSTORE PUSH1 0x20 DUP1 DUP3 KECCAK256 DUP4 ADD PUSH32 0xFFFFFFFFFFFFFFFFFFFFFFFFFFFFFFFFFFFFFFFFFFFFFFFFFFFFFFFFFFFFFFFF SWAP1 DUP2 ADD DUP1 SLOAD PUSH32 0xFFFFFFFFFFFFFFFFFFFFFFFF0000000000000000000000000000000000000000 AND SWAP1 SSTORE SWAP1 SWAP3 ADD SWAP1 SWAP3 SSTORE PUSH20 0xFFFFFFFFFFFFFFFFFFFFFFFFFFFFFFFFFFFFFFFF DUP9 AND DUP3 MSTORE PUSH1 0x1 DUP10 DUP2 ADD SWAP1 SWAP2 MSTORE PUSH1 0x40 DUP3 KECCAK256 ADD SSTORE POP POP POP POP POP POP POP JUMP JUMPDEST DUP2 EXTCODESIZE DUP2 DUP2 PUSH2 0xD08 JUMPI PUSH1 0x40 MLOAD PUSH32 0x8C379A000000000000000000000000000000000000000000000000000000000 DUP2 MSTORE PUSH1 0x4 ADD PUSH2 0x163 SWAP2 SWAP1 PUSH2 0x1C34 JUMP JUMPDEST DUP1 CALLDATALOAD PUSH20 0xFFFFFFFFFFFFFFFFFFFFFFFFFFFFFFFFFFFFFFFF DUP2 AND DUP2 EQ PUSH2 0x1621 JUMPI PUSH1 0x0 DUP1 REVERT JUMPDEST SWAP2 SWAP1 POP JUMP JUMPDEST PUSH1 0x0 DUP1 DUP4 PUSH1 0x1F DUP5 ADD SLT PUSH2 0x1638 JUMPI PUSH1 0x0 DUP1 REVERT JUMPDEST POP DUP2 CALLDATALOAD PUSH8 0xFFFFFFFFFFFFFFFF DUP2 GT ISZERO PUSH2 0x1650 JUMPI PUSH1 0x0 DUP1 REVERT JUMPDEST PUSH1 0x20 DUP4 ADD SWAP2 POP DUP4 PUSH1 0x20 DUP3 DUP6 ADD ADD GT ISZERO PUSH2 0x1668 JUMPI PUSH1 0x0 DUP1 REVERT JUMPDEST SWAP3 POP SWAP3 SWAP1 POP JUMP JUMPDEST PUSH1 0x0 DUP1 PUSH1 0x0 DUP1 PUSH1 0x0 PUSH1 0x60 DUP7 DUP9 SUB SLT ISZERO PUSH2 0x1687 JUMPI PUSH1 0x0 DUP1 REVERT JUMPDEST DUP6 CALLDATALOAD PUSH8 0xFFFFFFFFFFFFFFFF DUP1 DUP3 GT ISZERO PUSH2 0x169F JUMPI PUSH1 0x0 DUP1 REVERT JUMPDEST DUP2 DUP9 ADD SWAP2 POP DUP9 PUSH1 0x1F DUP4 ADD SLT PUSH2 0x16B3 JUMPI PUSH1 0x0 DUP1 REVERT JUMPDEST DUP2 CALLDATALOAD DUP2 DUP2 GT ISZERO PUSH2 0x16C2 JUMPI PUSH1 0x0 DUP1 REVERT JUMPDEST DUP10 PUSH1 0x20 DUP3 PUSH1 0x5 SHL DUP6 ADD ADD GT ISZERO PUSH2 0x16D7 JUMPI PUSH1 0x0 DUP1 REVERT JUMPDEST PUSH1 0x20 DUP4 ADD SWAP8 POP DUP1 SWAP7 POP POP PUSH2 0x16ED PUSH1 0x20 DUP10 ADD PUSH2 0x15FD JUMP JUMPDEST SWAP5 POP PUSH1 0x40 DUP9 ADD CALLDATALOAD SWAP2 POP DUP1 DUP3 GT ISZERO PUSH2 0x1703 JUMPI PUSH1 0x0 DUP1 REVERT JUMPDEST POP PUSH2 0x1710 DUP9 DUP3 DUP10 ADD PUSH2 0x1626 JUMP JUMPDEST SWAP7 SWAP10 SWAP6 SWAP9 POP SWAP4 SWAP7 POP SWAP3 SWAP5 SWAP4 SWAP3 POP POP POP JUMP JUMPDEST PUSH32 0x4E487B7100000000000000000000000000000000000000000000000000000000 PUSH1 0x0 MSTORE PUSH1 0x41 PUSH1 0x4 MSTORE PUSH1 0x24 PUSH1 0x0 REVERT JUMPDEST PUSH1 0x40 MLOAD PUSH1 0x60 DUP2 ADD PUSH8 0xFFFFFFFFFFFFFFFF DUP2 GT DUP3 DUP3 LT OR ISZERO PUSH2 0x1773 JUMPI PUSH2 0x1773 PUSH2 0x1721 JUMP JUMPDEST PUSH1 0x40 MSTORE SWAP1 JUMP JUMPDEST PUSH1 0x40 MLOAD PUSH1 0x1F DUP3 ADD PUSH32 0xFFFFFFFFFFFFFFFFFFFFFFFFFFFFFFFFFFFFFFFFFFFFFFFFFFFFFFFFFFFFFFE0 AND DUP2 ADD PUSH8 0xFFFFFFFFFFFFFFFF DUP2 GT DUP3 DUP3 LT OR ISZERO PUSH2 0x17C0 JUMPI PUSH2 0x17C0 PUSH2 0x1721 JUMP JUMPDEST PUSH1 0x40 MSTORE SWAP2 SWAP1 POP JUMP JUMPDEST PUSH1 0x0 PUSH8 0xFFFFFFFFFFFFFFFF DUP3 GT ISZERO PUSH2 0x17E2 JUMPI PUSH2 0x17E2 PUSH2 0x1721 JUMP JUMPDEST POP PUSH1 0x5 SHL PUSH1 0x20 ADD SWAP1 JUMP JUMPDEST PUSH1 0x0 PUSH2 0x17FF PUSH2 0x17FA DUP5 PUSH2 0x17C8 JUMP JUMPDEST PUSH2 0x1779 JUMP JUMPDEST DUP4 DUP2 MSTORE PUSH1 0x20 DUP1 DUP3 ADD SWAP2 SWAP1 PUSH1 0x5 DUP7 DUP2 SHL DUP7 ADD CALLDATASIZE DUP2 GT ISZERO PUSH2 0x181D JUMPI PUSH1 0x0 DUP1 REVERT JUMPDEST DUP7 JUMPDEST DUP2 DUP2 LT ISZERO PUSH2 0x193B JUMPI DUP1 CALLDATALOAD PUSH8 0xFFFFFFFFFFFFFFFF DUP1 DUP3 GT ISZERO PUSH2 0x1840 JUMPI PUSH1 0x0 DUP1 DUP2 REVERT JUMPDEST DUP2 DUP11 ADD SWAP2 POP PUSH1 0x60 DUP3 CALLDATASIZE SUB SLT ISZERO PUSH2 0x1856 JUMPI PUSH1 0x0 DUP1 DUP2 REVERT JUMPDEST PUSH2 0x185E PUSH2 0x1750 JUMP JUMPDEST PUSH2 0x1867 DUP4 PUSH2 0x15FD JUMP JUMPDEST DUP2 MSTORE DUP7 DUP4 ADD CALLDATALOAD PUSH1 0x3 DUP2 LT PUSH2 0x187B JUMPI PUSH1 0x0 DUP1 DUP2 REVERT JUMPDEST DUP2 DUP9 ADD MSTORE PUSH1 0x40 DUP4 DUP2 ADD CALLDATALOAD DUP4 DUP2 GT ISZERO PUSH2 0x1893 JUMPI PUSH1 0x0 DUP1 DUP2 REVERT JUMPDEST SWAP4 SWAP1 SWAP4 ADD SWAP3 CALLDATASIZE PUSH1 0x1F DUP6 ADD SLT PUSH2 0x18AA JUMPI PUSH1 0x0 SWAP3 POP DUP3 DUP4 REVERT JUMPDEST DUP4 CALLDATALOAD SWAP3 POP PUSH2 0x18BA PUSH2 0x17FA DUP5 PUSH2 0x17C8 JUMP JUMPDEST DUP4 DUP2 MSTORE SWAP3 DUP8 SHL DUP5 ADD DUP9 ADD SWAP3 DUP9 DUP2 ADD SWAP1 CALLDATASIZE DUP6 GT ISZERO PUSH2 0x18D7 JUMPI PUSH1 0x0 DUP1 DUP2 REVERT JUMPDEST SWAP5 DUP10 ADD SWAP5 JUMPDEST DUP5 DUP7 LT ISZERO PUSH2 0x1924 JUMPI DUP6 CALLDATALOAD PUSH32 0xFFFFFFFF00000000000000000000000000000000000000000000000000000000 DUP2 AND DUP2 EQ PUSH2 0x1915 JUMPI PUSH1 0x0 DUP1 DUP2 REVERT JUMPDEST DUP3 MSTORE SWAP5 DUP10 ADD SWAP5 SWAP1 DUP10 ADD SWAP1 PUSH2 0x18DC JUMP JUMPDEST SWAP2 DUP4 ADD SWAP2 SWAP1 SWAP2 MSTORE POP DUP9 MSTORE POP POP SWAP5 DUP4 ADD SWAP5 DUP4 ADD PUSH2 0x181F JUMP JUMPDEST POP SWAP3 SWAP8 SWAP7 POP POP POP POP POP POP POP JUMP JUMPDEST PUSH32 0x4E487B7100000000000000000000000000000000000000000000000000000000 PUSH1 0x0 MSTORE PUSH1 0x32 PUSH1 0x4 MSTORE PUSH1 0x24 PUSH1 0x0 REVERT JUMPDEST PUSH32 0x4E487B7100000000000000000000000000000000000000000000000000000000 PUSH1 0x0 MSTORE PUSH1 0x21 PUSH1 0x4 MSTORE PUSH1 0x24 PUSH1 0x0 REVERT JUMPDEST PUSH32 0x4E487B7100000000000000000000000000000000000000000000000000000000 PUSH1 0x0 MSTORE PUSH1 0x11 PUSH1 0x4 MSTORE PUSH1 0x24 PUSH1 0x0 REVERT JUMPDEST PUSH1 0x0 PUSH32 0xFFFFFFFFFFFFFFFFFFFFFFFFFFFFFFFFFFFFFFFFFFFFFFFFFFFFFFFFFFFFFFFF DUP3 EQ ISZERO PUSH2 0x1A07 JUMPI PUSH2 0x1A07 PUSH2 0x19A6 JUMP JUMPDEST POP PUSH1 0x1 ADD SWAP1 JUMP JUMPDEST PUSH1 0x0 JUMPDEST DUP4 DUP2 LT ISZERO PUSH2 0x1A29 JUMPI DUP2 DUP2 ADD MLOAD DUP4 DUP3 ADD MSTORE PUSH1 0x20 ADD PUSH2 0x1A11 JUMP JUMPDEST DUP4 DUP2 GT ISZERO PUSH2 0xD08 JUMPI POP POP PUSH1 0x0 SWAP2 ADD MSTORE JUMP JUMPDEST PUSH1 0x0 DUP2 MLOAD DUP1 DUP5 MSTORE PUSH2 0x1A52 DUP2 PUSH1 0x20 DUP7 ADD PUSH1 0x20 DUP7 ADD PUSH2 0x1A0E JUMP JUMPDEST PUSH1 0x1F ADD PUSH32 0xFFFFFFFFFFFFFFFFFFFFFFFFFFFFFFFFFFFFFFFFFFFFFFFFFFFFFFFFFFFFFFE0 AND SWAP3 SWAP1 SWAP3 ADD PUSH1 0x20 ADD SWAP3 SWAP2 POP POP JUMP JUMPDEST PUSH1 0x0 PUSH1 0x60 DUP1 DUP4 ADD DUP2 DUP5 MSTORE DUP1 DUP8 MLOAD DUP1 DUP4 MSTORE PUSH1 0x80 SWAP3 POP DUP3 DUP7 ADD SWAP2 POP DUP3 DUP2 PUSH1 0x5 SHL DUP8 ADD ADD PUSH1 0x20 DUP1 DUP12 ADD PUSH1 0x0 JUMPDEST DUP5 DUP2 LT ISZERO PUSH2 0x1BAF JUMPI PUSH32 0xFFFFFFFFFFFFFFFFFFFFFFFFFFFFFFFFFFFFFFFFFFFFFFFFFFFFFFFFFFFFFF80 DUP11 DUP6 SUB ADD DUP7 MSTORE DUP2 MLOAD DUP9 DUP6 ADD PUSH20 0xFFFFFFFFFFFFFFFFFFFFFFFFFFFFFFFFFFFFFFFF DUP3 MLOAD AND DUP7 MSTORE DUP5 DUP3 ADD MLOAD PUSH1 0x3 DUP2 LT PUSH2 0x1B36 JUMPI PUSH32 0x4E487B7100000000000000000000000000000000000000000000000000000000 PUSH1 0x0 MSTORE PUSH1 0x21 PUSH1 0x4 MSTORE PUSH1 0x24 PUSH1 0x0 REVERT JUMPDEST DUP7 DUP7 ADD MSTORE PUSH1 0x40 SWAP2 DUP3 ADD MLOAD SWAP2 DUP7 ADD DUP11 SWAP1 MSTORE DUP2 MLOAD SWAP1 DUP2 SWAP1 MSTORE SWAP1 DUP5 ADD SWAP1 PUSH1 0x0 SWAP1 DUP10 DUP8 ADD SWAP1 JUMPDEST DUP1 DUP4 LT ISZERO PUSH2 0x1B9A JUMPI DUP4 MLOAD PUSH32 0xFFFFFFFF00000000000000000000000000000000000000000000000000000000 AND DUP3 MSTORE SWAP3 DUP7 ADD SWAP3 PUSH1 0x1 SWAP3 SWAP1 SWAP3 ADD SWAP2 SWAP1 DUP7 ADD SWAP1 PUSH2 0x1B58 JUMP JUMPDEST POP SWAP8 DUP6 ADD SWAP8 SWAP6 POP POP POP SWAP1 DUP3 ADD SWAP1 PUSH1 0x1 ADD PUSH2 0x1AAD JUMP JUMPDEST POP POP PUSH20 0xFFFFFFFFFFFFFFFFFFFFFFFFFFFFFFFFFFFFFFFF DUP11 AND SWAP1 DUP9 ADD MSTORE DUP7 DUP2 SUB PUSH1 0x40 DUP9 ADD MSTORE PUSH2 0x1BDE DUP2 DUP10 PUSH2 0x1A3A JUMP JUMPDEST SWAP11 SWAP10 POP POP POP POP POP POP POP POP POP POP JUMP JUMPDEST PUSH1 0x0 PUSH12 0xFFFFFFFFFFFFFFFFFFFFFFFF DUP1 DUP4 AND DUP2 DUP2 EQ ISZERO PUSH2 0x1C0E JUMPI PUSH2 0x1C0E PUSH2 0x19A6 JUMP JUMPDEST PUSH1 0x1 ADD SWAP4 SWAP3 POP POP POP JUMP JUMPDEST PUSH1 0x0 DUP3 MLOAD PUSH2 0x1C2A DUP2 DUP5 PUSH1 0x20 DUP8 ADD PUSH2 0x1A0E JUMP JUMPDEST SWAP2 SWAP1 SWAP2 ADD SWAP3 SWAP2 POP POP JUMP JUMPDEST PUSH1 0x20 DUP2 MSTORE PUSH1 0x0 PUSH2 0x1C47 PUSH1 0x20 DUP4 ADD DUP5 PUSH2 0x1A3A JUMP JUMPDEST SWAP4 SWAP3 POP POP POP JUMP JUMPDEST PUSH1 0x0 DUP3 DUP3 LT ISZERO PUSH2 0x1C60 JUMPI PUSH2 0x1C60 PUSH2 0x19A6 JUMP JUMPDEST POP SUB SWAP1 JUMP JUMPDEST PUSH32 0x4E487B7100000000000000000000000000000000000000000000000000000000 PUSH1 0x0 MSTORE PUSH1 0x31 PUSH1 0x4 MSTORE PUSH1 0x24 PUSH1 0x0 REVERT INVALID 0x4C PUSH10 0x624469616D6F6E644375 PUSH21 0x3A205F696E6974206164647265737320686173206E PUSH16 0x20636F64654C69624469616D6F6E6443 PUSH22 0x743A204E657720666163657420686173206E6F20636F PUSH5 0x65A2646970 PUSH7 0x7358221220E81A 0x29 DUP12 PUSH17 0x6AF5E6F506858188273BB2CE2567698530 SIGNEXTEND STATICCALL ADDMOD 0xAE PUSH2 0x105 0x1E 0xC9 0xBF PUSH5 0x736F6C6343 STOP ADDMOD MULMOD STOP CALLER PUSH1 0x80 PUSH1 0x40 MSTORE CALLVALUE DUP1 ISZERO PUSH2 0x10 JUMPI PUSH1 0x0 DUP1 REVERT JUMPDEST POP PUSH2 0x84E DUP1 PUSH2 0x20 PUSH1 0x0 CODECOPY PUSH1 0x0 RETURN INVALID PUSH1 0x80 PUSH1 0x40 MSTORE CALLVALUE DUP1 ISZERO PUSH2 0x10 JUMPI PUSH1 0x0 DUP1 REVERT JUMPDEST POP PUSH1 0x4 CALLDATASIZE LT PUSH2 0x67 JUMPI PUSH1 0x0 CALLDATALOAD PUSH1 0xE0 SHR DUP1 PUSH4 0x7A0ED627 GT PUSH2 0x50 JUMPI DUP1 PUSH4 0x7A0ED627 EQ PUSH2 0xFA JUMPI DUP1 PUSH4 0xADFCA15E EQ PUSH2 0x10F JUMPI DUP1 PUSH4 0xCDFFACC6 EQ PUSH2 0x12F JUMPI PUSH1 0x0 DUP1 REVERT JUMPDEST DUP1 PUSH4 0x1FFC9A7 EQ PUSH2 0x6C JUMPI DUP1 PUSH4 0x52EF6B2C EQ PUSH2 0xE5 JUMPI JUMPDEST PUSH1 0x0 DUP1 REVERT JUMPDEST PUSH2 0xD0 PUSH2 0x7A CALLDATASIZE PUSH1 0x4 PUSH2 0x569 JUMP JUMPDEST PUSH32 0xFFFFFFFF00000000000000000000000000000000000000000000000000000000 AND PUSH1 0x0 SWAP1 DUP2 MSTORE PUSH32 0xC8FCAD8DB84D3CC18B4C41D551EA0EE66DD599CDE068D998E57D5E09332C131F PUSH1 0x20 MSTORE PUSH1 0x40 SWAP1 KECCAK256 SLOAD PUSH1 0xFF AND SWAP1 JUMP JUMPDEST PUSH1 0x40 MLOAD SWAP1 ISZERO ISZERO DUP2 MSTORE PUSH1 0x20 ADD JUMPDEST PUSH1 0x40 MLOAD DUP1 SWAP2 SUB SWAP1 RETURN JUMPDEST PUSH2 0xED PUSH2 0x1CB JUMP JUMPDEST PUSH1 0x40 MLOAD PUSH2 0xDC SWAP2 SWAP1 PUSH2 0x5B2 JUMP JUMPDEST PUSH2 0x102 PUSH2 0x25D JUMP JUMPDEST PUSH1 0x40 MLOAD PUSH2 0xDC SWAP2 SWAP1 PUSH2 0x669 JUMP JUMPDEST PUSH2 0x122 PUSH2 0x11D CALLDATASIZE PUSH1 0x4 PUSH2 0x711 JUMP JUMPDEST PUSH2 0x469 JUMP JUMPDEST PUSH1 0x40 MLOAD PUSH2 0xDC SWAP2 SWAP1 PUSH2 0x747 JUMP JUMPDEST PUSH2 0x1A6 PUSH2 0x13D CALLDATASIZE PUSH1 0x4 PUSH2 0x569 JUMP JUMPDEST PUSH32 0xFFFFFFFF00000000000000000000000000000000000000000000000000000000 AND PUSH1 0x0 SWAP1 DUP2 MSTORE PUSH32 0xC8FCAD8DB84D3CC18B4C41D551EA0EE66DD599CDE068D998E57D5E09332C131C PUSH1 0x20 MSTORE PUSH1 0x40 SWAP1 KECCAK256 SLOAD PUSH20 0xFFFFFFFFFFFFFFFFFFFFFFFFFFFFFFFFFFFFFFFF AND SWAP1 JUMP JUMPDEST PUSH1 0x40 MLOAD PUSH20 0xFFFFFFFFFFFFFFFFFFFFFFFFFFFFFFFFFFFFFFFF SWAP1 SWAP2 AND DUP2 MSTORE PUSH1 0x20 ADD PUSH2 0xDC JUMP JUMPDEST PUSH1 0x60 PUSH1 0x0 PUSH32 0xC8FCAD8DB84D3CC18B4C41D551EA0EE66DD599CDE068D998E57D5E09332C131C PUSH1 0x2 DUP2 ADD DUP1 SLOAD PUSH1 0x40 DUP1 MLOAD PUSH1 0x20 DUP1 DUP5 MUL DUP3 ADD DUP2 ADD SWAP1 SWAP3 MSTORE DUP3 DUP2 MSTORE SWAP4 SWAP5 POP DUP4 ADD DUP3 DUP3 DUP1 ISZERO PUSH2 0x252 JUMPI PUSH1 0x20 MUL DUP3 ADD SWAP2 SWAP1 PUSH1 0x0 MSTORE PUSH1 0x20 PUSH1 0x0 KECCAK256 SWAP1 JUMPDEST DUP2 SLOAD PUSH20 0xFFFFFFFFFFFFFFFFFFFFFFFFFFFFFFFFFFFFFFFF AND DUP2 MSTORE PUSH1 0x1 SWAP1 SWAP2 ADD SWAP1 PUSH1 0x20 ADD DUP1 DUP4 GT PUSH2 0x227 JUMPI JUMPDEST POP POP POP POP POP SWAP2 POP POP SWAP1 JUMP JUMPDEST PUSH32 0xC8FCAD8DB84D3CC18B4C41D551EA0EE66DD599CDE068D998E57D5E09332C131E SLOAD PUSH1 0x60 SWAP1 PUSH32 0xC8FCAD8DB84D3CC18B4C41D551EA0EE66DD599CDE068D998E57D5E09332C131C SWAP1 DUP1 PUSH8 0xFFFFFFFFFFFFFFFF DUP2 GT ISZERO PUSH2 0x2BD JUMPI PUSH2 0x2BD PUSH2 0x75A JUMP JUMPDEST PUSH1 0x40 MLOAD SWAP1 DUP1 DUP3 MSTORE DUP1 PUSH1 0x20 MUL PUSH1 0x20 ADD DUP3 ADD PUSH1 0x40 MSTORE DUP1 ISZERO PUSH2 0x303 JUMPI DUP2 PUSH1 0x20 ADD JUMPDEST PUSH1 0x40 DUP1 MLOAD DUP1 DUP3 ADD SWAP1 SWAP2 MSTORE PUSH1 0x0 DUP2 MSTORE PUSH1 0x60 PUSH1 0x20 DUP3 ADD MSTORE DUP2 MSTORE PUSH1 0x20 ADD SWAP1 PUSH1 0x1 SWAP1 SUB SWAP1 DUP2 PUSH2 0x2DB JUMPI SWAP1 POP JUMPDEST POP SWAP3 POP PUSH1 0x0 JUMPDEST DUP2 DUP2 LT ISZERO PUSH2 0x463 JUMPI PUSH1 0x0 DUP4 PUSH1 0x2 ADD DUP3 DUP2 SLOAD DUP2 LT PUSH2 0x328 JUMPI PUSH2 0x328 PUSH2 0x789 JUMP JUMPDEST SWAP1 PUSH1 0x0 MSTORE PUSH1 0x20 PUSH1 0x0 KECCAK256 ADD PUSH1 0x0 SWAP1 SLOAD SWAP1 PUSH2 0x100 EXP SWAP1 DIV PUSH20 0xFFFFFFFFFFFFFFFFFFFFFFFFFFFFFFFFFFFFFFFF AND SWAP1 POP DUP1 DUP6 DUP4 DUP2 MLOAD DUP2 LT PUSH2 0x368 JUMPI PUSH2 0x368 PUSH2 0x789 JUMP JUMPDEST PUSH1 0x20 SWAP1 DUP2 MUL SWAP2 SWAP1 SWAP2 ADD DUP2 ADD MLOAD PUSH20 0xFFFFFFFFFFFFFFFFFFFFFFFFFFFFFFFFFFFFFFFF SWAP3 DUP4 AND SWAP1 MSTORE SWAP1 DUP3 AND PUSH1 0x0 SWAP1 DUP2 MSTORE PUSH1 0x1 DUP7 ADD DUP3 MSTORE PUSH1 0x40 SWAP1 DUP2 SWAP1 KECCAK256 DUP1 SLOAD DUP3 MLOAD DUP2 DUP6 MUL DUP2 ADD DUP6 ADD SWAP1 SWAP4 MSTORE DUP1 DUP4 MSTORE SWAP2 SWAP3 SWAP1 SWAP2 SWAP1 DUP4 ADD DUP3 DUP3 DUP1 ISZERO PUSH2 0x429 JUMPI PUSH1 0x20 MUL DUP3 ADD SWAP2 SWAP1 PUSH1 0x0 MSTORE PUSH1 0x20 PUSH1 0x0 KECCAK256 SWAP1 PUSH1 0x0 SWAP1 JUMPDEST DUP3 DUP3 SWAP1 SLOAD SWAP1 PUSH2 0x100 EXP SWAP1 DIV PUSH1 0xE0 SHL PUSH28 0xFFFFFFFFFFFFFFFFFFFFFFFFFFFFFFFFFFFFFFFFFFFFFFFFFFFFFFFF NOT AND DUP2 MSTORE PUSH1 0x20 ADD SWAP1 PUSH1 0x4 ADD SWAP1 PUSH1 0x20 DUP3 PUSH1 0x3 ADD DIV SWAP3 DUP4 ADD SWAP3 PUSH1 0x1 SUB DUP3 MUL SWAP2 POP DUP1 DUP5 GT PUSH2 0x3D6 JUMPI SWAP1 POP JUMPDEST POP POP POP POP POP DUP6 DUP4 DUP2 MLOAD DUP2 LT PUSH2 0x440 JUMPI PUSH2 0x440 PUSH2 0x789 JUMP JUMPDEST PUSH1 0x20 MUL PUSH1 0x20 ADD ADD MLOAD PUSH1 0x20 ADD DUP2 SWAP1 MSTORE POP POP DUP1 DUP1 PUSH2 0x45B SWAP1 PUSH2 0x7B8 JUMP JUMPDEST SWAP2 POP POP PUSH2 0x309 JUMP JUMPDEST POP POP POP SWAP1 JUMP JUMPDEST PUSH20 0xFFFFFFFFFFFFFFFFFFFFFFFFFFFFFFFFFFFFFFFF DUP2 AND PUSH1 0x0 SWAP1 DUP2 MSTORE PUSH32 0xC8FCAD8DB84D3CC18B4C41D551EA0EE66DD599CDE068D998E57D5E09332C131D PUSH1 0x20 SWAP1 DUP2 MSTORE PUSH1 0x40 SWAP2 DUP3 SWAP1 KECCAK256 DUP1 SLOAD DUP4 MLOAD DUP2 DUP5 MUL DUP2 ADD DUP5 ADD SWAP1 SWAP5 MSTORE DUP1 DUP5 MSTORE PUSH1 0x60 SWAP4 PUSH32 0xC8FCAD8DB84D3CC18B4C41D551EA0EE66DD599CDE068D998E57D5E09332C131C SWAP4 SWAP1 SWAP3 SWAP2 SWAP1 DUP4 ADD DUP3 DUP3 DUP1 ISZERO PUSH2 0x55C JUMPI PUSH1 0x20 MUL DUP3 ADD SWAP2 SWAP1 PUSH1 0x0 MSTORE PUSH1 0x20 PUSH1 0x0 KECCAK256 SWAP1 PUSH1 0x0 SWAP1 JUMPDEST DUP3 DUP3 SWAP1 SLOAD SWAP1 PUSH2 0x100 EXP SWAP1 DIV PUSH1 0xE0 SHL PUSH28 0xFFFFFFFFFFFFFFFFFFFFFFFFFFFFFFFFFFFFFFFFFFFFFFFFFFFFFFFF NOT AND DUP2 MSTORE PUSH1 0x20 ADD SWAP1 PUSH1 0x4 ADD SWAP1 PUSH1 0x20 DUP3 PUSH1 0x3 ADD DIV SWAP3 DUP4 ADD SWAP3 PUSH1 0x1 SUB DUP3 MUL SWAP2 POP DUP1 DUP5 GT PUSH2 0x509 JUMPI SWAP1 POP JUMPDEST POP POP POP POP POP SWAP2 POP POP SWAP2 SWAP1 POP JUMP JUMPDEST PUSH1 0x0 PUSH1 0x20 DUP3 DUP5 SUB SLT ISZERO PUSH2 0x57B JUMPI PUSH1 0x0 DUP1 REVERT JUMPDEST DUP2 CALLDATALOAD PUSH32 0xFFFFFFFF00000000000000000000000000000000000000000000000000000000 DUP2 AND DUP2 EQ PUSH2 0x5AB JUMPI PUSH1 0x0 DUP1 REVERT JUMPDEST SWAP4 SWAP3 POP POP POP JUMP JUMPDEST PUSH1 0x20 DUP1 DUP3 MSTORE DUP3 MLOAD DUP3 DUP3 ADD DUP2 SWAP1 MSTORE PUSH1 0x0 SWAP2 SWAP1 DUP5 DUP3 ADD SWAP1 PUSH1 0x40 DUP6 ADD SWAP1 DUP5 JUMPDEST DUP2 DUP2 LT ISZERO PUSH2 0x600 JUMPI DUP4 MLOAD PUSH20 0xFFFFFFFFFFFFFFFFFFFFFFFFFFFFFFFFFFFFFFFF AND DUP4 MSTORE SWAP3 DUP5 ADD SWAP3 SWAP2 DUP5 ADD SWAP2 PUSH1 0x1 ADD PUSH2 0x5CE JUMP JUMPDEST POP SWAP1 SWAP7 SWAP6 POP POP POP POP POP POP JUMP JUMPDEST PUSH1 0x0 DUP2 MLOAD DUP1 DUP5 MSTORE PUSH1 0x20 DUP1 DUP6 ADD SWAP5 POP DUP1 DUP5 ADD PUSH1 0x0 JUMPDEST DUP4 DUP2 LT ISZERO PUSH2 0x65E JUMPI DUP2 MLOAD PUSH32 0xFFFFFFFF00000000000000000000000000000000000000000000000000000000 AND DUP8 MSTORE SWAP6 DUP3 ADD SWAP6 SWAP1 DUP3 ADD SWAP1 PUSH1 0x1 ADD PUSH2 0x620 JUMP JUMPDEST POP SWAP5 SWAP6 SWAP5 POP POP POP POP POP JUMP JUMPDEST PUSH1 0x0 PUSH1 0x20 DUP1 DUP4 ADD DUP2 DUP5 MSTORE DUP1 DUP6 MLOAD DUP1 DUP4 MSTORE PUSH1 0x40 SWAP3 POP DUP3 DUP7 ADD SWAP2 POP DUP3 DUP2 PUSH1 0x5 SHL DUP8 ADD ADD DUP5 DUP9 ADD PUSH1 0x0 JUMPDEST DUP4 DUP2 LT ISZERO PUSH2 0x703 JUMPI DUP9 DUP4 SUB PUSH32 0xFFFFFFFFFFFFFFFFFFFFFFFFFFFFFFFFFFFFFFFFFFFFFFFFFFFFFFFFFFFFFFC0 ADD DUP6 MSTORE DUP2 MLOAD DUP1 MLOAD PUSH20 0xFFFFFFFFFFFFFFFFFFFFFFFFFFFFFFFFFFFFFFFF AND DUP5 MSTORE DUP8 ADD MLOAD DUP8 DUP5 ADD DUP8 SWAP1 MSTORE PUSH2 0x6F0 DUP8 DUP6 ADD DUP3 PUSH2 0x60C JUMP JUMPDEST SWAP6 DUP9 ADD SWAP6 SWAP4 POP POP SWAP1 DUP7 ADD SWAP1 PUSH1 0x1 ADD PUSH2 0x690 JUMP JUMPDEST POP SWAP1 SWAP9 SWAP8 POP POP POP POP POP POP POP POP JUMP JUMPDEST PUSH1 0x0 PUSH1 0x20 DUP3 DUP5 SUB SLT ISZERO PUSH2 0x723 JUMPI PUSH1 0x0 DUP1 REVERT JUMPDEST DUP2 CALLDATALOAD PUSH20 0xFFFFFFFFFFFFFFFFFFFFFFFFFFFFFFFFFFFFFFFF DUP2 AND DUP2 EQ PUSH2 0x5AB JUMPI PUSH1 0x0 DUP1 REVERT JUMPDEST PUSH1 0x20 DUP2 MSTORE PUSH1 0x0 PUSH2 0x5AB PUSH1 0x20 DUP4 ADD DUP5 PUSH2 0x60C JUMP JUMPDEST PUSH32 0x4E487B7100000000000000000000000000000000000000000000000000000000 PUSH1 0x0 MSTORE PUSH1 0x41 PUSH1 0x4 MSTORE PUSH1 0x24 PUSH1 0x0 REVERT JUMPDEST PUSH32 0x4E487B7100000000000000000000000000000000000000000000000000000000 PUSH1 0x0 MSTORE PUSH1 0x32 PUSH1 0x4 MSTORE PUSH1 0x24 PUSH1 0x0 REVERT JUMPDEST PUSH1 0x0 PUSH32 0xFFFFFFFFFFFFFFFFFFFFFFFFFFFFFFFFFFFFFFFFFFFFFFFFFFFFFFFFFFFFFFFF DUP3 EQ ISZERO PUSH2 0x811 JUMPI PUSH32 0x4E487B7100000000000000000000000000000000000000000000000000000000 PUSH1 0x0 MSTORE PUSH1 0x11 PUSH1 0x4 MSTORE PUSH1 0x24 PUSH1 0x0 REVERT JUMPDEST POP PUSH1 0x1 ADD SWAP1 JUMP INVALID LOG2 PUSH5 0x6970667358 0x22 SLT KECCAK256 0xC JUMPDEST OR PUSH30 0xE2AED4874EBD4BC1DD3A8AF2D25547FDD59BA0C61E502F7A15C95E1A6473 PUSH16 0x6C634300080900336080604052348015 PUSH2 0x10 JUMPI PUSH1 0x0 DUP1 REVERT JUMPDEST POP PUSH2 0x2D6 DUP1 PUSH2 0x20 PUSH1 0x0 CODECOPY PUSH1 0x0 RETURN INVALID PUSH1 0x80 PUSH1 0x40 MSTORE CALLVALUE DUP1 ISZERO PUSH2 0x10 JUMPI PUSH1 0x0 DUP1 REVERT JUMPDEST POP PUSH1 0x4 CALLDATASIZE LT PUSH2 0x36 JUMPI PUSH1 0x0 CALLDATALOAD PUSH1 0xE0 SHR DUP1 PUSH4 0x8DA5CB5B EQ PUSH2 0x3B JUMPI DUP1 PUSH4 0xF2FDE38B EQ PUSH2 0x6C JUMPI JUMPDEST PUSH1 0x0 DUP1 REVERT JUMPDEST PUSH2 0x43 PUSH2 0x81 JUMP JUMPDEST PUSH1 0x40 MLOAD PUSH20 0xFFFFFFFFFFFFFFFFFFFFFFFFFFFFFFFFFFFFFFFF SWAP1 SWAP2 AND DUP2 MSTORE PUSH1 0x20 ADD PUSH1 0x40 MLOAD DUP1 SWAP2 SUB SWAP1 RETURN JUMPDEST PUSH2 0x7F PUSH2 0x7A CALLDATASIZE PUSH1 0x4 PUSH2 0x263 JUMP JUMPDEST PUSH2 0xC6 JUMP JUMPDEST STOP JUMPDEST PUSH1 0x0 PUSH2 0xC1 PUSH32 0xC8FCAD8DB84D3CC18B4C41D551EA0EE66DD599CDE068D998E57D5E09332C1320 SLOAD PUSH20 0xFFFFFFFFFFFFFFFFFFFFFFFFFFFFFFFFFFFFFFFF AND SWAP1 JUMP JUMPDEST SWAP1 POP SWAP1 JUMP JUMPDEST PUSH2 0xCE PUSH2 0xDA JUMP JUMPDEST PUSH2 0xD7 DUP2 PUSH2 0x1A9 JUMP JUMPDEST POP JUMP JUMPDEST PUSH32 0xC8FCAD8DB84D3CC18B4C41D551EA0EE66DD599CDE068D998E57D5E09332C131C PUSH1 0x4 ADD SLOAD PUSH20 0xFFFFFFFFFFFFFFFFFFFFFFFFFFFFFFFFFFFFFFFF AND CALLER EQ PUSH2 0x1A7 JUMPI PUSH1 0x40 MLOAD PUSH32 0x8C379A000000000000000000000000000000000000000000000000000000000 DUP2 MSTORE PUSH1 0x20 PUSH1 0x4 DUP3 ADD MSTORE PUSH1 0x22 PUSH1 0x24 DUP3 ADD MSTORE PUSH32 0x4C69624469616D6F6E643A204D75737420626520636F6E7472616374206F776E PUSH1 0x44 DUP3 ADD MSTORE PUSH32 0x6572000000000000000000000000000000000000000000000000000000000000 PUSH1 0x64 DUP3 ADD MSTORE PUSH1 0x84 ADD PUSH1 0x40 MLOAD DUP1 SWAP2 SUB SWAP1 REVERT JUMPDEST JUMP JUMPDEST PUSH32 0xC8FCAD8DB84D3CC18B4C41D551EA0EE66DD599CDE068D998E57D5E09332C1320 DUP1 SLOAD PUSH32 0xFFFFFFFFFFFFFFFFFFFFFFFF0000000000000000000000000000000000000000 DUP2 AND PUSH20 0xFFFFFFFFFFFFFFFFFFFFFFFFFFFFFFFFFFFFFFFF DUP5 DUP2 AND SWAP2 DUP3 OR SWAP1 SWAP4 SSTORE PUSH1 0x40 MLOAD PUSH32 0xC8FCAD8DB84D3CC18B4C41D551EA0EE66DD599CDE068D998E57D5E09332C131C SWAP4 SWAP1 SWAP3 AND SWAP2 DUP3 SWAP1 PUSH32 0x8BE0079C531659141344CD1FD0A4F28419497F9722A3DAAFE3B4186F6B6457E0 SWAP1 PUSH1 0x0 SWAP1 LOG3 POP POP POP JUMP JUMPDEST PUSH1 0x0 PUSH1 0x20 DUP3 DUP5 SUB SLT ISZERO PUSH2 0x275 JUMPI PUSH1 0x0 DUP1 REVERT JUMPDEST DUP2 CALLDATALOAD PUSH20 0xFFFFFFFFFFFFFFFFFFFFFFFFFFFFFFFFFFFFFFFF DUP2 AND DUP2 EQ PUSH2 0x299 JUMPI PUSH1 0x0 DUP1 REVERT JUMPDEST SWAP4 SWAP3 POP POP POP JUMP INVALID LOG2 PUSH5 0x6970667358 0x22 SLT KECCAK256 0xAF 0xE5 0x4A PUSH21 0xDF56254D54C0C99E01EDFBC48CE57BD7975A687BCD GT 0xCF CHAINID 0xBD PUSH15 0xF5AE64736F6C63430008090033290D 0xEC 0xD9 SLOAD DUP12 PUSH3 0xA8D603 GASLIMIT 0xA9 DUP9 CODESIZE PUSH16 0xC84BA6BC95484008F6362F93160EF3E5 PUSH4 0x0 "
    },
    "gasEstimates": {
      "creation": {
        "codeDepositCost": "3072200",
        "executionCost": "infinite",
        "totalCost": "infinite"
      },
      "external": {
        "createDiamond(address,(address,uint8,bytes4[])[],bytes,bytes32)": "infinite"
      }
    },
    "methodIdentifiers": {
      "createDiamond(address,(address,uint8,bytes4[])[],bytes,bytes32)": "ccc2e316"
    }
  },
  "storageLayout": {
    "storage": [
      {
        "astId": 16,
        "contract": "solc_0.8/diamond/Diamantaire.sol:Diamantaire",
        "label": "_builtinDiamondCut",
        "offset": 0,
        "slot": "0",
        "type": "t_array(t_struct(FacetCut)711_storage)dyn_storage"
      }
    ],
    "types": {
      "t_address": {
        "encoding": "inplace",
        "label": "address",
        "numberOfBytes": "20"
      },
      "t_array(t_bytes4)dyn_storage": {
        "base": "t_bytes4",
        "encoding": "dynamic_array",
        "label": "bytes4[]",
        "numberOfBytes": "32"
      },
      "t_array(t_struct(FacetCut)711_storage)dyn_storage": {
        "base": "t_struct(FacetCut)711_storage",
        "encoding": "dynamic_array",
        "label": "struct IDiamondCut.FacetCut[]",
        "numberOfBytes": "32"
      },
      "t_bytes4": {
        "encoding": "inplace",
        "label": "bytes4",
        "numberOfBytes": "4"
      },
      "t_enum(FacetCutAction)702": {
        "encoding": "inplace",
        "label": "enum IDiamondCut.FacetCutAction",
        "numberOfBytes": "1"
      },
      "t_struct(FacetCut)711_storage": {
        "encoding": "inplace",
        "label": "struct IDiamondCut.FacetCut",
        "members": [
          {
            "astId": 704,
            "contract": "solc_0.8/diamond/Diamantaire.sol:Diamantaire",
            "label": "facetAddress",
            "offset": 0,
            "slot": "0",
            "type": "t_address"
          },
          {
            "astId": 707,
            "contract": "solc_0.8/diamond/Diamantaire.sol:Diamantaire",
            "label": "action",
            "offset": 20,
            "slot": "0",
            "type": "t_enum(FacetCutAction)702"
          },
          {
            "astId": 710,
            "contract": "solc_0.8/diamond/Diamantaire.sol:Diamantaire",
            "label": "functionSelectors",
            "offset": 0,
            "slot": "1",
            "type": "t_array(t_bytes4)dyn_storage"
          }
        ],
        "numberOfBytes": "64"
      }
    }
  },
  "userdoc": {
    "kind": "user",
    "methods": {},
    "version": 1
  },
  "solcInputHash": "91f18d120de6fe2bcaa5a3bff0ad9fe7"
}