{
  "contractName": "Test1Facet",
  "sourceName": "solc_0.7/diamond/facets/Test1Facet.sol",
  "abi": [
    {
      "anonymous": false,
      "inputs": [
        {
          "indexed": false,
          "internalType": "address",
          "name": "something",
          "type": "address"
        }
      ],
      "name": "TestEvent",
      "type": "event"
    },
    {
      "inputs": [
        {
          "internalType": "bytes4",
          "name": "_interfaceID",
          "type": "bytes4"
        }
      ],
      "name": "supportsInterface",
      "outputs": [
        {
          "internalType": "bool",
          "name": "",
          "type": "bool"
        }
      ],
      "stateMutability": "view",
      "type": "function"
    },
    {
      "inputs": [],
      "name": "test1Func1",
      "outputs": [],
      "stateMutability": "nonpayable",
      "type": "function"
    },
    {
      "inputs": [],
      "name": "test1Func10",
      "outputs": [],
      "stateMutability": "nonpayable",
      "type": "function"
    },
    {
      "inputs": [],
      "name": "test1Func11",
      "outputs": [],
      "stateMutability": "nonpayable",
      "type": "function"
    },
    {
      "inputs": [],
      "name": "test1Func12",
      "outputs": [],
      "stateMutability": "nonpayable",
      "type": "function"
    },
    {
      "inputs": [],
      "name": "test1Func13",
      "outputs": [],
      "stateMutability": "nonpayable",
      "type": "function"
    },
    {
      "inputs": [],
      "name": "test1Func14",
      "outputs": [],
      "stateMutability": "nonpayable",
      "type": "function"
    },
    {
      "inputs": [],
      "name": "test1Func15",
      "outputs": [],
      "stateMutability": "nonpayable",
      "type": "function"
    },
    {
      "inputs": [],
      "name": "test1Func16",
      "outputs": [],
      "stateMutability": "nonpayable",
      "type": "function"
    },
    {
      "inputs": [],
      "name": "test1Func17",
      "outputs": [],
      "stateMutability": "nonpayable",
      "type": "function"
    },
    {
      "inputs": [],
      "name": "test1Func18",
      "outputs": [],
      "stateMutability": "nonpayable",
      "type": "function"
    },
    {
      "inputs": [],
      "name": "test1Func19",
      "outputs": [],
      "stateMutability": "nonpayable",
      "type": "function"
    },
    {
      "inputs": [],
      "name": "test1Func2",
      "outputs": [],
      "stateMutability": "nonpayable",
      "type": "function"
    },
    {
      "inputs": [],
      "name": "test1Func20",
      "outputs": [],
      "stateMutability": "nonpayable",
      "type": "function"
    },
    {
      "inputs": [],
      "name": "test1Func3",
      "outputs": [],
      "stateMutability": "nonpayable",
      "type": "function"
    },
    {
      "inputs": [],
      "name": "test1Func4",
      "outputs": [],
      "stateMutability": "nonpayable",
      "type": "function"
    },
    {
      "inputs": [],
      "name": "test1Func5",
      "outputs": [],
      "stateMutability": "nonpayable",
      "type": "function"
    },
    {
      "inputs": [],
      "name": "test1Func6",
      "outputs": [],
      "stateMutability": "nonpayable",
      "type": "function"
    },
    {
      "inputs": [],
      "name": "test1Func7",
      "outputs": [],
      "stateMutability": "nonpayable",
      "type": "function"
    },
    {
      "inputs": [],
      "name": "test1Func8",
      "outputs": [],
      "stateMutability": "nonpayable",
      "type": "function"
    },
    {
      "inputs": [],
      "name": "test1Func9",
      "outputs": [],
      "stateMutability": "nonpayable",
      "type": "function"
    }
  ],
  "bytecode": "0x608060405234801561001057600080fd5b5061023f806100206000396000f3fe608060405234801561001057600080fd5b50600436106101775760003560e01c806351b68a4d116100d85780639abf97aa1161008c578063cd0bae0911610066578063cd0bae09146101a5578063cf3bbe18146101a5578063db32da15146101a557610177565b80639abf97aa146101a5578063b0e8fcc7146101a5578063cbb835f6146101a557610177565b806377e9d0d6116100bd57806377e9d0d6146101a557806381b5207d146101a557806387952d22146101a557610177565b806351b68a4d146101a557806371a99d6f146101a557610177565b806324c1d5a71161012f5780632cb83248116101145780632cb83248146101a55780634484b3b9146101a557806350eb3f43146101a557610177565b806324c1d5a7146101a5578063292c460d146101a557610177565b8063110460471161016057806311046047146101a557806319c841ab146101a557806319e3b533146101a557610177565b806301ffc9a71461017c5780630716c2ae146101a5575b600080fd5b61018f61018a3660046101b7565b6101af565b60405161019c91906101fe565b60405180910390f35b6101ad6101b5565b005b50600090565b565b6000602082840312156101c8578081fd5b81357fffffffff00000000000000000000000000000000000000000000000000000000811681146101f7578182fd5b9392505050565b90151581526020019056fea2646970667358221220fc60a82efa27240cc3e0b6f30b268008909d77202ee35ef6093da83aa0ebc3ae64736f6c63430007060033",
  "linkReferences": {},
  "deployedLinkReferences": {},
  "devdoc": {
    "kind": "dev",
    "methods": {},
    "version": 1
  },
  "evm": {
    "bytecode": {
      "linkReferences": {},
      "opcodes": "PUSH1 0x80 PUSH1 0x40 MSTORE CALLVALUE DUP1 ISZERO PUSH2 0x10 JUMPI PUSH1 0x0 DUP1 REVERT JUMPDEST POP PUSH2 0x23F DUP1 PUSH2 0x20 PUSH1 0x0 CODECOPY PUSH1 0x0 RETURN INVALID PUSH1 0x80 PUSH1 0x40 MSTORE CALLVALUE DUP1 ISZERO PUSH2 0x10 JUMPI PUSH1 0x0 DUP1 REVERT JUMPDEST POP PUSH1 0x4 CALLDATASIZE LT PUSH2 0x177 JUMPI PUSH1 0x0 CALLDATALOAD PUSH1 0xE0 SHR DUP1 PUSH4 0x51B68A4D GT PUSH2 0xD8 JUMPI DUP1 PUSH4 0x9ABF97AA GT PUSH2 0x8C JUMPI DUP1 PUSH4 0xCD0BAE09 GT PUSH2 0x66 JUMPI DUP1 PUSH4 0xCD0BAE09 EQ PUSH2 0x1A5 JUMPI DUP1 PUSH4 0xCF3BBE18 EQ PUSH2 0x1A5 JUMPI DUP1 PUSH4 0xDB32DA15 EQ PUSH2 0x1A5 JUMPI PUSH2 0x177 JUMP JUMPDEST DUP1 PUSH4 0x9ABF97AA EQ PUSH2 0x1A5 JUMPI DUP1 PUSH4 0xB0E8FCC7 EQ PUSH2 0x1A5 JUMPI DUP1 PUSH4 0xCBB835F6 EQ PUSH2 0x1A5 JUMPI PUSH2 0x177 JUMP JUMPDEST DUP1 PUSH4 0x77E9D0D6 GT PUSH2 0xBD JUMPI DUP1 PUSH4 0x77E9D0D6 EQ PUSH2 0x1A5 JUMPI DUP1 PUSH4 0x81B5207D EQ PUSH2 0x1A5 JUMPI DUP1 PUSH4 0x87952D22 EQ PUSH2 0x1A5 JUMPI PUSH2 0x177 JUMP JUMPDEST DUP1 PUSH4 0x51B68A4D EQ PUSH2 0x1A5 JUMPI DUP1 PUSH4 0x71A99D6F EQ PUSH2 0x1A5 JUMPI PUSH2 0x177 JUMP JUMPDEST DUP1 PUSH4 0x24C1D5A7 GT PUSH2 0x12F JUMPI DUP1 PUSH4 0x2CB83248 GT PUSH2 0x114 JUMPI DUP1 PUSH4 0x2CB83248 EQ PUSH2 0x1A5 JUMPI DUP1 PUSH4 0x4484B3B9 EQ PUSH2 0x1A5 JUMPI DUP1 PUSH4 0x50EB3F43 EQ PUSH2 0x1A5 JUMPI PUSH2 0x177 JUMP JUMPDEST DUP1 PUSH4 0x24C1D5A7 EQ PUSH2 0x1A5 JUMPI DUP1 PUSH4 0x292C460D EQ PUSH2 0x1A5 JUMPI PUSH2 0x177 JUMP JUMPDEST DUP1 PUSH4 0x11046047 GT PUSH2 0x160 JUMPI DUP1 PUSH4 0x11046047 EQ PUSH2 0x1A5 JUMPI DUP1 PUSH4 0x19C841AB EQ PUSH2 0x1A5 JUMPI DUP1 PUSH4 0x19E3B533 EQ PUSH2 0x1A5 JUMPI PUSH2 0x177 JUMP JUMPDEST DUP1 PUSH4 0x1FFC9A7 EQ PUSH2 0x17C JUMPI DUP1 PUSH4 0x716C2AE EQ PUSH2 0x1A5 JUMPI JUMPDEST PUSH1 0x0 DUP1 REVERT JUMPDEST PUSH2 0x18F PUSH2 0x18A CALLDATASIZE PUSH1 0x4 PUSH2 0x1B7 JUMP JUMPDEST PUSH2 0x1AF JUMP JUMPDEST PUSH1 0x40 MLOAD PUSH2 0x19C SWAP2 SWAP1 PUSH2 0x1FE JUMP JUMPDEST PUSH1 0x40 MLOAD DUP1 SWAP2 SUB SWAP1 RETURN JUMPDEST PUSH2 0x1AD PUSH2 0x1B5 JUMP JUMPDEST STOP JUMPDEST POP PUSH1 0x0 SWAP1 JUMP JUMPDEST JUMP JUMPDEST PUSH1 0x0 PUSH1 0x20 DUP3 DUP5 SUB SLT ISZERO PUSH2 0x1C8 JUMPI DUP1 DUP2 REVERT JUMPDEST DUP2 CALLDATALOAD PUSH32 0xFFFFFFFF00000000000000000000000000000000000000000000000000000000 DUP2 AND DUP2 EQ PUSH2 0x1F7 JUMPI DUP2 DUP3 REVERT JUMPDEST SWAP4 SWAP3 POP POP POP JUMP JUMPDEST SWAP1 ISZERO ISZERO DUP2 MSTORE PUSH1 0x20 ADD SWAP1 JUMP INVALID LOG2 PUSH5 0x6970667358 0x22 SLT KECCAK256 0xFC PUSH1 0xA8 0x2E STATICCALL 0x27 0x24 0xC 0xC3 0xE0 0xB6 RETURN SIGNEXTEND 0x26 DUP1 ADDMOD SWAP1 SWAP14 PUSH24 0x202EE35EF6093DA83AA0EBC3AE64736F6C63430007060033 "
    },
    "gasEstimates": {
      "creation": {
        "codeDepositCost": "115000",
        "executionCost": "159",
        "totalCost": "115159"
      },
      "external": {
        "supportsInterface(bytes4)": "394",
        "test1Func1()": "234",
        "test1Func10()": "233",
        "test1Func11()": "233",
        "test1Func12()": "211",
        "test1Func13()": "212",
        "test1Func14()": "190",
        "test1Func15()": "189",
        "test1Func16()": "189",
        "test1Func17()": "211",
        "test1Func18()": "189",
        "test1Func19()": "212",
        "test1Func2()": "213",
        "test1Func20()": "211",
        "test1Func3()": "190",
        "test1Func4()": "210",
        "test1Func5()": "190",
        "test1Func6()": "233",
        "test1Func7()": "212",
        "test1Func8()": "232",
        "test1Func9()": "188"
      }
    },
    "methodIdentifiers": {
      "supportsInterface(bytes4)": "01ffc9a7",
      "test1Func1()": "19e3b533",
      "test1Func10()": "87952d22",
      "test1Func11()": "50eb3f43",
      "test1Func12()": "81b5207d",
      "test1Func13()": "19c841ab",
      "test1Func14()": "51b68a4d",
      "test1Func15()": "2cb83248",
      "test1Func16()": "77e9d0d6",
      "test1Func17()": "4484b3b9",
      "test1Func18()": "9abf97aa",
      "test1Func19()": "292c460d",
      "test1Func2()": "0716c2ae",
      "test1Func20()": "b0e8fcc7",
      "test1Func3()": "11046047",
      "test1Func4()": "cf3bbe18",
      "test1Func5()": "24c1d5a7",
      "test1Func6()": "cbb835f6",
      "test1Func7()": "71a99d6f",
      "test1Func8()": "db32da15",
      "test1Func9()": "cd0bae09"
    }
  },
  "storageLayout": {
    "storage": [],
    "types": null
  },
  "userdoc": {
    "kind": "user",
    "methods": {},
    "version": 1
  },
  "solcInputHash": "0bf883574cdebfcc1caed4729cd2e970"
}