{
  "contractName": "Test2Facet",
  "sourceName": "solc_0.7/diamond/facets/Test2Facet.sol",
  "abi": [
    {
      "inputs": [],
      "name": "test2Func1",
      "outputs": [],
      "stateMutability": "nonpayable",
      "type": "function"
    },
    {
      "inputs": [],
      "name": "test2Func10",
      "outputs": [],
      "stateMutability": "nonpayable",
      "type": "function"
    },
    {
      "inputs": [],
      "name": "test2Func11",
      "outputs": [],
      "stateMutability": "nonpayable",
      "type": "function"
    },
    {
      "inputs": [],
      "name": "test2Func12",
      "outputs": [],
      "stateMutability": "nonpayable",
      "type": "function"
    },
    {
      "inputs": [],
      "name": "test2Func13",
      "outputs": [],
      "stateMutability": "nonpayable",
      "type": "function"
    },
    {
      "inputs": [],
      "name": "test2Func14",
      "outputs": [],
      "stateMutability": "nonpayable",
      "type": "function"
    },
    {
      "inputs": [],
      "name": "test2Func15",
      "outputs": [],
      "stateMutability": "nonpayable",
      "type": "function"
    },
    {
      "inputs": [],
      "name": "test2Func16",
      "outputs": [],
      "stateMutability": "nonpayable",
      "type": "function"
    },
    {
      "inputs": [],
      "name": "test2Func17",
      "outputs": [],
      "stateMutability": "nonpayable",
      "type": "function"
    },
    {
      "inputs": [],
      "name": "test2Func18",
      "outputs": [],
      "stateMutability": "nonpayable",
      "type": "function"
    },
    {
      "inputs": [],
      "name": "test2Func19",
      "outputs": [],
      "stateMutability": "nonpayable",
      "type": "function"
    },
    {
      "inputs": [],
      "name": "test2Func2",
      "outputs": [],
      "stateMutability": "nonpayable",
      "type": "function"
    },
    {
      "inputs": [],
      "name": "test2Func20",
      "outputs": [],
      "stateMutability": "nonpayable",
      "type": "function"
    },
    {
      "inputs": [],
      "name": "test2Func3",
      "outputs": [],
      "stateMutability": "nonpayable",
      "type": "function"
    },
    {
      "inputs": [],
      "name": "test2Func4",
      "outputs": [],
      "stateMutability": "nonpayable",
      "type": "function"
    },
    {
      "inputs": [],
      "name": "test2Func5",
      "outputs": [],
      "stateMutability": "nonpayable",
      "type": "function"
    },
    {
      "inputs": [],
      "name": "test2Func6",
      "outputs": [],
      "stateMutability": "nonpayable",
      "type": "function"
    },
    {
      "inputs": [],
      "name": "test2Func7",
      "outputs": [],
      "stateMutability": "nonpayable",
      "type": "function"
    },
    {
      "inputs": [],
      "name": "test2Func8",
      "outputs": [],
      "stateMutability": "nonpayable",
      "type": "function"
    },
    {
      "inputs": [],
      "name": "test2Func9",
      "outputs": [],
      "stateMutability": "nonpayable",
      "type": "function"
    }
  ],
  "bytecode": "0x608060405234801561001057600080fd5b506101b3806100206000396000f3fe608060405234801561001057600080fd5b506004361061016c5760003560e01c80638ee8be30116100cd578063d2f0c73e11610081578063e7de23a411610066578063e7de23a414610171578063ea36b55814610171578063ef3f4d78146101715761016c565b8063d2f0c73e14610171578063e5f687b2146101715761016c565b8063c670641d116100b2578063c670641d14610171578063ca5fa5c014610171578063caae8f23146101715761016c565b80638ee8be301461017157806391d0396b146101715761016c565b80632e463958116101245780636dc16b01116101095780636dc16b0114610171578063792a8e2e14610171578063884280a6146101715761016c565b80632e463958146101715780635fd6312b146101715761016c565b80630e4cd7fc116101555780630e4cd7fc14610171578063148843091461017157806317fd06e7146101715761016c565b806303feeeae146101715780630c103a9314610171575b600080fd5b61017961017b565b005b56fea26469706673582212208d35537345e666950b14b7a7214bc04ebe552c7f028f8337aecf0d2222f8cfd464736f6c63430007060033",
  "linkReferences": {},
  "deployedLinkReferences": {},
  "devdoc": {
    "kind": "dev",
    "methods": {},
    "version": 1
  },
  "evm": {
    "bytecode": {
      "linkReferences": {},
      "opcodes": "PUSH1 0x80 PUSH1 0x40 MSTORE CALLVALUE DUP1 ISZERO PUSH2 0x10 JUMPI PUSH1 0x0 DUP1 REVERT JUMPDEST POP PUSH2 0x1B3 DUP1 PUSH2 0x20 PUSH1 0x0 CODECOPY PUSH1 0x0 RETURN INVALID PUSH1 0x80 PUSH1 0x40 MSTORE CALLVALUE DUP1 ISZERO PUSH2 0x10 JUMPI PUSH1 0x0 DUP1 REVERT JUMPDEST POP PUSH1 0x4 CALLDATASIZE LT PUSH2 0x16C JUMPI PUSH1 0x0 CALLDATALOAD PUSH1 0xE0 SHR DUP1 PUSH4 0x8EE8BE30 GT PUSH2 0xCD JUMPI DUP1 PUSH4 0xD2F0C73E GT PUSH2 0x81 JUMPI DUP1 PUSH4 0xE7DE23A4 GT PUSH2 0x66 JUMPI DUP1 PUSH4 0xE7DE23A4 EQ PUSH2 0x171 JUMPI DUP1 PUSH4 0xEA36B558 EQ PUSH2 0x171 JUMPI DUP1 PUSH4 0xEF3F4D78 EQ PUSH2 0x171 JUMPI PUSH2 0x16C JUMP JUMPDEST DUP1 PUSH4 0xD2F0C73E EQ PUSH2 0x171 JUMPI DUP1 PUSH4 0xE5F687B2 EQ PUSH2 0x171 JUMPI PUSH2 0x16C JUMP JUMPDEST DUP1 PUSH4 0xC670641D GT PUSH2 0xB2 JUMPI DUP1 PUSH4 0xC670641D EQ PUSH2 0x171 JUMPI DUP1 PUSH4 0xCA5FA5C0 EQ PUSH2 0x171 JUMPI DUP1 PUSH4 0xCAAE8F23 EQ PUSH2 0x171 JUMPI PUSH2 0x16C JUMP JUMPDEST DUP1 PUSH4 0x8EE8BE30 EQ PUSH2 0x171 JUMPI DUP1 PUSH4 0x91D0396B EQ PUSH2 0x171 JUMPI PUSH2 0x16C JUMP JUMPDEST DUP1 PUSH4 0x2E463958 GT PUSH2 0x124 JUMPI DUP1 PUSH4 0x6DC16B01 GT PUSH2 0x109 JUMPI DUP1 PUSH4 0x6DC16B01 EQ PUSH2 0x171 JUMPI DUP1 PUSH4 0x792A8E2E EQ PUSH2 0x171 JUMPI DUP1 PUSH4 0x884280A6 EQ PUSH2 0x171 JUMPI PUSH2 0x16C JUMP JUMPDEST DUP1 PUSH4 0x2E463958 EQ PUSH2 0x171 JUMPI DUP1 PUSH4 0x5FD6312B EQ PUSH2 0x171 JUMPI PUSH2 0x16C JUMP JUMPDEST DUP1 PUSH4 0xE4CD7FC GT PUSH2 0x155 JUMPI DUP1 PUSH4 0xE4CD7FC EQ PUSH2 0x171 JUMPI DUP1 PUSH4 0x14884309 EQ PUSH2 0x171 JUMPI DUP1 PUSH4 0x17FD06E7 EQ PUSH2 0x171 JUMPI PUSH2 0x16C JUMP JUMPDEST DUP1 PUSH4 0x3FEEEAE EQ PUSH2 0x171 JUMPI DUP1 PUSH4 0xC103A93 EQ PUSH2 0x171 JUMPI JUMPDEST PUSH1 0x0 DUP1 REVERT JUMPDEST PUSH2 0x179 PUSH2 0x17B JUMP JUMPDEST STOP JUMPDEST JUMP INVALID LOG2 PUSH5 0x6970667358 0x22 SLT KECCAK256 DUP14 CALLDATALOAD MSTORE8 PUSH20 0x45E666950B14B7A7214BC04EBE552C7F028F8337 0xAE 0xCF 0xD 0x22 0x22 0xF8 0xCF 0xD4 PUSH5 0x736F6C6343 STOP SMOD MOD STOP CALLER "
    },
    "gasEstimates": {
      "creation": {
        "codeDepositCost": "87000",
        "executionCost": "135",
        "totalCost": "87135"
      },
      "external": {
        "test2Func1()": "210",
        "test2Func10()": "190",
        "test2Func11()": "233",
        "test2Func12()": "211",
        "test2Func13()": "189",
        "test2Func14()": "212",
        "test2Func15()": "191",
        "test2Func16()": "190",
        "test2Func17()": "212",
        "test2Func18()": "213",
        "test2Func19()": "212",
        "test2Func2()": "188",
        "test2Func20()": "211",
        "test2Func3()": "190",
        "test2Func4()": "189",
        "test2Func5()": "189",
        "test2Func6()": "234",
        "test2Func7()": "232",
        "test2Func8()": "211",
        "test2Func9()": "233"
      }
    },
    "methodIdentifiers": {
      "test2Func1()": "ea36b558",
      "test2Func10()": "8ee8be30",
      "test2Func11()": "884280a6",
      "test2Func12()": "ca5fa5c0",
      "test2Func13()": "6dc16b01",
      "test2Func14()": "91d0396b",
      "test2Func15()": "03feeeae",
      "test2Func16()": "2e463958",
      "test2Func17()": "14884309",
      "test2Func18()": "0c103a93",
      "test2Func19()": "5fd6312b",
      "test2Func2()": "e7de23a4",
      "test2Func20()": "792a8e2e",
      "test2Func3()": "0e4cd7fc",
      "test2Func4()": "c670641d",
      "test2Func5()": "d2f0c73e",
      "test2Func6()": "17fd06e7",
      "test2Func7()": "ef3f4d78",
      "test2Func8()": "e5f687b2",
      "test2Func9()": "caae8f23"
    }
  },
  "storageLayout": {
    "storage": [],
    "types": null
  },
  "userdoc": {
    "kind": "user",
    "methods": {},
    "version": 1
  },
  "solcInputHash": "0d717076b74d6140bf10479dfd48bc39"
}