{
  "contractName": "Test1Facet",
  "sourceName": "solc_0.8/diamond/facets/Test1Facet.sol",
  "abi": [
    {
      "anonymous": false,
      "inputs": [
        {
          "indexed": false,
          "internalType": "address",
          "name": "something",
          "type": "address"
        }
      ],
      "name": "TestEvent",
      "type": "event"
    },
    {
      "inputs": [
        {
          "internalType": "bytes4",
          "name": "_interfaceID",
          "type": "bytes4"
        }
      ],
      "name": "supportsInterface",
      "outputs": [
        {
          "internalType": "bool",
          "name": "",
          "type": "bool"
        }
      ],
      "stateMutability": "view",
      "type": "function"
    },
    {
      "inputs": [],
      "name": "test1Func1",
      "outputs": [],
      "stateMutability": "nonpayable",
      "type": "function"
    },
    {
      "inputs": [],
      "name": "test1Func10",
      "outputs": [],
      "stateMutability": "nonpayable",
      "type": "function"
    },
    {
      "inputs": [],
      "name": "test1Func11",
      "outputs": [],
      "stateMutability": "nonpayable",
      "type": "function"
    },
    {
      "inputs": [],
      "name": "test1Func12",
      "outputs": [],
      "stateMutability": "nonpayable",
      "type": "function"
    },
    {
      "inputs": [],
      "name": "test1Func13",
      "outputs": [],
      "stateMutability": "nonpayable",
      "type": "function"
    },
    {
      "inputs": [],
      "name": "test1Func14",
      "outputs": [],
      "stateMutability": "nonpayable",
      "type": "function"
    },
    {
      "inputs": [],
      "name": "test1Func15",
      "outputs": [],
      "stateMutability": "nonpayable",
      "type": "function"
    },
    {
      "inputs": [],
      "name": "test1Func16",
      "outputs": [],
      "stateMutability": "nonpayable",
      "type": "function"
    },
    {
      "inputs": [],
      "name": "test1Func17",
      "outputs": [],
      "stateMutability": "nonpayable",
      "type": "function"
    },
    {
      "inputs": [],
      "name": "test1Func18",
      "outputs": [],
      "stateMutability": "nonpayable",
      "type": "function"
    },
    {
      "inputs": [],
      "name": "test1Func19",
      "outputs": [],
      "stateMutability": "nonpayable",
      "type": "function"
    },
    {
      "inputs": [],
      "name": "test1Func2",
      "outputs": [],
      "stateMutability": "nonpayable",
      "type": "function"
    },
    {
      "inputs": [],
      "name": "test1Func20",
      "outputs": [],
      "stateMutability": "nonpayable",
      "type": "function"
    },
    {
      "inputs": [],
      "name": "test1Func3",
      "outputs": [],
      "stateMutability": "nonpayable",
      "type": "function"
    },
    {
      "inputs": [],
      "name": "test1Func4",
      "outputs": [],
      "stateMutability": "nonpayable",
      "type": "function"
    },
    {
      "inputs": [],
      "name": "test1Func5",
      "outputs": [],
      "stateMutability": "nonpayable",
      "type": "function"
    },
    {
      "inputs": [],
      "name": "test1Func6",
      "outputs": [],
      "stateMutability": "nonpayable",
      "type": "function"
    },
    {
      "inputs": [],
      "name": "test1Func7",
      "outputs": [],
      "stateMutability": "nonpayable",
      "type": "function"
    },
    {
      "inputs": [],
      "name": "test1Func8",
      "outputs": [],
      "stateMutability": "nonpayable",
      "type": "function"
    },
    {
      "inputs": [],
      "name": "test1Func9",
      "outputs": [],
      "stateMutability": "nonpayable",
      "type": "function"
    }
  ],
  "bytecode": "0x608060405234801561001057600080fd5b50610225806100206000396000f3fe608060405234801561001057600080fd5b50600436106101775760003560e01c806351b68a4d116100d85780639abf97aa1161008c578063cd0bae0911610066578063cd0bae09146101a4578063cf3bbe18146101a4578063db32da15146101a457600080fd5b80639abf97aa146101a4578063b0e8fcc7146101a4578063cbb835f6146101a457600080fd5b806377e9d0d6116100bd57806377e9d0d6146101a457806381b5207d146101a457806387952d22146101a457600080fd5b806351b68a4d146101a457806371a99d6f146101a457600080fd5b806324c1d5a71161012f5780632cb83248116101145780632cb83248146101a45780634484b3b9146101a457806350eb3f43146101a457600080fd5b806324c1d5a7146101a4578063292c460d146101a457600080fd5b8063110460471161016057806311046047146101a457806319c841ab146101a457806319e3b533146101a457600080fd5b806301ffc9a71461017c5780630716c2ae146101a4575b600080fd5b61019061018a3660046101a6565b50600090565b604051901515815260200160405180910390f35b005b6000602082840312156101b857600080fd5b81357fffffffff00000000000000000000000000000000000000000000000000000000811681146101e857600080fd5b939250505056fea2646970667358221220890e8e3fb140110b29f90f1c659a0d23989482eff2fe1edeb2a03c74de11844b64736f6c63430008090033",
  "linkReferences": {},
  "deployedLinkReferences": {},
  "devdoc": {
    "kind": "dev",
    "methods": {},
    "version": 1
  },
  "evm": {
    "bytecode": {
      "linkReferences": {},
      "opcodes": "PUSH1 0x80 PUSH1 0x40 MSTORE CALLVALUE DUP1 ISZERO PUSH2 0x10 JUMPI PUSH1 0x0 DUP1 REVERT JUMPDEST POP PUSH2 0x225 DUP1 PUSH2 0x20 PUSH1 0x0 CODECOPY PUSH1 0x0 RETURN INVALID PUSH1 0x80 PUSH1 0x40 MSTORE CALLVALUE DUP1 ISZERO PUSH2 0x10 JUMPI PUSH1 0x0 DUP1 REVERT JUMPDEST POP PUSH1 0x4 CALLDATASIZE LT PUSH2 0x177 JUMPI PUSH1 0x0 CALLDATALOAD PUSH1 0xE0 SHR DUP1 PUSH4 0x51B68A4D GT PUSH2 0xD8 JUMPI DUP1 PUSH4 0x9ABF97AA GT PUSH2 0x8C JUMPI DUP1 PUSH4 0xCD0BAE09 GT PUSH2 0x66 JUMPI DUP1 PUSH4 0xCD0BAE09 EQ PUSH2 0x1A4 JUMPI DUP1 PUSH4 0xCF3BBE18 EQ PUSH2 0x1A4 JUMPI DUP1 PUSH4 0xDB32DA15 EQ PUSH2 0x1A4 JUMPI PUSH1 0x0 DUP1 REVERT JUMPDEST DUP1 PUSH4 0x9ABF97AA EQ PUSH2 0x1A4 JUMPI DUP1 PUSH4 0xB0E8FCC7 EQ PUSH2 0x1A4 JUMPI DUP1 PUSH4 0xCBB835F6 EQ PUSH2 0x1A4 JUMPI PUSH1 0x0 DUP1 REVERT JUMPDEST DUP1 PUSH4 0x77E9D0D6 GT PUSH2 0xBD JUMPI DUP1 PUSH4 0x77E9D0D6 EQ PUSH2 0x1A4 JUMPI DUP1 PUSH4 0x81B5207D EQ PUSH2 0x1A4 JUMPI DUP1 PUSH4 0x87952D22 EQ PUSH2 0x1A4 JUMPI PUSH1 0x0 DUP1 REVERT JUMPDEST DUP1 PUSH4 0x51B68A4D EQ PUSH2 0x1A4 JUMPI DUP1 PUSH4 0x71A99D6F EQ PUSH2 0x1A4 JUMPI PUSH1 0x0 DUP1 REVERT JUMPDEST DUP1 PUSH4 0x24C1D5A7 GT PUSH2 0x12F JUMPI DUP1 PUSH4 0x2CB83248 GT PUSH2 0x114 JUMPI DUP1 PUSH4 0x2CB83248 EQ PUSH2 0x1A4 JUMPI DUP1 PUSH4 0x4484B3B9 EQ PUSH2 0x1A4 JUMPI DUP1 PUSH4 0x50EB3F43 EQ PUSH2 0x1A4 JUMPI PUSH1 0x0 DUP1 REVERT JUMPDEST DUP1 PUSH4 0x24C1D5A7 EQ PUSH2 0x1A4 JUMPI DUP1 PUSH4 0x292C460D EQ PUSH2 0x1A4 JUMPI PUSH1 0x0 DUP1 REVERT JUMPDEST DUP1 PUSH4 0x11046047 GT PUSH2 0x160 JUMPI DUP1 PUSH4 0x11046047 EQ PUSH2 0x1A4 JUMPI DUP1 PUSH4 0x19C841AB EQ PUSH2 0x1A4 JUMPI DUP1 PUSH4 0x19E3B533 EQ PUSH2 0x1A4 JUMPI PUSH1 0x0 DUP1 REVERT JUMPDEST DUP1 PUSH4 0x1FFC9A7 EQ PUSH2 0x17C JUMPI DUP1 PUSH4 0x716C2AE EQ PUSH2 0x1A4 JUMPI JUMPDEST PUSH1 0x0 DUP1 REVERT JUMPDEST PUSH2 0x190 PUSH2 0x18A CALLDATASIZE PUSH1 0x4 PUSH2 0x1A6 JUMP JUMPDEST POP PUSH1 0x0 SWAP1 JUMP JUMPDEST PUSH1 0x40 MLOAD SWAP1 ISZERO ISZERO DUP2 MSTORE PUSH1 0x20 ADD PUSH1 0x40 MLOAD DUP1 SWAP2 SUB SWAP1 RETURN JUMPDEST STOP JUMPDEST PUSH1 0x0 PUSH1 0x20 DUP3 DUP5 SUB SLT ISZERO PUSH2 0x1B8 JUMPI PUSH1 0x0 DUP1 REVERT JUMPDEST DUP2 CALLDATALOAD PUSH32 0xFFFFFFFF00000000000000000000000000000000000000000000000000000000 DUP2 AND DUP2 EQ PUSH2 0x1E8 JUMPI PUSH1 0x0 DUP1 REVERT JUMPDEST SWAP4 SWAP3 POP POP POP JUMP INVALID LOG2 PUSH5 0x6970667358 0x22 SLT KECCAK256 DUP10 0xE DUP15 EXTCODEHASH 0xB1 BLOCKHASH GT SIGNEXTEND 0x29 0xF9 0xF SHR PUSH6 0x9A0D23989482 0xEF CALLCODE INVALID 0x1E 0xDE 0xB2 LOG0 EXTCODECOPY PUSH21 0xDE11844B64736F6C63430008090033000000000000 "
    },
    "gasEstimates": {
      "creation": {
        "codeDepositCost": "109800",
        "executionCost": "159",
        "totalCost": "109959"
      },
      "external": {
        "supportsInterface(bytes4)": "349",
        "test1Func1()": "210",
        "test1Func10()": "209",
        "test1Func11()": "209",
        "test1Func12()": "187",
        "test1Func13()": "188",
        "test1Func14()": "166",
        "test1Func15()": "165",
        "test1Func16()": "165",
        "test1Func17()": "187",
        "test1Func18()": "165",
        "test1Func19()": "188",
        "test1Func2()": "189",
        "test1Func20()": "187",
        "test1Func3()": "166",
        "test1Func4()": "186",
        "test1Func5()": "166",
        "test1Func6()": "209",
        "test1Func7()": "188",
        "test1Func8()": "208",
        "test1Func9()": "164"
      }
    },
    "methodIdentifiers": {
      "supportsInterface(bytes4)": "01ffc9a7",
      "test1Func1()": "19e3b533",
      "test1Func10()": "87952d22",
      "test1Func11()": "50eb3f43",
      "test1Func12()": "81b5207d",
      "test1Func13()": "19c841ab",
      "test1Func14()": "51b68a4d",
      "test1Func15()": "2cb83248",
      "test1Func16()": "77e9d0d6",
      "test1Func17()": "4484b3b9",
      "test1Func18()": "9abf97aa",
      "test1Func19()": "292c460d",
      "test1Func2()": "0716c2ae",
      "test1Func20()": "b0e8fcc7",
      "test1Func3()": "11046047",
      "test1Func4()": "cf3bbe18",
      "test1Func5()": "24c1d5a7",
      "test1Func6()": "cbb835f6",
      "test1Func7()": "71a99d6f",
      "test1Func8()": "db32da15",
      "test1Func9()": "cd0bae09"
    }
  },
  "storageLayout": {
    "storage": [],
    "types": null
  },
  "userdoc": {
    "kind": "user",
    "methods": {},
    "version": 1
  },
  "solcInputHash": "406fb70f8529802d39492a292955dfd4"
}