{
  "_format": "hh-sol-artifact-1",
  "contractName": "Diamantaire",
  "sourceName": "solc_0.7/diamond/Diamantaire.sol",
  "abi": [
    {
      "anonymous": false,
      "inputs": [
        {
          "indexed": false,
          "internalType": "contract Diamond",
          "name": "diamond",
          "type": "address"
        }
      ],
      "name": "DiamondCreated",
      "type": "event"
    },
    {
      "inputs": [
        {
          "internalType": "address",
          "name": "owner",
          "type": "address"
        },
        {
          "components": [
            {
              "internalType": "address",
              "name": "facetAddress",
              "type": "address"
            },
            {
              "internalType": "bytes4[]",
              "name": "functionSelectors",
              "type": "bytes4[]"
            }
          ],
          "internalType": "struct IDiamondCut.Facet[]",
          "name": "_diamondCut",
          "type": "tuple[]"
        },
        {
          "internalType": "bytes",
          "name": "data",
          "type": "bytes"
        },
        {
          "internalType": "bytes32",
          "name": "salt",
          "type": "bytes32"
        }
      ],
      "name": "createDiamond",
      "outputs": [
        {
          "internalType": "contract Diamond",
          "name": "diamond",
          "type": "address"
        }
      ],
      "stateMutability": "payable",
      "type": "function"
    }
  ],
  "bytecode": "0x608060405234801561001057600080fd5b506138bb806100206000396000f3fe608060405260043610620000205760003560e01c80635c948ae31462000025575b600080fd5b6200003c62000036366004620002e4565b62000054565b6040516200004b91906200049f565b60405180910390f35b60008115620000d2578187604051602001620000729291906200046c565b604051602081830303815290604052805190602001209150348290306040516200009c9062000261565b620000a891906200049f565b82906040518091039083f591505080158015620000c9573d6000803e3d6000fd5b50905062000110565b3430604051620000e29062000261565b620000ee91906200049f565b6040518091039082f09050801580156200010c573d6000803e3d6000fd5b5090505b7f644ca5b0a8b0418e9faf3880659eeb84eaad45ad838b0173808e5ca72f5efc49816040516200014191906200049f565b60405180910390a173ffffffffffffffffffffffffffffffffffffffff811663e712b4e18787866200017557600062000177565b845b88886040518663ffffffff1660e01b81526004016200019b959493929190620004c0565b600060405180830381600087803b158015620001b657600080fd5b505af1158015620001cb573d6000803e3d6000fd5b50506040517ff2fde38b00000000000000000000000000000000000000000000000000000000815273ffffffffffffffffffffffffffffffffffffffff8416925063f2fde38b915062000223908a906004016200049f565b600060405180830381600087803b1580156200023e57600080fd5b505af115801562000253573d6000803e3d6000fd5b505050509695505050505050565b613252806200063483390190565b803573ffffffffffffffffffffffffffffffffffffffff811681146200029457600080fd5b92915050565b60008083601f840112620002ac578182fd5b50813567ffffffffffffffff811115620002c4578182fd5b602083019150836020828501011115620002dd57600080fd5b9250929050565b60008060008060008060808789031215620002fd578182fd5b6200030988886200026f565b9550602087013567ffffffffffffffff8082111562000326578384fd5b818901915089601f8301126200033a578384fd5b81358181111562000349578485fd5b8a602080830285010111156200035d578485fd5b6020830197508096505060408901359150808211156200037b578384fd5b506200038a89828a016200029a565b979a9699509497949695606090950135949350505050565b73ffffffffffffffffffffffffffffffffffffffff169052565b60008284526020808501945082825b85811015620004195781357fffffffff00000000000000000000000000000000000000000000000000000000811680821462000405578586fd5b8852509582019590820190600101620003cb565b509495945050505050565b600082845282826020860137806020848601015260207fffffffffffffffffffffffffffffffffffffffffffffffffffffffffffffffe0601f85011685010190509392505050565b91825260601b7fffffffffffffffffffffffffffffffffffffffff00000000000000000000000016602082015260340190565b73ffffffffffffffffffffffffffffffffffffffff91909116815260200190565b606080825281018590526000602060808084019082890285010189845b8a81101562000597577fffffffffffffffffffffffffffffffffffffffffffffffffffffffffffffff8087840301845281357fffffffffffffffffffffffffffffffffffffffffffffffffffffffffffffffc18d36030181126200053f578687fd5b8c0160408682016200055d866200055783866200026f565b620003a2565b620005698184620005ca565b935090508188870152620005818287018483620003bc565b96880196955050509185019150600101620004dd565b5050620005a783860189620003a2565b8481036040860152620005bc81878962000424565b9a9950505050505050505050565b60008083357fffffffffffffffffffffffffffffffffffffffffffffffffffffffffffffffe1843603018112620005ff578283fd5b830160208101925035905067ffffffffffffffff8111156200062057600080fd5b602081023603831315620002dd57600080fdfe60806040526040516200325238038062003252833981016040819052620000269162000cd2565b60006200003d6200056d60201b620000d51760201c565b80546001600160a01b0319166001600160a01b0384169081178255604051919250906000907f8be0079c531659141344cd1fd0a4f28419497f9722a3daafe3b4186f6b6457e0908290a36000604051620000979062000c54565b604051809103906000f080158015620000b4573d6000803e3d6000fd5b5090506000604051620000c79062000c62565b604051809103906000f080158015620000e4573d6000803e3d6000fd5b5090506000604051620000f79062000c70565b604051809103906000f08015801562000114573d6000803e3d6000fd5b506040805160038082526080820190925291925060609190816020015b6200013b62000c7e565b8152602001906001900390816200013157905050905083816000815181106200016057fe5b60209081029190910101516001600160a01b03919091169052604080516001808252818301909252908160200160208202803683370190505081600081518110620001a757fe5b60200260200101516020018190525063e712b4e160e01b81600081518110620001cc57fe5b602002602001015160200151600081518110620001e557fe5b60200260200101906001600160e01b03191690816001600160e01b0319168152505082816001815181106200021657fe5b6020908102919091018101516001600160a01b039290921690915260408051600580825260c0820190925291820160a08036833701905050816001815181106200025c57fe5b60200260200101516020018190525063adfca15e60e01b816001815181106200028157fe5b6020026020010151602001516000815181106200029a57fe5b6001600160e01b0319909216602092830291909101909101528051637a0ed62760e01b9082906001908110620002cc57fe5b602002602001015160200151600181518110620002e557fe5b6001600160e01b03199092166020928302919091019091015280516366ffd66360e11b90829060019081106200031757fe5b6020026020010151602001516002815181106200033057fe5b6001600160e01b03199092166020928302919091019091015280516314bbdacb60e21b90829060019081106200036257fe5b6020026020010151602001516003815181106200037b57fe5b6001600160e01b03199092166020928302919091019091015280516301ffc9a760e01b9082906001908110620003ad57fe5b602002602001015160200151600481518110620003c657fe5b60200260200101906001600160e01b03191690816001600160e01b031916815250508181600281518110620003f757fe5b60209081029190910101516001600160a01b03919091169052604080516002808252606082019092529081602001602082028036833701905050816002815181106200043f57fe5b60200260200101516020018190525063f2fde38b60e01b816002815181106200046457fe5b6020026020010151602001516000815181106200047d57fe5b6001600160e01b0319909216602092830291909101909101528051638da5cb5b60e01b9082906002908110620004af57fe5b602002602001015160200151600181518110620004c857fe5b6001600160e01b0319909216602092830291909101820152620004f6908290620000f962000591821b17901c565b50506301ffc9a760e01b6000908152600490930160205250506040808220805460ff19908116600190811790925563e712b4e160e01b845282842080548216831790556348e2b09360e01b845282842080548216831790556307f5828d60e41b845291909220805490911690911790555062000e61565b7fc8fcad8db84d3cc18b4c41d551ea0ee66dd599cde068d998e57d5e09332c131c90565b6000620005a86200056d60201b620000d51760201c565b905060005b825181101562000802576000838281518110620005c657fe5b60209081029190910101515190506001600160a01b038116156200078b576001600160a01b038116600090815260028401602052604090206001015461ffff16801580156200062d57506001600160a01b0382166000908152600285016020526040902054155b15620006ae5762000658826040518060600160405280602481526020016200322e6024913962000850565b506003830180546001808201835560009283526020808420830180546001600160a01b0319166001600160a01b03871690811790915584526002870190526040909220909101805461ffff191661ffff83161790555b60005b858481518110620006be57fe5b6020026020010151602001515181101562000783576000868581518110620006e257fe5b6020026020010151602001518281518110620006fa57fe5b6020908102919091018101516001600160e01b031981166000908152600189019092526040909120549091506001600160a01b031680620007475762000741858362000883565b62000778565b846001600160a01b0316816001600160a01b03161462000778576200076c8262000938565b62000778858362000883565b5050600101620006b1565b5050620007f8565b60005b8483815181106200079b57fe5b60200260200101516020015151811015620007f657620007ed858481518110620007c157fe5b6020026020010151602001518281518110620007d957fe5b60200260200101516200093860201b60201c565b6001016200078e565b505b50600101620005ad565b5060408051600080825260208201928390527f39725dd03d877043d78fdfe186295e46e6277eb0a3498f2adb51071f42a2bdcb92620008449286929162000da3565b60405180910390a15050565b813b81816200087d5760405162461bcd60e51b815260040162000874919062000e4c565b60405180910390fd5b50505050565b60006200089a6200056d60201b620000d51760201c565b6001600160a01b03909316600081815260028501602090815260408083208054600180820183559185528385206008820401805460e08a901c600460078516026101000a90810263ffffffff909102199091161790556001600160e01b03199097168452909601905293909320805461ffff909316600160a01b0261ffff60a01b196001600160a01b03199094169094179290921692909217905550565b60006200094f6200056d60201b620000d51760201c565b6001600160e01b0319831660009081526001820160205260409020549091506001600160a01b0316806200098557505062000c51565b6001600160e01b0319831660009081526001830160209081526040808320546001600160a01b03851684526002860190925282208054600160a01b90920461ffff169260001983019290919083908110620009dc57fe5b90600052602060002090600891828204019190066004029054906101000a900460e01b9050856001600160e01b031916816001600160e01b0319161462000aaf576001600160a01b0384166000908152600286016020526040902080548291908590811062000a4757fe5b600091825260208083206008830401805463ffffffff60079094166004026101000a938402191660e09590951c929092029390931790556001600160e01b0319831681526001870190915260409020805461ffff60a01b1916600160a01b61ffff8616021790555b6001600160a01b0384166000908152600286016020526040902080548062000ad357fe5b60008281526020808220600860001990940193840401805463ffffffff600460078716026101000a0219169055919092556001600160e01b0319881682526001870190526040902080546001600160b01b03191690558162000c4b576003850180546000198101916000918390811062000b4957fe5b60009182526020808320909101546001600160a01b0389811680855260028c019093526040909320600101549216925061ffff90911690821462000be3578188600301828154811062000b9857fe5b600091825260208083209190910180546001600160a01b0319166001600160a01b03948516179055918416815260028a0190915260409020600101805461ffff191661ffff83161790555b8760030180548062000bf157fe5b60008281526020808220830160001990810180546001600160a01b03191690559092019092556001600160a01b038916825260028a019052604081209062000c3a828262000c96565b50600101805461ffff191690555050505b50505050505b50565b610f5c806200191683390190565b61073f806200287283390190565b61027d8062002fb183390190565b60408051808201909152600081526060602082015290565b50805460008255600701600890049060005260206000209081019062000c5191905b8082111562000cce576000815560010162000cb8565b5090565b60006020828403121562000ce4578081fd5b81516001600160a01b038116811462000cfb578182fd5b9392505050565b6001600160a01b03169052565b6000815180845260208085019450808401835b8381101562000d4a5781516001600160e01b0319168752958201959082019060010162000d22565b509495945050505050565b60008151808452815b8181101562000d7c5760208185018101518683018201520162000d5e565b8181111562000d8e5782602083870101525b50601f01601f19169290920160200192915050565b60006060820160608352808651808352608085019150602092506080838202860101838901855b8381101562000e1b57607f198884030185528151604062000ded85835162000d02565b878201519150808886015262000e068186018362000d0f565b96880196945050509085019060010162000dca565b505062000e2b8487018962000d02565b858103604087015262000e3f818862000d55565b9998505050505050505050565b60006020825262000cfb602083018462000d55565b610aa58062000e716000396000f3fe60806040523661000b57005b600080356001600160e01b03191681527fc8fcad8db84d3cc18b4c41d551ea0ee66dd599cde068d998e57d5e09332c131d60205260409020547fc8fcad8db84d3cc18b4c41d551ea0ee66dd599cde068d998e57d5e09332c131c9081906001600160a01b0316806100b1576040517f08c379a00000000000000000000000000000000000000000000000000000000081526004016100a890610a16565b60405180910390fd5b3660008037600080366000845af43d6000803e8080156100d0573d6000f35b3d6000fd5b7fc8fcad8db84d3cc18b4c41d551ea0ee66dd599cde068d998e57d5e09332c131c90565b60006101036100d5565b905060005b825181101561034557600083828151811061011f57fe5b60209081029190910101515190506001600160a01b038116156102dc576001600160a01b038116600090815260028401602052604090206001015461ffff168015801561018457506001600160a01b0382166000908152600285016020526040902054155b1561020e576101ab82604051806060016040528060248152602001610a4c60249139610391565b5060038301805460018082018355600092835260208084208301805473ffffffffffffffffffffffffffffffffffffffff19166001600160a01b03871690811790915584526002870190526040909220909101805461ffff191661ffff83161790555b60005b85848151811061021d57fe5b602002602001015160200151518110156102d557600086858151811061023f57fe5b602002602001015160200151828151811061025657fe5b6020908102919091018101516001600160e01b031981166000908152600189019092526040909120549091506001600160a01b03168061029f5761029a85836103d2565b6102cb565b846001600160a01b0316816001600160a01b0316146102cb576102c1826104b2565b6102cb85836103d2565b5050600101610211565b505061033c565b60005b8483815181106102eb57fe5b6020026020010151602001515181101561033a5761033285848151811061030e57fe5b602002602001015160200151828151811061032557fe5b60200260200101516104b2565b6001016102df565b505b50600101610108565b5060408051600080825260208201928390527f39725dd03d877043d78fdfe186295e46e6277eb0a3498f2adb51071f42a2bdcb926103859286929161093f565b60405180910390a15050565b813b81816103cc576040517f08c379a00000000000000000000000000000000000000000000000000000000081526004016100a891906109fc565b50505050565b60006103dc6100d5565b6001600160a01b03909316600081815260028501602090815260408083208054600180820183559185528385206008820401805460e08a901c600460078516026101000a90810263ffffffff909102199091161790556001600160e01b03199097168452909601905293909320805461ffff90931674010000000000000000000000000000000000000000027fffffffffffffffffffff0000ffffffffffffffffffffffffffffffffffffffff73ffffffffffffffffffffffffffffffffffffffff199094169094179290921692909217905550565b60006104bc6100d5565b6001600160e01b0319831660009081526001820160205260409020549091506001600160a01b0316806104f0575050610849565b6001600160e01b0319831660009081526001830160209081526040808320546001600160a01b038516845260028601909252822080547401000000000000000000000000000000000000000090920461ffff16926000198301929091908390811061055757fe5b90600052602060002090600891828204019190066004029054906101000a900460e01b9050857bffffffffffffffffffffffffffffffffffffffffffffffffffffffff1916817bffffffffffffffffffffffffffffffffffffffffffffffffffffffff19161461067d576001600160a01b038416600090815260028601602052604090208054829190859081106105ea57fe5b600091825260208083206008830401805463ffffffff60079094166004026101000a938402191660e09590951c929092029390931790556001600160e01b031983168152600187019091526040902080547fffffffffffffffffffff0000ffffffffffffffffffffffffffffffffffffffff167401000000000000000000000000000000000000000061ffff8616021790555b6001600160a01b038416600090815260028601602052604090208054806106a057fe5b60008281526020808220600860001990940193840401805463ffffffff600460078716026101000a0219169055919092556001600160e01b0319881682526001870190526040902080547fffffffffffffffffffff0000000000000000000000000000000000000000000016905581610843576003850180546000198101916000918390811061072c57fe5b60009182526020808320909101546001600160a01b0389811680855260028c019093526040909320600101549216925061ffff9091169082146107d1578188600301828154811061077957fe5b6000918252602080832091909101805473ffffffffffffffffffffffffffffffffffffffff19166001600160a01b03948516179055918416815260028a0190915260409020600101805461ffff191661ffff83161790555b876003018054806107de57fe5b600082815260208082208301600019908101805473ffffffffffffffffffffffffffffffffffffffff191690559092019092556001600160a01b038916825260028a0190526040812090610832828261084c565b50600101805461ffff191690555050505b50505050505b50565b50805460008255600701600890049060005260206000209081019061084991905b80821115610881576000815560010161086d565b5090565b6001600160a01b03169052565b6000815180845260208085019450808401835b838110156108cb5781516001600160e01b031916875295820195908201906001016108a5565b509495945050505050565b60008151808452815b818110156108fb576020818501810151868301820152016108df565b8181111561090c5782602083870101525b50601f017fffffffffffffffffffffffffffffffffffffffffffffffffffffffffffffffe0169290920160200192915050565b60006060820160608352808651808352608085019150602092506080838202860101838901855b838110156109cf577fffffffffffffffffffffffffffffffffffffffffffffffffffffffffffffff80888403018552815160406109a4858351610885565b87820151915080888601526109bb81860183610892565b968801969450505090850190600101610966565b50506109dd84870189610885565b85810360408701526109ef81886108d6565b9998505050505050505050565b600060208252610a0f60208301846108d6565b9392505050565b6020808252818101527f4469616d6f6e643a2046756e6374696f6e20646f6573206e6f7420657869737460408201526060019056fe4c69624469616d6f6e644375743a204e657720666163657420686173206e6f20636f6465a264697066735822122012e7ed35b4a2847b23e9d014f8b7b3c729039992cbc88821d0901892d1f6ba3d64736f6c63430007010033608060405234801561001057600080fd5b50610f3c806100206000396000f3fe608060405234801561001057600080fd5b506004361061002b5760003560e01c8063e712b4e114610030575b600080fd5b61004361003e366004610a05565b610045565b005b61004f85856101c2565b7f39725dd03d877043d78fdfe186295e46e6277eb0a3498f2adb51071f42a2bdcb8585858585604051610086959493929190610b83565b60405180910390a16001600160a01b0383166100c85780156100c35760405162461bcd60e51b81526004016100ba90610cea565b60405180910390fd5b6101bb565b806100e55760405162461bcd60e51b81526004016100ba90610d47565b6001600160a01b038316301461011757610117836040518060600160405280602a8152602001610eb7602a91396104b6565b60006060846001600160a01b03168484604051610135929190610b73565b600060405180830381855af49150503d8060008114610170576040519150601f19603f3d011682016040523d82523d6000602084013e610175565b606091505b5091509150816101b8578051156101a0578060405162461bcd60e51b81526004016100ba9190610c60565b60405162461bcd60e51b81526004016100ba90610da4565b50505b5050505050565b60006101cc6104d7565b80549091506001600160a01b031633146101f85760405162461bcd60e51b81526004016100ba90610cb3565b60005b828110156104b057600084848381811061021157fe5b90506020028101906102239190610e4f565b6102319060208101906109e3565b90506001600160a01b03811615610412576001600160a01b038116600090815260028401602052604090206001015461ffff168015801561028a57506001600160a01b0382166000908152600285016020526040902054155b15610314576102b182604051806060016040528060268152602001610ee1602691396104b6565b5060038301805460018082018355600092835260208084208301805473ffffffffffffffffffffffffffffffffffffffff19166001600160a01b03871690811790915584526002870190526040909220909101805461ffff191661ffff83161790555b60005b86868581811061032357fe5b90506020028101906103359190610e4f565b610343906020810190610e01565b905081101561040b57600087878681811061035a57fe5b905060200281019061036c9190610e4f565b61037a906020810190610e01565b8381811061038457fe5b90506020020160208101906103999190610ad8565b6001600160e01b0319811660009081526001880160205260409020549091506001600160a01b0316806103d5576103d085836104fb565b610401565b846001600160a01b0316816001600160a01b031614610401576103f7826105db565b61040185836104fb565b5050600101610317565b50506104a7565b60005b85858481811061042157fe5b90506020028101906104339190610e4f565b610441906020810190610e01565b90508110156104a55761049d86868581811061045957fe5b905060200281019061046b9190610e4f565b610479906020810190610e01565b8381811061048357fe5b90506020020160208101906104989190610ad8565b6105db565b600101610415565b505b506001016101fb565b50505050565b813b81816104b05760405162461bcd60e51b81526004016100ba9190610c60565b7fc8fcad8db84d3cc18b4c41d551ea0ee66dd599cde068d998e57d5e09332c131c90565b60006105056104d7565b6001600160a01b03909316600081815260028501602090815260408083208054600180820183559185528385206008820401805460e08a901c600460078516026101000a90810263ffffffff909102199091161790556001600160e01b03199097168452909601905293909320805461ffff90931674010000000000000000000000000000000000000000027fffffffffffffffffffff0000ffffffffffffffffffffffffffffffffffffffff73ffffffffffffffffffffffffffffffffffffffff199094169094179290921692909217905550565b60006105e56104d7565b6001600160e01b0319831660009081526001820160205260409020549091506001600160a01b031680610619575050610972565b6001600160e01b0319831660009081526001830160209081526040808320546001600160a01b038516845260028601909252822080547401000000000000000000000000000000000000000090920461ffff16926000198301929091908390811061068057fe5b90600052602060002090600891828204019190066004029054906101000a900460e01b9050857bffffffffffffffffffffffffffffffffffffffffffffffffffffffff1916817bffffffffffffffffffffffffffffffffffffffffffffffffffffffff1916146107a6576001600160a01b0384166000908152600286016020526040902080548291908590811061071357fe5b600091825260208083206008830401805463ffffffff60079094166004026101000a938402191660e09590951c929092029390931790556001600160e01b031983168152600187019091526040902080547fffffffffffffffffffff0000ffffffffffffffffffffffffffffffffffffffff167401000000000000000000000000000000000000000061ffff8616021790555b6001600160a01b038416600090815260028601602052604090208054806107c957fe5b60008281526020808220600860001990940193840401805463ffffffff600460078716026101000a0219169055919092556001600160e01b0319881682526001870190526040902080547fffffffffffffffffffff000000000000000000000000000000000000000000001690558161096c576003850180546000198101916000918390811061085557fe5b60009182526020808320909101546001600160a01b0389811680855260028c019093526040909320600101549216925061ffff9091169082146108fa57818860030182815481106108a257fe5b6000918252602080832091909101805473ffffffffffffffffffffffffffffffffffffffff19166001600160a01b03948516179055918416815260028a0190915260409020600101805461ffff191661ffff83161790555b8760030180548061090757fe5b600082815260208082208301600019908101805473ffffffffffffffffffffffffffffffffffffffff191690559092019092556001600160a01b038916825260028a019052604081209061095b8282610975565b50600101805461ffff191690555050505b50505050505b50565b50805460008255600701600890049060005260206000209081019061097291905b808211156109aa5760008155600101610996565b5090565b80356001600160a01b03811681146109c557600080fd5b92915050565b80356001600160e01b0319811681146109c557600080fd5b6000602082840312156109f4578081fd5b6109fe83836109ae565b9392505050565b600080600080600060608688031215610a1c578081fd5b853567ffffffffffffffff80821115610a33578283fd5b818801915088601f830112610a46578283fd5b813581811115610a54578384fd5b60208a818284028601011115610a68578485fd5b8084019850819750610a7c8b828c016109ae565b965060408a0135935082841115610a91578485fd5b838a0193508a601f850112610aa4578485fd5b8335915082821115610ab4578485fd5b8a81838601011115610ac4578485fd5b979a96995094975050909401935090919050565b600060208284031215610ae9578081fd5b6109fe83836109cb565b6001600160a01b03169052565b60008284526020808501945082825b85811015610b3e578282016001600160e01b0319610b2d82856109cb565b168852968301969150600101610b0f565b509495945050505050565b60008284528282602086013780602084860101526020601f19601f85011685010190509392505050565b6000828483379101908152919050565b606080825281018590526000602060808084019082890285010189845b8a811015610c31577fffffffffffffffffffffffffffffffffffffffffffffffffffffffffffffff808784030184528135603e198d3603018112610be2578687fd5b8c016040868201610bfc86610bf783866109ae565b610af3565b610c068184610e6e565b935090508188870152610c1c8287018483610b00565b96880196955050509185019150600101610ba0565b5050610c3f83860189610af3565b8481036040860152610c52818789610b49565b9a9950505050505050505050565b6000602080835283518082850152825b81811015610c8c57858101830151858201604001528201610c70565b81811115610c9d5783604083870101525b50601f01601f1916929092016040019392505050565b60208082526016908201527f4d757374206f776e2074686520636f6e74726163742e00000000000000000000604082015260600190565b6020808252603e908201527f4469616d6f6e6443757446616365743a205f696e69742069732061646472657360408201527f73283029206275745f63616c6c64617461206973206e6f7420656d7074790000606082015260800190565b6020808252603f908201527f4469616d6f6e6443757446616365743a205f63616c6c6461746120697320656d60408201527f70747920627574205f696e6974206973206e6f74206164647265737328302900606082015260800190565b60208082526028908201527f4469616d6f6e6443757446616365743a205f696e69742066756e6374696f6e2060408201527f7265766572746564000000000000000000000000000000000000000000000000606082015260800190565b6000808335601e19843603018112610e17578283fd5b83018035915067ffffffffffffffff821115610e31578283fd5b6020908101925081023603821315610e4857600080fd5b9250929050565b60008235603e19833603018112610e64578182fd5b9190910192915050565b6000808335601e19843603018112610e84578283fd5b830160208101925035905067ffffffffffffffff811115610ea457600080fd5b602081023603831315610e4857600080fdfe4469616d6f6e6443757446616365743a205f696e6974206164647265737320686173206e6f20636f64654469616d6f6e6443757446616365743a204e657720666163657420686173206e6f20636f6465a2646970667358221220d549925be7f162ad8bee0e5faaf2f9a9e548ed65080d804fbd4dcdb3aa77977264736f6c63430007010033608060405234801561001057600080fd5b5061071f806100206000396000f3fe608060405234801561001057600080fd5b50600436106100675760003560e01c80637a0ed627116100505780637a0ed627146100aa578063adfca15e146100bf578063cdffacc6146100df57610067565b806301ffc9a71461006c57806352ef6b2c14610095575b600080fd5b61007f61007a36600461050f565b6100ff565b60405161008c91906106de565b60405180910390f35b61009d61014a565b60405161008c91906105cc565b6100b26101c3565b60405161008c9190610639565b6100d26100cd3660046104d4565b610370565b60405161008c9190610626565b6100f26100ed36600461050f565b61043c565b60405161008c91906105ab565b60008061010a610498565b7fffffffff00000000000000000000000000000000000000000000000000000000841660009081526004909101602052604090205460ff16915050919050565b60606000610156610498565b600381018054604080516020808402820181019092528281529394508301828280156101b857602002820191906000526020600020905b815473ffffffffffffffffffffffffffffffffffffffff16815260019091019060200180831161018d575b505050505091505090565b606060006101cf610498565b60038101549091508067ffffffffffffffff811180156101ee57600080fd5b5060405190808252806020026020018201604052801561022857816020015b6102156104bc565b81526020019060019003908161020d5790505b50925060005b8181101561036a57600083600301828154811061024757fe5b9060005260206000200160009054906101000a900473ffffffffffffffffffffffffffffffffffffffff1690508085838151811061028157fe5b60209081029190910181015173ffffffffffffffffffffffffffffffffffffffff928316905290821660009081526002860182526040908190208054825181850281018501909352808352919290919083018282801561034257602002820191906000526020600020906000905b82829054906101000a900460e01b7bffffffffffffffffffffffffffffffffffffffffffffffffffffffff1916815260200190600401906020826003010492830192600103820291508084116102ef5790505b505050505085838151811061035357fe5b60209081029190910181015101525060010161022e565b50505090565b6060600061037c610498565b73ffffffffffffffffffffffffffffffffffffffff84166000908152600282016020908152604091829020805483518184028101840190945280845293945091929083018282801561042f57602002820191906000526020600020906000905b82829054906101000a900460e01b7bffffffffffffffffffffffffffffffffffffffffffffffffffffffff1916815260200190600401906020826003010492830192600103820291508084116103dc5790505b5050505050915050919050565b600080610447610498565b7fffffffff00000000000000000000000000000000000000000000000000000000909316600090815260019093016020525050604090205473ffffffffffffffffffffffffffffffffffffffff1690565b7fc8fcad8db84d3cc18b4c41d551ea0ee66dd599cde068d998e57d5e09332c131c90565b60408051808201909152600081526060602082015290565b6000602082840312156104e5578081fd5b813573ffffffffffffffffffffffffffffffffffffffff81168114610508578182fd5b9392505050565b600060208284031215610520578081fd5b81357fffffffff0000000000000000000000000000000000000000000000000000000081168114610508578182fd5b6000815180845260208085019450808401835b838110156105a05781517fffffffff000000000000000000000000000000000000000000000000000000001687529582019590820190600101610562565b509495945050505050565b73ffffffffffffffffffffffffffffffffffffffff91909116815260200190565b6020808252825182820181905260009190848201906040850190845b8181101561061a57835173ffffffffffffffffffffffffffffffffffffffff16835292840192918401916001016105e8565b50909695505050505050565b600060208252610508602083018461054f565b60208082528251828201819052600091906040908185019080840286018301878501865b838110156106d0578883037fffffffffffffffffffffffffffffffffffffffffffffffffffffffffffffffc00185528151805173ffffffffffffffffffffffffffffffffffffffff1684528701518784018790526106bd8785018261054f565b958801959350509086019060010161065d565b509098975050505050505050565b90151581526020019056fea2646970667358221220e6bc52eff367bffa184f21fff4b2b1e67b39a7f4ef10559888221813c6c7b50164736f6c63430007010033608060405234801561001057600080fd5b5061025d806100206000396000f3fe608060405234801561001057600080fd5b50600436106100365760003560e01c80638da5cb5b1461003b578063f2fde38b14610059575b600080fd5b61004361006e565b60405161005091906101cf565b60405180910390f35b61006c610067366004610194565b610096565b005b600080610079610170565b5473ffffffffffffffffffffffffffffffffffffffff1691505090565b60006100a0610170565b805490915073ffffffffffffffffffffffffffffffffffffffff163381146100fd576040517f08c379a00000000000000000000000000000000000000000000000000000000081526004016100f4906101f0565b60405180910390fd5b81547fffffffffffffffffffffffff00000000000000000000000000000000000000001673ffffffffffffffffffffffffffffffffffffffff8481169182178455604051908316907f8be0079c531659141344cd1fd0a4f28419497f9722a3daafe3b4186f6b6457e090600090a3505050565b7fc8fcad8db84d3cc18b4c41d551ea0ee66dd599cde068d998e57d5e09332c131c90565b6000602082840312156101a5578081fd5b813573ffffffffffffffffffffffffffffffffffffffff811681146101c8578182fd5b9392505050565b73ffffffffffffffffffffffffffffffffffffffff91909116815260200190565b60208082526016908201527f4d757374206f776e2074686520636f6e74726163742e0000000000000000000060408201526060019056fea2646970667358221220e4ef1d95ebf335ba5234af7aa0a862982465bbdd5e9a39f9552b962ab297b95c64736f6c634300070100334c69624469616d6f6e644375743a204e657720666163657420686173206e6f20636f6465a264697066735822122066549c6b30b1c727bb6e120bc90407b2f392893ac047ec2306da72d62658073364736f6c63430007010033",
  "linkReferences": {},
  "deployedLinkReferences": {}
}